{
  "contractName": "SendBack",
  "abi": [
    {
      "constant": false,
      "inputs": [],
      "name": "withdrawBalance",
      "outputs": [],
      "payable": false,
      "stateMutability": "nonpayable",
      "type": "function"
    }
  ],
  "bytecode": "0x6080604052348015600f57600080fd5b506101498061001f6000396000f300608060405260043610610041576000357c0100000000000000000000000000000000000000000000000000000000900463ffffffff1680635fd8c71014610046575b600080fd5b34801561005257600080fd5b5061005b61005d565b005b60008060003373ffffffffffffffffffffffffffffffffffffffff1673ffffffffffffffffffffffffffffffffffffffff16815260200190815260200160002054905060008060003373ffffffffffffffffffffffffffffffffffffffff1673ffffffffffffffffffffffffffffffffffffffff168152602001908152602001600020819055503373ffffffffffffffffffffffffffffffffffffffff166108fc829081150290604051600060405180830381858888f1935050505050505600a165627a7a723058203d65ec1a3f9701b147177b17ebc4b1fafcf1da6939e445319ea1c1b46db1cb860029",
  "source": "/*\n * @source: https://github.com/seresistvanandras/EthBench/blob/master/Benchmark/Simple/mishandled.sol \n * @author: -\n * @vulnerable_at_lines: 14\n */\n\npragma solidity ^0.4.0;\ncontract SendBack {\n    mapping (address => uint) userBalances;\n    function withdrawBalance() {  \n\t\tuint amountToWithdraw = userBalances[msg.sender];\n\t\tuserBalances[msg.sender] = 0;\n        // <yes> <report> UNCHECKED_LL_CALLS\n\t\tmsg.sender.send(amountToWithdraw);\n\t}\n}",
  "sourcePath": "/home/test/ilf-workspace/proj/contracts/mishandled.sol",
  "compiler": {
    "name": "solc",
    "version": "0.4.25+commit.59dbf8f1.Linux.g++"
  },
  "schemaVersion": "3.0.15",
  "updatedAt": "2024-04-04T09:51:31.170Z",
  "devdoc": {
    "methods": {}
  },
  "userdoc": {
    "methods": {}
  }
}