{
  "contractName": "MONEY_BOX",
  "abi": [
    {
      "constant": true,
      "inputs": [
        {
          "name": "",
          "type": "address"
        }
      ],
      "name": "Acc",
      "outputs": [
        {
          "name": "unlockTime",
          "type": "uint256"
        },
        {
          "name": "balance",
          "type": "uint256"
        }
      ],
      "payable": false,
      "stateMutability": "view",
      "type": "function"
    },
    {
      "constant": true,
      "inputs": [],
      "name": "MinSum",
      "outputs": [
        {
          "name": "",
          "type": "uint256"
        }
      ],
      "payable": false,
      "stateMutability": "view",
      "type": "function"
    },
    {
      "payable": true,
      "stateMutability": "payable",
      "type": "fallback"
    },
    {
      "constant": false,
      "inputs": [
        {
          "name": "_val",
          "type": "uint256"
        }
      ],
      "name": "SetMinSum",
      "outputs": [],
      "payable": false,
      "stateMutability": "nonpayable",
      "type": "function"
    },
    {
      "constant": false,
      "inputs": [
        {
          "name": "_log",
          "type": "address"
        }
      ],
      "name": "SetLogFile",
      "outputs": [],
      "payable": false,
      "stateMutability": "nonpayable",
      "type": "function"
    },
    {
      "constant": false,
      "inputs": [],
      "name": "Initialized",
      "outputs": [],
      "payable": false,
      "stateMutability": "nonpayable",
      "type": "function"
    },
    {
      "constant": false,
      "inputs": [
        {
          "name": "_lockTime",
          "type": "uint256"
        }
      ],
      "name": "Put",
      "outputs": [],
      "payable": true,
      "stateMutability": "payable",
      "type": "function"
    },
    {
      "constant": false,
      "inputs": [
        {
          "name": "_am",
          "type": "uint256"
        }
      ],
      "name": "Collect",
      "outputs": [],
      "payable": true,
      "stateMutability": "payable",
      "type": "function"
    }
  ],
  "bytecode": "0x608060405234801561001057600080fd5b506103be806100206000396000f300608060405260043610610083576000357c0100000000000000000000000000000000000000000000000000000000900463ffffffff168063303b93791461008f5780633fe43822146100d25780635daa87a0146100f2578063640d30171461010957806365f3c31a146101365780637731cd2a14610156578063c2808d1a146101b4575b61008d60006101df565b005b34801561009b57600080fd5b506100d0600480360381019080803573ffffffffffffffffffffffffffffffffffffffff169060200190929190505050610251565b005b6100f06004803603810190808035906020019092919050505061026e565b005b3480156100fe57600080fd5b50610107610327565b005b34801561011557600080fd5b5061013460048036038101908080359060200190929190505050610344565b005b610154600480360381019080803590602001909291905050506101df565b005b34801561016257600080fd5b50610197600480360381019080803573ffffffffffffffffffffffffffffffffffffffff169060200190929190505050610368565b604051808381526020018281526020019250505060405180910390f35b3480156101c057600080fd5b506101c961038c565b6040518082815260200191505060405180910390f35b60008060003373ffffffffffffffffffffffffffffffffffffffff1673ffffffffffffffffffffffffffffffffffffffff16815260200190815260200160002090503481600101600082825401925050819055508060000154824201111561024d5781420181600001819055505b5050565b600260009054906101000a900460ff161561026b57600080fd5b50565b60008060003373ffffffffffffffffffffffffffffffffffffffff1673ffffffffffffffffffffffffffffffffffffffff16815260200190815260200160002090506001548160010154101580156102ca575081816001015410155b80156102d95750806000015442115b15610323573373ffffffffffffffffffffffffffffffffffffffff168260405160006040518083038185875af19250505015610322578181600101600082825403925050819055505b5b5050565b6001600260006101000a81548160ff021916908315150217905550565b600260009054906101000a900460ff161561035e57600080fd5b8060018190555050565b60006020528060005260406000206000915090508060000154908060010154905082565b600154815600a165627a7a72305820431d298e24f5df47df3ee055cbbc2eb2b40440507b30c359f4128a61448322210029",
  "source": "/*\r\n * @source: etherscan.io \r\n * @author: -\r\n * @vulnerable_at_lines: 63\r\n */\r\n\r\npragma solidity ^0.4.19;\r\n\r\ncontract MONEY_BOX   \r\n{\r\n    struct Holder   \r\n    {\r\n        uint unlockTime;\r\n        uint balance;\r\n    }\r\n    \r\n    mapping (address => Holder) public Acc;\r\n    \r\n    uint public MinSum;\r\n    \r\n    bool intitalized;\r\n    \r\n    function SetMinSum(uint _val)\r\n    public\r\n    {\r\n        if(intitalized)throw;\r\n        MinSum = _val;\r\n    }\r\n    \r\n    function SetLogFile(address _log)\r\n    public\r\n    {\r\n        if(intitalized)throw;\r\n    }\r\n    \r\n    function Initialized()\r\n    public\r\n    {\r\n        intitalized = true;\r\n    }\r\n    \r\n    function Put(uint _lockTime)\r\n    public\r\n    payable\r\n    {\r\n        var acc = Acc[msg.sender];\r\n        acc.balance += msg.value;\r\n        if(now+_lockTime>acc.unlockTime)acc.unlockTime=now+_lockTime;\r\n    }\r\n    \r\n    function Collect(uint _am)\r\n    public\r\n    payable\r\n    {\r\n        var acc = Acc[msg.sender];\r\n        if( acc.balance>=MinSum && acc.balance>=_am && now>acc.unlockTime)\r\n        {\r\n            // <yes> <report> REENTRANCY\r\n            if(msg.sender.call.value(_am)())\r\n            {\r\n                acc.balance-=_am;\r\n            }\r\n        }\r\n    }\r\n    \r\n    function() \r\n    public \r\n    payable\r\n    {\r\n        Put(0);\r\n    }\r\n    \r\n}\r\n",
  "sourcePath": "/home/test/ilf-workspace/proj/contracts/0xbe4041d55db380c5ae9d4a9b9703f1ed4e7e3888.sol",
  "compiler": {
    "name": "solc",
    "version": "0.4.25+commit.59dbf8f1.Linux.g++"
  },
  "schemaVersion": "3.0.15",
  "updatedAt": "2024-04-03T23:04:32.570Z",
  "devdoc": {
    "methods": {}
  },
  "userdoc": {
    "methods": {}
  }
}