{
  "contractName": "Lottery",
  "abi": [
    {
      "inputs": [],
      "payable": false,
      "stateMutability": "nonpayable",
      "type": "constructor"
    },
    {
      "payable": false,
      "stateMutability": "nonpayable",
      "type": "fallback"
    },
    {
      "anonymous": false,
      "inputs": [
        {
          "indexed": false,
          "name": "betAmount",
          "type": "uint256"
        },
        {
          "indexed": false,
          "name": "blockNumber",
          "type": "uint256"
        },
        {
          "indexed": false,
          "name": "won",
          "type": "bool"
        }
      ],
      "name": "GetBet",
      "type": "event"
    },
    {
      "constant": false,
      "inputs": [],
      "name": "makeBet",
      "outputs": [],
      "payable": true,
      "stateMutability": "payable",
      "type": "function"
    },
    {
      "constant": false,
      "inputs": [],
      "name": "getBets",
      "outputs": [],
      "payable": false,
      "stateMutability": "nonpayable",
      "type": "function"
    },
    {
      "constant": false,
      "inputs": [],
      "name": "destroy",
      "outputs": [],
      "payable": false,
      "stateMutability": "nonpayable",
      "type": "function"
    }
  ],
  "bytecode": "0x608060405234801561001057600080fd5b50336000806101000a81548173ffffffffffffffffffffffffffffffffffffffff021916908373ffffffffffffffffffffffffffffffffffffffff160217905550610378806100606000396000f300608060405260043610610057576000357c0100000000000000000000000000000000000000000000000000000000900463ffffffff168063561e91a11461006957806383197ef014610073578063a6afd5fd1461008a575b34801561006357600080fd5b50600080fd5b6100716100a1565b005b34801561007f57600080fd5b50610088610180565b005b34801561009657600080fd5b5061009f610215565b005b6000806002438115156100b057fe5b06149050600160606040519081016040528034815260200143815260200183151581525090806001815401808255809150509060018203906000526020600020906003020160009091929091909150600082015181600001556020820151816001015560408201518160020160006101000a81548160ff021916908315150217905550505050801561017d573373ffffffffffffffffffffffffffffffffffffffff166108fc349081150290604051600060405180830381858888f19350505050151561017c57600080fd5b5b50565b6000809054906101000a900473ffffffffffffffffffffffffffffffffffffffff1673ffffffffffffffffffffffffffffffffffffffff163373ffffffffffffffffffffffffffffffffffffffff161415156101db57600080fd5b6000809054906101000a900473ffffffffffffffffffffffffffffffffffffffff1673ffffffffffffffffffffffffffffffffffffffff16ff5b60008060009054906101000a900473ffffffffffffffffffffffffffffffffffffffff1673ffffffffffffffffffffffffffffffffffffffff163373ffffffffffffffffffffffffffffffffffffffff1614151561027257600080fd5b600090505b600180549050811015610349577f963de4d21b88c245c33046460072c6286e7f96ba9d57b9a77b3d89ce01f093716001828154811015156102b457fe5b9060005260206000209060030201600001546001838154811015156102d557fe5b9060005260206000209060030201600101546001848154811015156102f657fe5b906000526020600020906003020160020160009054906101000a900460ff166040518084815260200183815260200182151515158152602001935050505060405180910390a18080600101915050610277565b505600a165627a7a723058200eb0584158bf95127786fa3218e29871806c0e726a15b7825616eb450e1130720029",
  "source": "/*\n * @article: https://blog.positive.com/predicting-random-numbers-in-ethereum-smart-contracts-e5358c6b8620\n * @source: https://etherscan.io/address/0x80ddae5251047d6ceb29765f38fed1c0013004b7#code\n * @vulnerable_at_lines: 38,42\n * @author: -\n */\n\n //added pragma version\n  pragma solidity ^0.4.0;\n  \n contract Lottery {\n     event GetBet(uint betAmount, uint blockNumber, bool won);\n\n     struct Bet {\n         uint betAmount;\n         uint blockNumber;\n         bool won;\n     }\n\n     address private organizer;\n     Bet[] private bets;\n\n     // Create a new lottery with numOfBets supported bets.\n     function Lottery() {\n         organizer = msg.sender;\n     }\n\n     // Fallback function returns ether\n     function() {\n         throw;\n     }\n\n     // Make a bet\n     function makeBet() payable {\n         // Won if block number is even\n         // (note: this is a terrible source of randomness, please don't use this with real money)\n         // <yes> <report> BAD_RANDOMNESS\n         bool won = (block.number % 2) == 0;\n\n         // Record the bet with an event\n         // <yes> <report> BAD_RANDOMNESS\n         bets.push(Bet(msg.value, block.number, won));\n\n         // Payout if the user won, otherwise take their money\n         if(won) {\n             if(!msg.sender.send(msg.value)) {\n                 // Return ether to sender\n                 throw;\n             }\n         }\n     }\n\n     // Get all bets that have been made\n     function getBets() {\n         if(msg.sender != organizer) { throw; }\n\n         for (uint i = 0; i < bets.length; i++) {\n             GetBet(bets[i].betAmount, bets[i].blockNumber, bets[i].won);\n         }\n     }\n\n     // Suicide :(\n     function destroy() {\n         if(msg.sender != organizer) { throw; }\n\n         suicide(organizer);\n     }\n }\n",
  "sourcePath": "/home/test/ilf-workspace/proj/contracts/lottery.sol",
  "compiler": {
    "name": "solc",
    "version": "0.4.25+commit.59dbf8f1.Linux.g++"
  },
  "schemaVersion": "3.0.15",
  "updatedAt": "2024-04-04T18:29:33.317Z",
  "devdoc": {
    "methods": {}
  },
  "userdoc": {
    "methods": {}
  }
}