{
  "contractName": "PrivateDeposit",
  "abi": [
    {
      "constant": true,
      "inputs": [],
      "name": "MinDeposit",
      "outputs": [
        {
          "name": "",
          "type": "uint256"
        }
      ],
      "payable": false,
      "stateMutability": "view",
      "type": "function"
    },
    {
      "constant": true,
      "inputs": [
        {
          "name": "",
          "type": "address"
        }
      ],
      "name": "balances",
      "outputs": [
        {
          "name": "",
          "type": "uint256"
        }
      ],
      "payable": false,
      "stateMutability": "view",
      "type": "function"
    },
    {
      "constant": true,
      "inputs": [],
      "name": "owner",
      "outputs": [
        {
          "name": "",
          "type": "address"
        }
      ],
      "payable": false,
      "stateMutability": "view",
      "type": "function"
    },
    {
      "inputs": [],
      "payable": false,
      "stateMutability": "nonpayable",
      "type": "constructor"
    },
    {
      "payable": true,
      "stateMutability": "payable",
      "type": "fallback"
    },
    {
      "constant": false,
      "inputs": [
        {
          "name": "_lib",
          "type": "address"
        }
      ],
      "name": "setLog",
      "outputs": [],
      "payable": false,
      "stateMutability": "nonpayable",
      "type": "function"
    },
    {
      "constant": false,
      "inputs": [],
      "name": "Deposit",
      "outputs": [],
      "payable": true,
      "stateMutability": "payable",
      "type": "function"
    },
    {
      "constant": false,
      "inputs": [
        {
          "name": "_am",
          "type": "uint256"
        }
      ],
      "name": "CashOut",
      "outputs": [],
      "payable": false,
      "stateMutability": "nonpayable",
      "type": "function"
    }
  ],
  "bytecode": "0x6080604052670de0b6b3a764000060015534801561001c57600080fd5b5033600260006101000a81548173ffffffffffffffffffffffffffffffffffffffff021916908373ffffffffffffffffffffffffffffffffffffffff1602179055506103bf8061006d6000396000f300608060405260043610610078576000357c0100000000000000000000000000000000000000000000000000000000900463ffffffff16806311bcd8301461007a57806327e235e3146100a55780634797f21b146100fc5780638da5cb5b1461013f5780639ffa071114610196578063ed21248c146101c3575b005b34801561008657600080fd5b5061008f6101cd565b6040518082815260200191505060405180910390f35b3480156100b157600080fd5b506100e6600480360381019080803573ffffffffffffffffffffffffffffffffffffffff1690602001909291905050506101d3565b6040518082815260200191505060405180910390f35b34801561010857600080fd5b5061013d600480360381019080803573ffffffffffffffffffffffffffffffffffffffff1690602001909291905050506101eb565b005b34801561014b57600080fd5b5061015461024a565b604051808273ffffffffffffffffffffffffffffffffffffffff1673ffffffffffffffffffffffffffffffffffffffff16815260200191505060405180910390f35b3480156101a257600080fd5b506101c160048036038101908080359060200190929190505050610270565b005b6101cb610339565b005b60015481565b60006020528060005260406000206000915090505481565b600260009054906101000a900473ffffffffffffffffffffffffffffffffffffffff1673ffffffffffffffffffffffffffffffffffffffff163273ffffffffffffffffffffffffffffffffffffffff1614151561024757600080fd5b50565b600260009054906101000a900473ffffffffffffffffffffffffffffffffffffffff1681565b6000803373ffffffffffffffffffffffffffffffffffffffff1673ffffffffffffffffffffffffffffffffffffffff1681526020019081526020016000205481111515610336573373ffffffffffffffffffffffffffffffffffffffff168160405160006040518083038185875af1925050501561033557806000803373ffffffffffffffffffffffffffffffffffffffff1673ffffffffffffffffffffffffffffffffffffffff168152602001908152602001600020600082825403925050819055505b5b50565b6001543410151561039157346000803373ffffffffffffffffffffffffffffffffffffffff1673ffffffffffffffffffffffffffffffffffffffff168152602001908152602001600020600082825401925050819055505b5600a165627a7a72305820a8c120b435025b99a743b8abacd6ab55e32aea244941a1ce1966fe5bb25637470029",
  "source": "/*\r\n * @source: etherscan.io \r\n * @author: -\r\n * @vulnerable_at_lines: 52\r\n */\r\n\r\npragma solidity ^0.4.19;\r\n\r\ncontract PrivateDeposit\r\n{\r\n    mapping (address => uint) public balances;\r\n        \r\n    uint public MinDeposit = 1 ether;\r\n    address public owner;\r\n    \r\n    modifier onlyOwner() {\r\n        require(tx.origin == owner);\r\n        _;\r\n    }    \r\n    \r\n    function PrivateDeposit()\r\n    {\r\n        owner = msg.sender;\r\n    }\r\n    \r\n    \r\n    \r\n    function setLog(address _lib) onlyOwner\r\n    {\r\n    }    \r\n    \r\n    function Deposit()\r\n    public\r\n    payable\r\n    {\r\n        if(msg.value >= MinDeposit)\r\n        {\r\n            balances[msg.sender]+=msg.value;\r\n        }\r\n    }\r\n    \r\n    function CashOut(uint _am)\r\n    {\r\n        if(_am<=balances[msg.sender])\r\n        {            \r\n            // <yes> <report> REENTRANCY\r\n            if(msg.sender.call.value(_am)())\r\n            {\r\n                balances[msg.sender]-=_am;\r\n            }\r\n        }\r\n    }\r\n    \r\n    function() public payable{}    \r\n    \r\n}\r\n",
  "sourcePath": "/home/test/ilf-workspace/proj/contracts/0x7a8721a9d64c74da899424c1b52acbf58ddc9782.sol",
  "compiler": {
    "name": "solc",
    "version": "0.4.25+commit.59dbf8f1.Linux.g++"
  },
  "schemaVersion": "3.0.15",
  "updatedAt": "2024-04-03T21:59:47.523Z",
  "devdoc": {
    "methods": {}
  },
  "userdoc": {
    "methods": {}
  }
}