{
  "contractName": "Ownable",
  "abi": [
    {
      "constant": false,
      "inputs": [
        {
          "name": "addr",
          "type": "address"
        }
      ],
      "name": "changeOwner",
      "outputs": [],
      "payable": false,
      "stateMutability": "nonpayable",
      "type": "function"
    },
    {
      "constant": false,
      "inputs": [],
      "name": "confirmOwner",
      "outputs": [],
      "payable": false,
      "stateMutability": "nonpayable",
      "type": "function"
    }
  ],
  "bytecode": "0x608060405233600160006101000a81548173ffffffffffffffffffffffffffffffffffffffff021916908373ffffffffffffffffffffffffffffffffffffffff16021790555034801561005157600080fd5b5061022b806100616000396000f30060806040526004361061004c576000357c0100000000000000000000000000000000000000000000000000000000900463ffffffff168063a6f9dae114610051578063bd9b6d8614610094575b600080fd5b34801561005d57600080fd5b50610092600480360381019080803573ffffffffffffffffffffffffffffffffffffffff1690602001909291905050506100ab565b005b3480156100a057600080fd5b506100a9610145565b005b3373ffffffffffffffffffffffffffffffffffffffff16600160009054906101000a900473ffffffffffffffffffffffffffffffffffffffff1673ffffffffffffffffffffffffffffffffffffffff16141561014257806000806101000a81548173ffffffffffffffffffffffffffffffffffffffff021916908373ffffffffffffffffffffffffffffffffffffffff1602179055505b50565b6000809054906101000a900473ffffffffffffffffffffffffffffffffffffffff1673ffffffffffffffffffffffffffffffffffffffff163373ffffffffffffffffffffffffffffffffffffffff1614156101fd576000809054906101000a900473ffffffffffffffffffffffffffffffffffffffff16600160006101000a81548173ffffffffffffffffffffffffffffffffffffffff021916908373ffffffffffffffffffffffffffffffffffffffff1602179055505b5600a165627a7a72305820492d490a6c0c8950a08ace56a2aafd27f3fae04b15bf423c5e83af9449636fe80029",
  "source": "/*\r\n * @source: etherscan.io \r\n * @author: -\r\n * @vulnerable_at_lines: 44\r\n */\r\n\r\npragma solidity ^0.4.19;\r\n\r\ncontract Ownable\r\n{\r\n    address newOwner;\r\n    address owner = msg.sender;\r\n    \r\n    function changeOwner(address addr)\r\n    public\r\n    onlyOwner\r\n    {\r\n        newOwner = addr;\r\n    }\r\n    \r\n    function confirmOwner() \r\n    public\r\n    {\r\n        if(msg.sender==newOwner)\r\n        {\r\n            owner=newOwner;\r\n        }\r\n    }\r\n    \r\n    modifier onlyOwner\r\n    {\r\n        if(owner == msg.sender)_;\r\n    }\r\n}\r\n\r\ncontract Token is Ownable\r\n{\r\n    address owner = msg.sender;\r\n    function WithdrawToken(address token, uint256 amount,address to)\r\n    public \r\n    onlyOwner\r\n    {\r\n         // <yes> <report> UNCHECKED_LL_CALLS\r\n        token.call(bytes4(sha3(\"transfer(address,uint256)\")),to,amount); \r\n    }\r\n}\r\n\r\ncontract TokenBank is Token\r\n{\r\n    uint public MinDeposit;\r\n    mapping (address => uint) public Holders;\r\n    \r\n     ///Constructor\r\n    function initTokenBank()\r\n    public\r\n    {\r\n        owner = msg.sender;\r\n        MinDeposit = 1 ether;\r\n    }\r\n    \r\n    function()\r\n    payable\r\n    {\r\n        Deposit();\r\n    }\r\n   \r\n    function Deposit() \r\n    payable\r\n    {\r\n        if(msg.value>MinDeposit)\r\n        {\r\n            Holders[msg.sender]+=msg.value;\r\n        }\r\n    }\r\n    \r\n    function WitdrawTokenToHolder(address _to,address _token,uint _amount)\r\n    public\r\n    onlyOwner\r\n    {\r\n        if(Holders[_to]>0)\r\n        {\r\n            Holders[_to]=0;\r\n            WithdrawToken(_token,_amount,_to);     \r\n        }\r\n    }\r\n   \r\n    function WithdrawToHolder(address _addr, uint _wei) \r\n    public\r\n    onlyOwner\r\n    payable\r\n    {\r\n        if(Holders[_addr]>0)\r\n        {\r\n            if(_addr.call.value(_wei)())\r\n            {\r\n                Holders[_addr]-=_wei;\r\n            }\r\n        }\r\n    }\r\n}",
  "sourcePath": "/home/test/ilf-workspace/proj/contracts/0x627fa62ccbb1c1b04ffaecd72a53e37fc0e17839.sol",
  "compiler": {
    "name": "solc",
    "version": "0.4.25+commit.59dbf8f1.Linux.g++"
  },
  "schemaVersion": "3.0.15",
  "updatedAt": "2024-04-05T03:07:42.210Z",
  "devdoc": {
    "methods": {}
  },
  "userdoc": {
    "methods": {}
  }
}