{
  "contractName": "EtherBank",
  "abi": [
    {
      "constant": true,
      "inputs": [
        {
          "name": "user",
          "type": "address"
        }
      ],
      "name": "getBalance",
      "outputs": [
        {
          "name": "",
          "type": "uint256"
        }
      ],
      "payable": false,
      "stateMutability": "view",
      "type": "function"
    },
    {
      "constant": false,
      "inputs": [],
      "name": "addToBalance",
      "outputs": [],
      "payable": true,
      "stateMutability": "payable",
      "type": "function"
    },
    {
      "constant": false,
      "inputs": [],
      "name": "withdrawBalance",
      "outputs": [],
      "payable": false,
      "stateMutability": "nonpayable",
      "type": "function"
    }
  ],
  "bytecode": "0x608060405234801561001057600080fd5b50610257806100206000396000f300608060405260043610610057576000357c0100000000000000000000000000000000000000000000000000000000900463ffffffff1680635fd8c7101461005c578063c0e317fb14610073578063f8b2cb4f1461007d575b600080fd5b34801561006857600080fd5b506100716100d4565b005b61007b610195565b005b34801561008957600080fd5b506100be600480360381019080803573ffffffffffffffffffffffffffffffffffffffff1690602001909291905050506101e3565b6040518082815260200191505060405180910390f35b60008060003373ffffffffffffffffffffffffffffffffffffffff1673ffffffffffffffffffffffffffffffffffffffff1681526020019081526020016000205490503373ffffffffffffffffffffffffffffffffffffffff168160405160006040518083038185875af192505050151561014e57600080fd5b60008060003373ffffffffffffffffffffffffffffffffffffffff1673ffffffffffffffffffffffffffffffffffffffff1681526020019081526020016000208190555050565b346000803373ffffffffffffffffffffffffffffffffffffffff1673ffffffffffffffffffffffffffffffffffffffff16815260200190815260200160002060008282540192505081905550565b60008060008373ffffffffffffffffffffffffffffffffffffffff1673ffffffffffffffffffffffffffffffffffffffff1681526020019081526020016000205490509190505600a165627a7a72305820cc770ad93653dc48efee7fefa1d1a522046b07552f1df61bce2aee77332ca7b20029",
  "source": "/*\n * @source: https://github.com/seresistvanandras/EthBench/blob/master/Benchmark/Simple/reentrant.sol\n * @author: -\n * @vulnerable_at_lines: 21\n */\n\npragma solidity ^0.4.0;\ncontract EtherBank{\n    mapping (address => uint) userBalances;\n    function getBalance(address user) constant returns(uint) {  \n\t\treturn userBalances[user];\n\t}\n\n\tfunction addToBalance() payable {\n\t\tuserBalances[msg.sender] += msg.value;\n\t}\n\n\tfunction withdrawBalance() {  \n\t\tuint amountToWithdraw = userBalances[msg.sender];\n        // <yes> <report> REENTRANCY\n\t\tif (!(msg.sender.call.value(amountToWithdraw)())) { throw; }\n\t\tuserBalances[msg.sender] = 0;\n\t}    \n}\n",
  "sourcePath": "/home/test/ilf-workspace/proj/contracts/etherbank.sol",
  "compiler": {
    "name": "solc",
    "version": "0.4.25+commit.59dbf8f1.Linux.g++"
  },
  "schemaVersion": "3.0.15",
  "updatedAt": "2024-04-03T23:04:37.020Z",
  "devdoc": {
    "methods": {}
  },
  "userdoc": {
    "methods": {}
  }
}