{
  "contractName": "LuckyDoubler",
  "abi": [
    {
      "inputs": [],
      "payable": false,
      "stateMutability": "nonpayable",
      "type": "constructor"
    },
    {
      "payable": true,
      "stateMutability": "payable",
      "type": "fallback"
    },
    {
      "constant": false,
      "inputs": [
        {
          "name": "newOwner",
          "type": "address"
        }
      ],
      "name": "changeOwner",
      "outputs": [],
      "payable": false,
      "stateMutability": "nonpayable",
      "type": "function"
    },
    {
      "constant": false,
      "inputs": [
        {
          "name": "multi",
          "type": "uint256"
        }
      ],
      "name": "changeMultiplier",
      "outputs": [],
      "payable": false,
      "stateMutability": "nonpayable",
      "type": "function"
    },
    {
      "constant": false,
      "inputs": [
        {
          "name": "newFee",
          "type": "uint256"
        }
      ],
      "name": "changeFee",
      "outputs": [],
      "payable": false,
      "stateMutability": "nonpayable",
      "type": "function"
    },
    {
      "constant": true,
      "inputs": [],
      "name": "multiplierFactor",
      "outputs": [
        {
          "name": "factor",
          "type": "uint256"
        },
        {
          "name": "info",
          "type": "string"
        }
      ],
      "payable": false,
      "stateMutability": "view",
      "type": "function"
    },
    {
      "constant": true,
      "inputs": [],
      "name": "currentFee",
      "outputs": [
        {
          "name": "feePercentage",
          "type": "uint256"
        },
        {
          "name": "info",
          "type": "string"
        }
      ],
      "payable": false,
      "stateMutability": "view",
      "type": "function"
    },
    {
      "constant": true,
      "inputs": [],
      "name": "totalEntries",
      "outputs": [
        {
          "name": "count",
          "type": "uint256"
        },
        {
          "name": "info",
          "type": "string"
        }
      ],
      "payable": false,
      "stateMutability": "view",
      "type": "function"
    },
    {
      "constant": true,
      "inputs": [
        {
          "name": "user",
          "type": "address"
        }
      ],
      "name": "userStats",
      "outputs": [
        {
          "name": "deposits",
          "type": "uint256"
        },
        {
          "name": "payouts",
          "type": "uint256"
        },
        {
          "name": "info",
          "type": "string"
        }
      ],
      "payable": false,
      "stateMutability": "view",
      "type": "function"
    },
    {
      "constant": true,
      "inputs": [
        {
          "name": "index",
          "type": "uint256"
        }
      ],
      "name": "entryDetails",
      "outputs": [
        {
          "name": "user",
          "type": "address"
        },
        {
          "name": "payout",
          "type": "uint256"
        },
        {
          "name": "paid",
          "type": "bool"
        },
        {
          "name": "info",
          "type": "string"
        }
      ],
      "payable": false,
      "stateMutability": "view",
      "type": "function"
    }
  ],
  "bytecode": "0x608060405260006001556005600255607d60035534801561001f57600080fd5b50336000806101000a81548173ffffffffffffffffffffffffffffffffffffffff021916908373ffffffffffffffffffffffffffffffffffffffff1602179055506111c08061006f6000396000f30060806040526004361061008e576000357c0100000000000000000000000000000000000000000000000000000000900463ffffffff16806330677b83146100985780636a1db1bf1461012f5780637fef036e1461015c5780638a65d874146101f3578063a6f9dae1146102bd578063ced9267014610300578063da3c300d1461032d578063f67abd87146103c4575b6100966104af565b005b3480156100a457600080fd5b506100ad610505565b6040518083815260200180602001828103825283818151815260200191508051906020019080838360005b838110156100f35780820151818401526020810190506100d8565b50505050905090810190601f1680156101205780820380516001836020036101000a031916815260200191505b50935050505060405180910390f35b34801561013b57600080fd5b5061015a60048036038101908080359060200190929190505050610597565b005b34801561016857600080fd5b50610171610607565b6040518083815260200180602001828103825283818151815260200191508051906020019080838360005b838110156101b757808201518184015260208101905061019c565b50505050905090810190601f1680156101e45780820380516001836020036101000a031916815260200191505b50935050505060405180910390f35b3480156101ff57600080fd5b50610234600480360381019080803573ffffffffffffffffffffffffffffffffffffffff16906020019092919050505061064f565b6040518084815260200183815260200180602001828103825283818151815260200191508051906020019080838360005b83811015610280578082015181840152602081019050610265565b50505050905090810190601f1680156102ad5780820380516001836020036101000a031916815260200191505b5094505050505060405180910390f35b3480156102c957600080fd5b506102fe600480360381019080803573ffffffffffffffffffffffffffffffffffffffff1690602001909291905050506107dd565b005b34801561030c57600080fd5b5061032b60048036038101908080359060200190929190505050610876565b005b34801561033957600080fd5b506103426108ef565b6040518083815260200180602001828103825283818151815260200191508051906020019080838360005b8381101561038857808201518184015260208101905061036d565b50505050905090810190601f1680156103b55780820380516001836020036101000a031916815260200191505b50935050505060405180910390f35b3480156103d057600080fd5b506103ef60048036038101908080359060200190929190505050610981565b604051808573ffffffffffffffffffffffffffffffffffffffff1673ffffffffffffffffffffffffffffffffffffffff1681526020018481526020018315151515815260200180602001828103825283818151815260200191508051906020019080838360005b83811015610471578082015181840152602081019050610456565b50505050905090810190601f16801561049e5780820380516001836020036101000a031916815260200191505b509550505050505060405180910390f35b670de0b6b3a76400003410156104fa573373ffffffffffffffffffffffffffffffffffffffff166108fc349081150290604051600060405180830381858888f1935050505050610503565b610502610aca565b5b565b600060606003549150608060405190810160405280604381526020017f5468652063757272656e74206d756c7469706c696572206170706c696564207481526020017f6f20616c6c206465706f736974732e204d696e20313130252c206d617820313581526020017f30252e000000000000000000000000000000000000000000000000000000000081525090509091565b6000809054906101000a900473ffffffffffffffffffffffffffffffffffffffff1673ffffffffffffffffffffffffffffffffffffffff163373ffffffffffffffffffffffffffffffffffffffff16141561060457600560025411156105fc57600080fd5b806002819055505b50565b6000606060058054905091506040805190810160405280601781526020017f546865206e756d626572206f66206465706f736974732e00000000000000000081525090509091565b6000806060600073ffffffffffffffffffffffffffffffffffffffff16600460008673ffffffffffffffffffffffffffffffffffffffff1673ffffffffffffffffffffffffffffffffffffffff16815260200190815260200160002060000160009054906101000a900473ffffffffffffffffffffffffffffffffffffffff1673ffffffffffffffffffffffffffffffffffffffff161415156107d657600460008573ffffffffffffffffffffffffffffffffffffffff1673ffffffffffffffffffffffffffffffffffffffff168152602001908152602001600020600101549250600460008573ffffffffffffffffffffffffffffffffffffffff1673ffffffffffffffffffffffffffffffffffffffff168152602001908152602001600020600201549150606060405190810160405280602e81526020017f55736572732073746174733a20746f74616c206465706f736974732c2070617981526020017f6f7574732072656365697665642e00000000000000000000000000000000000081525090505b9193909250565b6000809054906101000a900473ffffffffffffffffffffffffffffffffffffffff1673ffffffffffffffffffffffffffffffffffffffff163373ffffffffffffffffffffffffffffffffffffffff16141561087357806000806101000a81548173ffffffffffffffffffffffffffffffffffffffff021916908373ffffffffffffffffffffffffffffffffffffffff1602179055505b50565b6000809054906101000a900473ffffffffffffffffffffffffffffffffffffffff1673ffffffffffffffffffffffffffffffffffffffff163373ffffffffffffffffffffffffffffffffffffffff1614156108ec57606e8110806108da5750609681115b156108e457600080fd5b806003819055505b50565b600060606002549150608060405190810160405280605481526020017f546865206665652070657263656e74616765206170706c69656420746f20616c81526020017f6c206465706f736974732e2049742063616e206368616e676520746f2073706581526020017f6564207061796f75747320286d6178203525292e00000000000000000000000081525090509091565b60008060006060600580549050851015610ac3576005858154811015156109a457fe5b906000526020600020906004020160000160009054906101000a900473ffffffffffffffffffffffffffffffffffffffff16935066038d7ea4c680006005868154811015156109ef57fe5b906000526020600020906004020160020154811515610a0a57fe5b049250600585815481101515610a1c57fe5b906000526020600020906004020160030160009054906101000a900460ff169150608060405190810160405280604481526020017f456e74727920696e666f3a207573657220616464726573732c2065787065637481526020017f6564207061796f757420696e2046696e6e6579732c207061796f75742073746181526020017f7475732e0000000000000000000000000000000000000000000000000000000081525090505b9193509193565b6000806000806000670de0b6b3a76400009450670de0b6b3a7640000341115610b39573373ffffffffffffffffffffffffffffffffffffffff166108fc670de0b6b3a764000034039081150290604051600060405180830381858888f1935050505050670de0b6b3a764000094505b600073ffffffffffffffffffffffffffffffffffffffff16600460003373ffffffffffffffffffffffffffffffffffffffff1673ffffffffffffffffffffffffffffffffffffffff16815260200190815260200160002060000160009054906101000a900473ffffffffffffffffffffffffffffffffffffffff1673ffffffffffffffffffffffffffffffffffffffff161415610ce25733600460003373ffffffffffffffffffffffffffffffffffffffff1673ffffffffffffffffffffffffffffffffffffffff16815260200190815260200160002060000160006101000a81548173ffffffffffffffffffffffffffffffffffffffff021916908373ffffffffffffffffffffffffffffffffffffffff1602179055506000600460003373ffffffffffffffffffffffffffffffffffffffff1673ffffffffffffffffffffffffffffffffffffffff168152602001908152602001600020600101819055506000600460003373ffffffffffffffffffffffffffffffffffffffff1673ffffffffffffffffffffffffffffffffffffffff168152602001908152602001600020600201819055505b60056080604051908101604052803373ffffffffffffffffffffffffffffffffffffffff16815260200187815260200160646003548902811515610d2257fe5b048152602001600015158152509080600181540180825580915050906001820390600052602060002090600402016000909192909190915060008201518160000160006101000a81548173ffffffffffffffffffffffffffffffffffffffff021916908373ffffffffffffffffffffffffffffffffffffffff160217905550602082015181600101556040820151816002015560608201518160030160006101000a81548160ff021916908315150217905550505050600460003373ffffffffffffffffffffffffffffffffffffffff1673ffffffffffffffffffffffffffffffffffffffff168152602001908152602001600020600101600081548092919060010191905055506006600160058054905003908060018154018082558091505090600182039060005260206000200160009091929091909150555060646002546064038602811515610e7157fe5b04600160008282540192505081905550600160068054905011610e95576000610ea4565b610ea36006805490506110dd565b5b93506005600685815481101515610eb757fe5b9060005260206000200154815481101515610ece57fe5b906000526020600020906004020192508260020154600154111561105757826002015491508260000160009054906101000a900473ffffffffffffffffffffffffffffffffffffffff1673ffffffffffffffffffffffffffffffffffffffff166108fc839081150290604051600060405180830381858888f193505050505060018360030160006101000a81548160ff021916908315150217905550600460008460000160009054906101000a900473ffffffffffffffffffffffffffffffffffffffff1673ffffffffffffffffffffffffffffffffffffffff1673ffffffffffffffffffffffffffffffffffffffff168152602001908152602001600020600201600081548092919060010191905055508160016000828254039250508190555060016006805490500384101561104057600660016006805490500381548110151561101757fe5b906000526020600020015460068581548110151561103157fe5b90600052602060002001819055505b60068054809190600190036110559190611143565b505b6001543073ffffffffffffffffffffffffffffffffffffffff163103905060008111156110d6576000809054906101000a900473ffffffffffffffffffffffffffffffffffffffff1673ffffffffffffffffffffffffffffffffffffffff166108fc829081150290604051600060405180830381858888f19350505050505b5050505050565b6000806000808460647f028f5c28f5c28f5c28f5c28f5c28f5c28f5c28f5c28f5c28f5c28f5c28f5c28f0281151561111157fe5b049250600143039150814060019004905084838281151561112e57fe5b0481151561113857fe5b069350505050919050565b81548183558181111561116a57818360005260206000209182019101611169919061116f565b5b505050565b61119191905b8082111561118d576000816000905550600101611175565b5090565b905600a165627a7a72305820ec3935ecfa537a1bef36ebe623927dcafb2e33a863828e12daca1a68d18df51e0029",
  "source": "/*\n * @article: https://blog.positive.com/predicting-random-numbers-in-ethereum-smart-contracts-e5358c6b8620\n * @source: https://etherscan.io/address/0xF767fCA8e65d03fE16D4e38810f5E5376c3372A8#code\n * @vulnerable_at_lines: 127,128,129,130,132\n * @author: -\n */\n\n //added pragma version\npragma solidity ^0.4.0;\n\n contract LuckyDoubler {\n//##########################################################\n//#### LuckyDoubler: A doubler with random payout order ####\n//#### Deposit 1 ETHER to participate                   ####\n//##########################################################\n//COPYRIGHT 2016 KATATSUKI ALL RIGHTS RESERVED\n//No part of this source code may be reproduced, distributed,\n//modified or transmitted in any form or by any means without\n//the prior written permission of the creator.\n\n    address private owner;\n\n    //Stored variables\n    uint private balance = 0;\n    uint private fee = 5;\n    uint private multiplier = 125;\n\n    mapping (address => User) private users;\n    Entry[] private entries;\n    uint[] private unpaidEntries;\n\n    //Set owner on contract creation\n    function LuckyDoubler() {\n        owner = msg.sender;\n    }\n\n    modifier onlyowner { if (msg.sender == owner) _; }\n\n    struct User {\n        address id;\n        uint deposits;\n        uint payoutsReceived;\n    }\n\n    struct Entry {\n        address entryAddress;\n        uint deposit;\n        uint payout;\n        bool paid;\n    }\n\n    //Fallback function\n    function() payable {\n        init();\n    }\n\n    function init() private{\n\n        if (msg.value < 1 ether) {\n             msg.sender.send(msg.value);\n            return;\n        }\n\n        join();\n    }\n\n    function join() private {\n\n        //Limit deposits to 1ETH\n        uint dValue = 1 ether;\n\n        if (msg.value > 1 ether) {\n\n        \tmsg.sender.send(msg.value - 1 ether);\n        \tdValue = 1 ether;\n        }\n\n        //Add new users to the users array\n        if (users[msg.sender].id == address(0))\n        {\n            users[msg.sender].id = msg.sender;\n            users[msg.sender].deposits = 0;\n            users[msg.sender].payoutsReceived = 0;\n        }\n\n        //Add new entry to the entries array\n        entries.push(Entry(msg.sender, dValue, (dValue * (multiplier) / 100), false));\n        users[msg.sender].deposits++;\n        unpaidEntries.push(entries.length -1);\n\n        //Collect fees and update contract balance\n        balance += (dValue * (100 - fee)) / 100;\n\n        uint index = unpaidEntries.length > 1 ? rand(unpaidEntries.length) : 0;\n        Entry theEntry = entries[unpaidEntries[index]];\n\n        //Pay pending entries if the new balance allows for it\n        if (balance > theEntry.payout) {\n\n            uint payout = theEntry.payout;\n\n            theEntry.entryAddress.send(payout);\n            theEntry.paid = true;\n            users[theEntry.entryAddress].payoutsReceived++;\n\n            balance -= payout;\n\n            if (index < unpaidEntries.length - 1)\n                unpaidEntries[index] = unpaidEntries[unpaidEntries.length - 1];\n\n            unpaidEntries.length--;\n\n        }\n\n        //Collect money from fees and possible leftovers from errors (actual balance untouched)\n        uint fees = this.balance - balance;\n        if (fees > 0)\n        {\n                owner.send(fees);\n        }\n\n    }\n\n    //Generate random number between 0 & max\n    uint256 constant private FACTOR =  1157920892373161954235709850086879078532699846656405640394575840079131296399;\n    // <yes> <report> BAD_RANDOMNESS\n    function rand(uint max) constant private returns (uint256 result){\n        uint256 factor = FACTOR * 100 / max;\n        uint256 lastBlockNumber = block.number - 1;\n        uint256 hashVal = uint256(block.blockhash(lastBlockNumber));\n\n        return uint256((uint256(hashVal) / factor)) % max;\n    }\n\n\n    //Contract management\n    function changeOwner(address newOwner) onlyowner {\n        owner = newOwner;\n    }\n\n    function changeMultiplier(uint multi) onlyowner {\n        if (multi < 110 || multi > 150) throw;\n\n        multiplier = multi;\n    }\n\n    function changeFee(uint newFee) onlyowner {\n        if (fee > 5)\n            throw;\n        fee = newFee;\n    }\n\n\n    //JSON functions\n    function multiplierFactor() constant returns (uint factor, string info) {\n        factor = multiplier;\n        info = 'The current multiplier applied to all deposits. Min 110%, max 150%.';\n    }\n\n    function currentFee() constant returns (uint feePercentage, string info) {\n        feePercentage = fee;\n        info = 'The fee percentage applied to all deposits. It can change to speed payouts (max 5%).';\n    }\n\n    function totalEntries() constant returns (uint count, string info) {\n        count = entries.length;\n        info = 'The number of deposits.';\n    }\n\n    function userStats(address user) constant returns (uint deposits, uint payouts, string info)\n    {\n        if (users[user].id != address(0x0))\n        {\n            deposits = users[user].deposits;\n            payouts = users[user].payoutsReceived;\n            info = 'Users stats: total deposits, payouts received.';\n        }\n    }\n\n    function entryDetails(uint index) constant returns (address user, uint payout, bool paid, string info)\n    {\n        if (index < entries.length) {\n            user = entries[index].entryAddress;\n            payout = entries[index].payout / 1 finney;\n            paid = entries[index].paid;\n            info = 'Entry info: user address, expected payout in Finneys, payout status.';\n        }\n    }\n\n\n}\n",
  "sourcePath": "/home/test/ilf-workspace/proj/contracts/lucky_doubler.sol",
  "compiler": {
    "name": "solc",
    "version": "0.4.25+commit.59dbf8f1.Linux.g++"
  },
  "schemaVersion": "3.0.15",
  "updatedAt": "2024-04-05T13:55:19.345Z",
  "devdoc": {
    "methods": {}
  },
  "userdoc": {
    "methods": {}
  }
}