{
  "contractName": "BlackJack",
  "abi": [
    {
      "constant": true,
      "inputs": [],
      "name": "maxBet",
      "outputs": [
        {
          "name": "",
          "type": "uint256"
        }
      ],
      "payable": false,
      "stateMutability": "view",
      "type": "function"
    },
    {
      "constant": true,
      "inputs": [
        {
          "name": "",
          "type": "address"
        }
      ],
      "name": "games",
      "outputs": [
        {
          "name": "player",
          "type": "address"
        },
        {
          "name": "bet",
          "type": "uint256"
        },
        {
          "name": "state",
          "type": "uint8"
        },
        {
          "name": "cardsDealt",
          "type": "uint8"
        }
      ],
      "payable": false,
      "stateMutability": "view",
      "type": "function"
    },
    {
      "constant": true,
      "inputs": [],
      "name": "minBet",
      "outputs": [
        {
          "name": "",
          "type": "uint256"
        }
      ],
      "payable": false,
      "stateMutability": "view",
      "type": "function"
    },
    {
      "inputs": [],
      "payable": false,
      "stateMutability": "nonpayable",
      "type": "constructor"
    },
    {
      "payable": true,
      "stateMutability": "payable",
      "type": "fallback"
    },
    {
      "anonymous": false,
      "inputs": [
        {
          "indexed": false,
          "name": "isUser",
          "type": "bool"
        },
        {
          "indexed": false,
          "name": "_card",
          "type": "uint8"
        }
      ],
      "name": "Deal",
      "type": "event"
    },
    {
      "anonymous": false,
      "inputs": [
        {
          "indexed": false,
          "name": "houseScore",
          "type": "uint8"
        },
        {
          "indexed": false,
          "name": "houseScoreBig",
          "type": "uint8"
        },
        {
          "indexed": false,
          "name": "playerScore",
          "type": "uint8"
        },
        {
          "indexed": false,
          "name": "playerScoreBig",
          "type": "uint8"
        }
      ],
      "name": "GameStatus",
      "type": "event"
    },
    {
      "anonymous": false,
      "inputs": [
        {
          "indexed": false,
          "name": "value",
          "type": "uint8"
        }
      ],
      "name": "Log",
      "type": "event"
    },
    {
      "constant": false,
      "inputs": [],
      "name": "deal",
      "outputs": [],
      "payable": true,
      "stateMutability": "payable",
      "type": "function"
    },
    {
      "constant": false,
      "inputs": [],
      "name": "hit",
      "outputs": [],
      "payable": false,
      "stateMutability": "nonpayable",
      "type": "function"
    },
    {
      "constant": false,
      "inputs": [],
      "name": "stand",
      "outputs": [],
      "payable": false,
      "stateMutability": "nonpayable",
      "type": "function"
    },
    {
      "constant": true,
      "inputs": [
        {
          "name": "id",
          "type": "uint8"
        }
      ],
      "name": "getPlayerCard",
      "outputs": [
        {
          "name": "",
          "type": "uint8"
        }
      ],
      "payable": false,
      "stateMutability": "view",
      "type": "function"
    },
    {
      "constant": true,
      "inputs": [
        {
          "name": "id",
          "type": "uint8"
        }
      ],
      "name": "getHouseCard",
      "outputs": [
        {
          "name": "",
          "type": "uint8"
        }
      ],
      "payable": false,
      "stateMutability": "view",
      "type": "function"
    },
    {
      "constant": true,
      "inputs": [],
      "name": "getPlayerCardsNumber",
      "outputs": [
        {
          "name": "",
          "type": "uint256"
        }
      ],
      "payable": false,
      "stateMutability": "view",
      "type": "function"
    },
    {
      "constant": true,
      "inputs": [],
      "name": "getHouseCardsNumber",
      "outputs": [
        {
          "name": "",
          "type": "uint256"
        }
      ],
      "payable": false,
      "stateMutability": "view",
      "type": "function"
    },
    {
      "constant": true,
      "inputs": [],
      "name": "getGameState",
      "outputs": [
        {
          "name": "",
          "type": "uint8"
        }
      ],
      "payable": false,
      "stateMutability": "view",
      "type": "function"
    }
  ],
  "bytecode": "0x608060405266b1a2bc2ec50000600055674563918244f400006001556015600260006101000a81548160ff021916908360ff16021790555034801561004357600080fd5b506127f1806100536000396000f3006080604052600436106100af576000357c0100000000000000000000000000000000000000000000000000000000900463ffffffff1680632ae3594a146100b15780632e5b2168146100c8578063553df021146100f357806379131a19146100fd5780637b61b201146101a95780637f601a50146101f35780639619367d1461021e578063b7d0628b14610249578063c2897b101461027a578063d02d138214610291578063d572fd99146102db575b005b3480156100bd57600080fd5b506100c6610306565b005b3480156100d457600080fd5b506100dd61083d565b6040518082815260200191505060405180910390f35b6100fb610843565b005b34801561010957600080fd5b5061013e600480360381019080803573ffffffffffffffffffffffffffffffffffffffff169060200190929190505050610edf565b604051808573ffffffffffffffffffffffffffffffffffffffff1673ffffffffffffffffffffffffffffffffffffffff16815260200184815260200183600381111561018657fe5b60ff1681526020018260ff1660ff16815260200194505050505060405180910390f35b3480156101b557600080fd5b506101d7600480360381019080803560ff169060200190929190505050610f49565b604051808260ff1660ff16815260200191505060405180910390f35b3480156101ff57600080fd5b5061020861111d565b6040518082815260200191505060405180910390f35b34801561022a57600080fd5b50610233611260565b6040518082815260200191505060405180910390f35b34801561025557600080fd5b5061025e611266565b604051808260ff1660ff16815260200191505060405180910390f35b34801561028657600080fd5b5061028f6113e3565b005b34801561029d57600080fd5b506102bf600480360381019080803560ff169060200190929190505050611953565b604051808260ff1660ff16815260200191505060405180910390f35b3480156102e757600080fd5b506102f0611b27565b6040518082815260200191505060405180910390f35b600080600360003373ffffffffffffffffffffffffffffffffffffffff1673ffffffffffffffffffffffffffffffffffffffff16815260200190815260200160002060000160009054906101000a900473ffffffffffffffffffffffffffffffffffffffff1673ffffffffffffffffffffffffffffffffffffffff1614806103f457506000600381111561039657fe5b600360003373ffffffffffffffffffffffffffffffffffffffff1673ffffffffffffffffffffffffffffffffffffffff16815260200190815260200160002060040160009054906101000a900460ff1660038111156103f157fe5b14155b156103fe57600080fd5b600360003373ffffffffffffffffffffffffffffffffffffffff1673ffffffffffffffffffffffffffffffffffffffff16815260200190815260200160002060040160019054906101000a900460ff169050600360003373ffffffffffffffffffffffffffffffffffffffff1673ffffffffffffffffffffffffffffffffffffffff16815260200190815260200160002060030161049c3383611c6a565b908060018154018082558091505090600182039060005260206000209060209182820401919006909192909190916101000a81548160ff021916908360ff1602179055505060018101600360003373ffffffffffffffffffffffffffffffffffffffff1673ffffffffffffffffffffffffffffffffffffffff16815260200190815260200160002060040160016101000a81548160ff021916908360ff1602179055507f5222cd8a0555441761c04237eb750a043ce4f33f10277694b807fe8ec37d01f16001600360003373ffffffffffffffffffffffffffffffffffffffff1673ffffffffffffffffffffffffffffffffffffffff1681526020019081526020016000206003016001600360003373ffffffffffffffffffffffffffffffffffffffff1673ffffffffffffffffffffffffffffffffffffffff16815260200190815260200160002060030180549050038154811015156105f957fe5b90600052602060002090602091828204019190069054906101000a900460ff1660405180831515151581526020018260ff1660ff1681526020019250505060405180910390a161083a600360003373ffffffffffffffffffffffffffffffffffffffff1673ffffffffffffffffffffffffffffffffffffffff16815260200190815260200160002060c060405190810160405290816000820160009054906101000a900473ffffffffffffffffffffffffffffffffffffffff1673ffffffffffffffffffffffffffffffffffffffff1673ffffffffffffffffffffffffffffffffffffffff168152602001600182015481526020016002820180548060200260200160405190810160405280929190818152602001828054801561076257602002820191906000526020600020906000905b82829054906101000a900460ff1660ff168152602001906001019060208260000104928301926001038202915080841161072b5790505b50505050508152602001600382018054806020026020016040519081016040528092919081815260200182805480156107e057602002820191906000526020600020906000905b82829054906101000a900460ff1660ff16815260200190600101906020826000010492830192600103820291508084116107a95790505b505050505081526020016004820160009054906101000a900460ff16600381111561080757fe5b600381111561081257fe5b81526020016004820160019054906101000a900460ff1660ff1660ff16815250506000611d29565b50565b60015481565b6060806000600360003373ffffffffffffffffffffffffffffffffffffffff1673ffffffffffffffffffffffffffffffffffffffff16815260200190815260200160002060000160009054906101000a900473ffffffffffffffffffffffffffffffffffffffff1673ffffffffffffffffffffffffffffffffffffffff16141580156109345750600060038111156108d757fe5b600360003373ffffffffffffffffffffffffffffffffffffffff1673ffffffffffffffffffffffffffffffffffffffff16815260200190815260200160002060040160009054906101000a900460ff16600381111561093257fe5b145b1561093e57600080fd5b60005434108061094f575060015434115b1561095957600080fd5b60016040519080825280602002602001820160405280156109895781602001602082028038833980820191505090505b50915060026040519080825280602002602001820160405280156109bc5781602001602082028038833980820191505090505b5090506109ca336000611c6a565b8160008151811015156109d957fe5b9060200190602002019060ff16908160ff16815250507f5222cd8a0555441761c04237eb750a043ce4f33f10277694b807fe8ec37d01f16001826000815181101515610a2157fe5b9060200190602002015160405180831515151581526020018260ff1660ff1681526020019250505060405180910390a1610a5c336001611c6a565b826000815181101515610a6b57fe5b9060200190602002019060ff16908160ff16815250507f5222cd8a0555441761c04237eb750a043ce4f33f10277694b807fe8ec37d01f16000836000815181101515610ab357fe5b9060200190602002015160405180831515151581526020018260ff1660ff1681526020019250505060405180910390a1610aee336002611c6a565b816001815181101515610afd57fe5b9060200190602002019060ff16908160ff16815250507f5222cd8a0555441761c04237eb750a043ce4f33f10277694b807fe8ec37d01f16001826001815181101515610b4557fe5b9060200190602002015160405180831515151581526020018260ff1660ff1681526020019250505060405180910390a160c0604051908101604052803373ffffffffffffffffffffffffffffffffffffffff16815260200134815260200183815260200182815260200160006003811115610bbc57fe5b8152602001600360ff16815250600360003373ffffffffffffffffffffffffffffffffffffffff1673ffffffffffffffffffffffffffffffffffffffff16815260200190815260200160002060008201518160000160006101000a81548173ffffffffffffffffffffffffffffffffffffffff021916908373ffffffffffffffffffffffffffffffffffffffff160217905550602082015181600101556040820151816002019080519060200190610c759291906126ee565b506060820151816003019080519060200190610c929291906126ee565b5060808201518160040160006101000a81548160ff02191690836003811115610cb757fe5b021790555060a08201518160040160016101000a81548160ff021916908360ff160217905550905050610edb600360003373ffffffffffffffffffffffffffffffffffffffff1673ffffffffffffffffffffffffffffffffffffffff16815260200190815260200160002060c060405190810160405290816000820160009054906101000a900473ffffffffffffffffffffffffffffffffffffffff1673ffffffffffffffffffffffffffffffffffffffff1673ffffffffffffffffffffffffffffffffffffffff1681526020016001820154815260200160028201805480602002602001604051908101604052809291908181526020018280548015610e0357602002820191906000526020600020906000905b82829054906101000a900460ff1660ff1681526020019060010190602082600001049283019260010382029150808411610dcc5790505b5050505050815260200160038201805480602002602001604051908101604052809291908181526020018280548015610e8157602002820191906000526020600020906000905b82829054906101000a900460ff1660ff1681526020019060010190602082600001049283019260010382029150808411610e4a5790505b505050505081526020016004820160009054906101000a900460ff166003811115610ea857fe5b6003811115610eb357fe5b81526020016004820160019054906101000a900460ff1660ff1660ff16815250506000611d29565b5050565b60036020528060005260406000206000915090508060000160009054906101000a900473ffffffffffffffffffffffffffffffffffffffff16908060010154908060040160009054906101000a900460ff16908060040160019054906101000a900460ff16905084565b600080600360003373ffffffffffffffffffffffffffffffffffffffff1673ffffffffffffffffffffffffffffffffffffffff16815260200190815260200160002060000160009054906101000a900473ffffffffffffffffffffffffffffffffffffffff1673ffffffffffffffffffffffffffffffffffffffff161480611037575060006003811115610fd957fe5b600360003373ffffffffffffffffffffffffffffffffffffffff1673ffffffffffffffffffffffffffffffffffffffff16815260200190815260200160002060040160009054906101000a900460ff16600381111561103457fe5b14155b1561104157600080fd5b60008260ff16108061109a5750600360003373ffffffffffffffffffffffffffffffffffffffff1673ffffffffffffffffffffffffffffffffffffffff168152602001908152602001600020600201805490508260ff16115b156110a457600080fd5b600360003373ffffffffffffffffffffffffffffffffffffffff1673ffffffffffffffffffffffffffffffffffffffff1681526020019081526020016000206002018260ff168154811015156110f657fe5b90600052602060002090602091828204019190069054906101000a900460ff169050919050565b600080600360003373ffffffffffffffffffffffffffffffffffffffff1673ffffffffffffffffffffffffffffffffffffffff16815260200190815260200160002060000160009054906101000a900473ffffffffffffffffffffffffffffffffffffffff1673ffffffffffffffffffffffffffffffffffffffff16148061120b5750600060038111156111ad57fe5b600360003373ffffffffffffffffffffffffffffffffffffffff1673ffffffffffffffffffffffffffffffffffffffff16815260200190815260200160002060040160009054906101000a900460ff16600381111561120857fe5b14155b1561121557600080fd5b600360003373ffffffffffffffffffffffffffffffffffffffff1673ffffffffffffffffffffffffffffffffffffffff16815260200190815260200160002060020180549050905090565b60005481565b6000806000600360003373ffffffffffffffffffffffffffffffffffffffff1673ffffffffffffffffffffffffffffffffffffffff16815260200190815260200160002060000160009054906101000a900473ffffffffffffffffffffffffffffffffffffffff1673ffffffffffffffffffffffffffffffffffffffff1614156112ef57600080fd5b600360003373ffffffffffffffffffffffffffffffffffffffff1673ffffffffffffffffffffffffffffffffffffffff16815260200190815260200160002090506001600381111561133d57fe5b8160040160009054906101000a900460ff16600381111561135a57fe5b141561136957600191506113df565b60038081111561137557fe5b8160040160009054906101000a900460ff16600381111561139257fe5b14156113a157600291506113df565b600260038111156113ae57fe5b8160040160009054906101000a900460ff1660038111156113cb57fe5b14156113da57600391506113df565b600091505b5090565b6000806000806000600360003373ffffffffffffffffffffffffffffffffffffffff1673ffffffffffffffffffffffffffffffffffffffff16815260200190815260200160002060000160009054906101000a900473ffffffffffffffffffffffffffffffffffffffff1673ffffffffffffffffffffffffffffffffffffffff1614806114d657506000600381111561147857fe5b600360003373ffffffffffffffffffffffffffffffffffffffff1673ffffffffffffffffffffffffffffffffffffffff16815260200190815260200160002060040160009054906101000a900460ff1660038111156114d357fe5b14155b156114e057600080fd5b61159f600360003373ffffffffffffffffffffffffffffffffffffffff1673ffffffffffffffffffffffffffffffffffffffff16815260200190815260200160002060020180548060200260200160405190810160405280929190818152602001828054801561159557602002820191906000526020600020906000905b82829054906101000a900460ff1660ff168152602001906001019060208260000104928301926001038202915080841161155e5790505b5050505050612599565b935093505b60118360ff16101561175257600360003373ffffffffffffffffffffffffffffffffffffffff1673ffffffffffffffffffffffffffffffffffffffff16815260200190815260200160002060040160019054906101000a900460ff16915061160c3383611c6a565b9050600360003373ffffffffffffffffffffffffffffffffffffffff1673ffffffffffffffffffffffffffffffffffffffff16815260200190815260200160002060020181908060018154018082558091505090600182039060005260206000209060209182820401919006909192909190916101000a81548160ff021916908360ff1602179055505060018201600360003373ffffffffffffffffffffffffffffffffffffffff1673ffffffffffffffffffffffffffffffffffffffff16815260200190815260200160002060040160016101000a81548160ff021916908360ff1602179055506116ff816001612641565b830192507f5222cd8a0555441761c04237eb750a043ce4f33f10277694b807fe8ec37d01f160008260405180831515151581526020018260ff1660ff1681526020019250505060405180910390a16115a4565b61194d600360003373ffffffffffffffffffffffffffffffffffffffff1673ffffffffffffffffffffffffffffffffffffffff16815260200190815260200160002060c060405190810160405290816000820160009054906101000a900473ffffffffffffffffffffffffffffffffffffffff1673ffffffffffffffffffffffffffffffffffffffff1673ffffffffffffffffffffffffffffffffffffffff168152602001600182015481526020016002820180548060200260200160405190810160405280929190818152602001828054801561187557602002820191906000526020600020906000905b82829054906101000a900460ff1660ff168152602001906001019060208260000104928301926001038202915080841161183e5790505b50505050508152602001600382018054806020026020016040519081016040528092919081815260200182805480156118f357602002820191906000526020600020906000905b82829054906101000a900460ff1660ff16815260200190600101906020826000010492830192600103820291508084116118bc5790505b505050505081526020016004820160009054906101000a900460ff16600381111561191a57fe5b600381111561192557fe5b81526020016004820160019054906101000a900460ff1660ff1660ff16815250506001611d29565b50505050565b600080600360003373ffffffffffffffffffffffffffffffffffffffff1673ffffffffffffffffffffffffffffffffffffffff16815260200190815260200160002060000160009054906101000a900473ffffffffffffffffffffffffffffffffffffffff1673ffffffffffffffffffffffffffffffffffffffff161480611a415750600060038111156119e357fe5b600360003373ffffffffffffffffffffffffffffffffffffffff1673ffffffffffffffffffffffffffffffffffffffff16815260200190815260200160002060040160009054906101000a900460ff166003811115611a3e57fe5b14155b15611a4b57600080fd5b60008260ff161080611aa45750600360003373ffffffffffffffffffffffffffffffffffffffff1673ffffffffffffffffffffffffffffffffffffffff168152602001908152602001600020600301805490508260ff16115b15611aae57600080fd5b600360003373ffffffffffffffffffffffffffffffffffffffff1673ffffffffffffffffffffffffffffffffffffffff1681526020019081526020016000206003018260ff16815481101515611b0057fe5b90600052602060002090602091828204019190069054906101000a900460ff169050919050565b600080600360003373ffffffffffffffffffffffffffffffffffffffff1673ffffffffffffffffffffffffffffffffffffffff16815260200190815260200160002060000160009054906101000a900473ffffffffffffffffffffffffffffffffffffffff1673ffffffffffffffffffffffffffffffffffffffff161480611c15575060006003811115611bb757fe5b600360003373ffffffffffffffffffffffffffffffffffffffff1673ffffffffffffffffffffffffffffffffffffffff16815260200190815260200160002060040160009054906101000a900460ff166003811115611c1257fe5b14155b15611c1f57600080fd5b600360003373ffffffffffffffffffffffffffffffffffffffff1673ffffffffffffffffffffffffffffffffffffffff16815260200190815260200160002060030180549050905090565b6000806000439150429050603482408686846040518085600019166000191681526020018473ffffffffffffffffffffffffffffffffffffffff1673ffffffffffffffffffffffffffffffffffffffff166c010000000000000000000000000281526014018360ff1660ff167f0100000000000000000000000000000000000000000000000000000000000000028152600101828152602001945050505050604051809103902060019004811515611d1e57fe5b069250505092915050565b600080600080600080611d3f8860400151612599565b95509550611d508860600151612599565b935093507fa8b0312c98393668fa9cc84b9596a6a258d7c01b8c6c36931a4776b0f610ee0b86868686604051808560ff1660ff1681526020018460ff1660ff1681526020018360ff1660ff1681526020018260ff1660ff16815260200194505050505060405180910390a1600260009054906101000a900460ff1660ff168560ff161480611df25750600260009054906101000a900460ff1660ff168660ff16145b15611f4857600260009054906101000a900460ff1660ff168460ff161480611e2e5750600260009054906101000a900460ff1660ff168360ff16145b15611ee0573373ffffffffffffffffffffffffffffffffffffffff166108fc89602001519081150290604051600060405180830381858888f193505050501515611e7757600080fd5b6002600360003373ffffffffffffffffffffffffffffffffffffffff1673ffffffffffffffffffffffffffffffffffffffff16815260200190815260200160002060040160006101000a81548160ff02191690836003811115611ed657fe5b021790555061258f565b60038060003373ffffffffffffffffffffffffffffffffffffffff1673ffffffffffffffffffffffffffffffffffffffff16815260200190815260200160002060040160006101000a81548160ff02191690836003811115611f3e57fe5b021790555061258f565b600260009054906101000a900460ff1660ff168460ff161480611f7f5750600260009054906101000a900460ff1660ff168360ff16145b156120f4576002886060015151148015611fe65750611fb988606001516000815181101515611faa57fe5b906020019060200201516126b0565b80611fe55750611fe488606001516001815181101515611fd557fe5b906020019060200201516126b0565b5b5b15612043573373ffffffffffffffffffffffffffffffffffffffff166108fc600260058b602001510281151561201857fe5b049081150290604051600060405180830381858888f19350505050151561203e57600080fd5b61208b565b3373ffffffffffffffffffffffffffffffffffffffff166108fc60028a60200151029081150290604051600060405180830381858888f19350505050151561208a57600080fd5b5b6001600360003373ffffffffffffffffffffffffffffffffffffffff1673ffffffffffffffffffffffffffffffffffffffff16815260200190815260200160002060040160006101000a81548160ff021916908360038111156120ea57fe5b021790555061258f565b600260009054906101000a900460ff1660ff168460ff1611156121b4577fac0db69d4d0cab623c90654fc37dc538d2855e4d313b044f0446b487c34777a66001604051808260ff16815260200191505060405180910390a160038060003373ffffffffffffffffffffffffffffffffffffffff1673ffffffffffffffffffffffffffffffffffffffff16815260200190815260200160002060040160006101000a81548160ff021916908360038111156121aa57fe5b021790555061258f565b8615156121c05761258f565b6000915060009050600260009054906101000a900460ff1660ff168360ff16111561228357600260009054906101000a900460ff1660ff168460ff16111561226a5760038060003373ffffffffffffffffffffffffffffffffffffffff1673ffffffffffffffffffffffffffffffffffffffff16815260200190815260200160002060040160006101000a81548160ff0219169083600381111561226057fe5b021790555061258f565b83600260009054906101000a900460ff16039150612298565b82600260009054906101000a900460ff160391505b600260009054906101000a900460ff1660ff168560ff16111561239b57600260009054906101000a900460ff1660ff168660ff161115612382573373ffffffffffffffffffffffffffffffffffffffff166108fc60028a60200151029081150290604051600060405180830381858888f19350505050151561231957600080fd5b6001600360003373ffffffffffffffffffffffffffffffffffffffff1673ffffffffffffffffffffffffffffffffffffffff16815260200190815260200160002060040160006101000a81548160ff0219169083600381111561237857fe5b021790555061258f565b85600260009054906101000a900460ff160390506123b0565b84600260009054906101000a900460ff160390505b8160ff168160ff16141561246b573373ffffffffffffffffffffffffffffffffffffffff166108fc89602001519081150290604051600060405180830381858888f19350505050151561240257600080fd5b6002600360003373ffffffffffffffffffffffffffffffffffffffff1673ffffffffffffffffffffffffffffffffffffffff16815260200190815260200160002060040160006101000a81548160ff0219169083600381111561246157fe5b021790555061258e565b8160ff168160ff161115612529573373ffffffffffffffffffffffffffffffffffffffff166108fc60028a60200151029081150290604051600060405180830381858888f1935050505015156124c057600080fd5b6001600360003373ffffffffffffffffffffffffffffffffffffffff1673ffffffffffffffffffffffffffffffffffffffff16815260200190815260200160002060040160006101000a81548160ff0219169083600381111561251f57fe5b021790555061258d565b60038060003373ffffffffffffffffffffffffffffffffffffffff1673ffffffffffffffffffffffffffffffffffffffff16815260200190815260200160002060040160006101000a81548160ff0219169083600381111561258757fe5b02179055505b5b5b5050505050505050565b60008060008060008060008094506000935060009250600091505b87518210156126315787828151811015156125cb57fe5b9060200190602002015190506125e0816126cf565b80156125ea575082155b15612607576125fa816001612641565b8401935060019250612617565b612612816000612641565b840193505b612622816000612641565b850194508160010191506125b4565b8484965096505050505050915091565b60008060048460ff1681151561265357fe5b04905060008160ff16148061266b5750600b8160ff16145b806126795750600c8160ff16145b1561268757600a91506126a9565b60018160ff161480156126975750825b156126a557600b91506126a9565b8091505b5092915050565b6000600a60048360ff168115156126c357fe5b0460ff16149050919050565b6000600160048360ff168115156126e257fe5b0460ff16149050919050565b82805482825590600052602060002090601f016020900481019282156127845791602002820160005b8382111561275557835183826101000a81548160ff021916908360ff1602179055509260200192600101602081600001049283019260010302612717565b80156127825782816101000a81549060ff0219169055600101602081600001049283019260010302612755565b505b5090506127919190612795565b5090565b6127c291905b808211156127be57600081816101000a81549060ff02191690555060010161279b565b5090565b905600a165627a7a7230582089ce6b329bbc98cea4f7dd4e35792db485a14650bb9603e5b0bbdfa0017a73e30029",
  "source": "/*\n * @article: https://blog.positive.com/predicting-random-numbers-in-ethereum-smart-contracts-e5358c6b8620\n * @source: https://etherscan.io/address/0xa65d59708838581520511d98fb8b5d1f76a96cad#code\n * @vulnerable_at_lines: 17,19,21\n * @author: -\n */\n\n pragma solidity ^0.4.2;\n\nlibrary Deck {\n\t// returns random number from 0 to 51\n\t// let's say 'value' % 4 means suit (0 - Hearts, 1 - Spades, 2 - Diamonds, 3 - Clubs)\n\t//\t\t\t 'value' / 4 means: 0 - King, 1 - Ace, 2 - 10 - pip values, 11 - Jacket, 12 - Queen\n\n\tfunction deal(address player, uint8 cardNumber) internal returns (uint8) {\n\t\t// <yes> <report> BAD_RANDOMNESS\n\t\tuint b = block.number;\n\t\t// <yes> <report> BAD_RANDOMNESS\n\t\tuint timestamp = block.timestamp;\n\t\t// <yes> <report> BAD_RANDOMNESS\n\t\treturn uint8(uint256(keccak256(block.blockhash(b), player, cardNumber, timestamp)) % 52);\n\t}\n\n\tfunction valueOf(uint8 card, bool isBigAce) internal constant returns (uint8) {\n\t\tuint8 value = card / 4;\n\t\tif (value == 0 || value == 11 || value == 12) { // Face cards\n\t\t\treturn 10;\n\t\t}\n\t\tif (value == 1 && isBigAce) { // Ace is worth 11\n\t\t\treturn 11;\n\t\t}\n\t\treturn value;\n\t}\n\n\tfunction isAce(uint8 card) internal constant returns (bool) {\n\t\treturn card / 4 == 1;\n\t}\n\n\tfunction isTen(uint8 card) internal constant returns (bool) {\n\t\treturn card / 4 == 10;\n\t}\n}\n\n\ncontract BlackJack {\n\tusing Deck for *;\n\n\tuint public minBet = 50 finney; // 0.05 eth\n\tuint public maxBet = 5 ether;\n\n\tuint8 BLACKJACK = 21;\n\n  enum GameState { Ongoing, Player, Tie, House }\n\n\tstruct Game {\n\t\taddress player; // address \n\t\tuint bet; // \n\n\t\tuint8[] houseCards; //  \n\t\tuint8[] playerCards; //  \n\n\t\tGameState state; // \n\t\tuint8 cardsDealt;\n\t}\n\n\tmapping (address => Game) public games;\n\n\tmodifier gameIsGoingOn() {\n\t\tif (games[msg.sender].player == 0 || games[msg.sender].state != GameState.Ongoing) {\n\t\t\tthrow; // game doesn't exist or already finished\n\t\t}\n\t\t_;\n\t}\n\n\tevent Deal(\n        bool isUser,\n        uint8 _card\n    );\n\n    event GameStatus(\n    \tuint8 houseScore,\n    \tuint8 houseScoreBig,\n    \tuint8 playerScore,\n    \tuint8 playerScoreBig\n    );\n\n    event Log(\n    \tuint8 value\n    );\n\n\tfunction BlackJack() {\n\n\t}\n\n\tfunction () payable {\n\n\t}\n\n\t// starts a new game\n\tfunction deal() public payable {\n\t\tif (games[msg.sender].player != 0 && games[msg.sender].state == GameState.Ongoing) {\n\t\t\tthrow; // game is already going on\n\t\t}\n\n\t\tif (msg.value < minBet || msg.value > maxBet) {\n\t\t\tthrow; // incorrect bet\n\t\t}\n\n\t\tuint8[] memory houseCards = new uint8[](1);\n\t\tuint8[] memory playerCards = new uint8[](2);\n\n\t\t// deal the cards\n\t\tplayerCards[0] = Deck.deal(msg.sender, 0);\n\t\tDeal(true, playerCards[0]);\n\t\thouseCards[0] = Deck.deal(msg.sender, 1);\n\t\tDeal(false, houseCards[0]);\n\t\tplayerCards[1] = Deck.deal(msg.sender, 2);\n\t\tDeal(true, playerCards[1]);\n\n\t\tgames[msg.sender] = Game({\n\t\t\tplayer: msg.sender,\n\t\t\tbet: msg.value,\n\t\t\thouseCards: houseCards,\n\t\t\tplayerCards: playerCards,\n\t\t\tstate: GameState.Ongoing,\n\t\t\tcardsDealt: 3\n\t\t});\n\n\t\tcheckGameResult(games[msg.sender], false);\n\t}\n\n\t// deals one more card to the player\n\tfunction hit() public gameIsGoingOn {\n\t\tuint8 nextCard = games[msg.sender].cardsDealt;\n\t\tgames[msg.sender].playerCards.push(Deck.deal(msg.sender, nextCard));\n\t\tgames[msg.sender].cardsDealt = nextCard + 1;\n\t\tDeal(true, games[msg.sender].playerCards[games[msg.sender].playerCards.length - 1]);\n\t\tcheckGameResult(games[msg.sender], false);\n\t}\n\n\t// finishes the game\n\tfunction stand() public gameIsGoingOn {\n\n\t\tvar (houseScore, houseScoreBig) = calculateScore(games[msg.sender].houseCards);\n\n\t\twhile (houseScoreBig < 17) {\n\t\t\tuint8 nextCard = games[msg.sender].cardsDealt;\n\t\t\tuint8 newCard = Deck.deal(msg.sender, nextCard);\n\t\t\tgames[msg.sender].houseCards.push(newCard);\n\t\t\tgames[msg.sender].cardsDealt = nextCard + 1;\n\t\t\thouseScoreBig += Deck.valueOf(newCard, true);\n\t\t\tDeal(false, newCard);\n\t\t}\n\n\t\tcheckGameResult(games[msg.sender], true);\n\t}\n\n\t// @param finishGame - whether to finish the game or not (in case of Blackjack the game finishes anyway)\n\tfunction checkGameResult(Game game, bool finishGame) private {\n\t\t// calculate house score\n\t\tvar (houseScore, houseScoreBig) = calculateScore(game.houseCards);\n\t\t// calculate player score\n\t\tvar (playerScore, playerScoreBig) = calculateScore(game.playerCards);\n\n\t\tGameStatus(houseScore, houseScoreBig, playerScore, playerScoreBig);\n\n\t\tif (houseScoreBig == BLACKJACK || houseScore == BLACKJACK) {\n\t\t\tif (playerScore == BLACKJACK || playerScoreBig == BLACKJACK) {\n\t\t\t\t// TIE\n\t\t\t\tif (!msg.sender.send(game.bet)) throw; // return bet to the player\n\t\t\t\tgames[msg.sender].state = GameState.Tie; // finish the game\n\t\t\t\treturn;\n\t\t\t} else {\n\t\t\t\t// HOUSE WON\n\t\t\t\tgames[msg.sender].state = GameState.House; // simply finish the game\n\t\t\t\treturn;\n\t\t\t}\n\t\t} else {\n\t\t\tif (playerScore == BLACKJACK || playerScoreBig == BLACKJACK) {\n\t\t\t\t// PLAYER WON\n\t\t\t\tif (game.playerCards.length == 2 && (Deck.isTen(game.playerCards[0]) || Deck.isTen(game.playerCards[1]))) {\n\t\t\t\t\t// Natural blackjack => return x2.5\n\t\t\t\t\tif (!msg.sender.send((game.bet * 5) / 2)) throw; // send prize to the player\n\t\t\t\t} else {\n\t\t\t\t\t// Usual blackjack => return x2\n\t\t\t\t\tif (!msg.sender.send(game.bet * 2)) throw; // send prize to the player\n\t\t\t\t}\n\t\t\t\tgames[msg.sender].state = GameState.Player; // finish the game\n\t\t\t\treturn;\n\t\t\t} else {\n\n\t\t\t\tif (playerScore > BLACKJACK) {\n\t\t\t\t\t// BUST, HOUSE WON\n\t\t\t\t\tLog(1);\n\t\t\t\t\tgames[msg.sender].state = GameState.House; // finish the game\n\t\t\t\t\treturn;\n\t\t\t\t}\n\n\t\t\t\tif (!finishGame) {\n\t\t\t\t\treturn; // continue the game\n\t\t\t\t}\n\n                // \n\t\t\t\tuint8 playerShortage = 0;\n\t\t\t\tuint8 houseShortage = 0;\n\n\t\t\t\t// player decided to finish the game\n\t\t\t\tif (playerScoreBig > BLACKJACK) {\n\t\t\t\t\tif (playerScore > BLACKJACK) {\n\t\t\t\t\t\t// HOUSE WON\n\t\t\t\t\t\tgames[msg.sender].state = GameState.House; // simply finish the game\n\t\t\t\t\t\treturn;\n\t\t\t\t\t} else {\n\t\t\t\t\t\tplayerShortage = BLACKJACK - playerScore;\n\t\t\t\t\t}\n\t\t\t\t} else {\n\t\t\t\t\tplayerShortage = BLACKJACK - playerScoreBig;\n\t\t\t\t}\n\n\t\t\t\tif (houseScoreBig > BLACKJACK) {\n\t\t\t\t\tif (houseScore > BLACKJACK) {\n\t\t\t\t\t\t// PLAYER WON\n\t\t\t\t\t\tif (!msg.sender.send(game.bet * 2)) throw; // send prize to the player\n\t\t\t\t\t\tgames[msg.sender].state = GameState.Player;\n\t\t\t\t\t\treturn;\n\t\t\t\t\t} else {\n\t\t\t\t\t\thouseShortage = BLACKJACK - houseScore;\n\t\t\t\t\t}\n\t\t\t\t} else {\n\t\t\t\t\thouseShortage = BLACKJACK - houseScoreBig;\n\t\t\t\t}\n\n                // ??????????????????????   ?\n\t\t\t\tif (houseShortage == playerShortage) {\n\t\t\t\t\t// TIE\n\t\t\t\t\tif (!msg.sender.send(game.bet)) throw; // return bet to the player\n\t\t\t\t\tgames[msg.sender].state = GameState.Tie;\n\t\t\t\t} else if (houseShortage > playerShortage) {\n\t\t\t\t\t// PLAYER WON\n\t\t\t\t\tif (!msg.sender.send(game.bet * 2)) throw; // send prize to the player\n\t\t\t\t\tgames[msg.sender].state = GameState.Player;\n\t\t\t\t} else {\n\t\t\t\t\tgames[msg.sender].state = GameState.House;\n\t\t\t\t}\n\t\t\t}\n\t\t}\n\t}\n\n\tfunction calculateScore(uint8[] cards) private constant returns (uint8, uint8) {\n\t\tuint8 score = 0;\n\t\tuint8 scoreBig = 0; // in case of Ace there could be 2 different scores\n\t\tbool bigAceUsed = false;\n\t\tfor (uint i = 0; i < cards.length; ++i) {\n\t\t\tuint8 card = cards[i];\n\t\t\tif (Deck.isAce(card) && !bigAceUsed) { // doesn't make sense to use the second Ace as 11, because it leads to the losing\n\t\t\t\tscoreBig += Deck.valueOf(card, true);\n\t\t\t\tbigAceUsed = true;\n\t\t\t} else {\n\t\t\t\tscoreBig += Deck.valueOf(card, false);\n\t\t\t}\n\t\t\tscore += Deck.valueOf(card, false);\n\t\t}\n\t\treturn (score, scoreBig);\n\t}\n\n\tfunction getPlayerCard(uint8 id) public gameIsGoingOn constant returns(uint8) {\n\t\tif (id < 0 || id > games[msg.sender].playerCards.length) {\n\t\t\tthrow;\n\t\t}\n\t\treturn games[msg.sender].playerCards[id];\n\t}\n\n\tfunction getHouseCard(uint8 id) public gameIsGoingOn constant returns(uint8) {\n\t\tif (id < 0 || id > games[msg.sender].houseCards.length) {\n\t\t\tthrow;\n\t\t}\n\t\treturn games[msg.sender].houseCards[id];\n\t}\n\n\tfunction getPlayerCardsNumber() public gameIsGoingOn constant returns(uint) {\n\t\treturn games[msg.sender].playerCards.length;\n\t}\n\n\tfunction getHouseCardsNumber() public gameIsGoingOn constant returns(uint) {\n\t\treturn games[msg.sender].houseCards.length;\n\t}\n\n\tfunction getGameState() public constant returns (uint8) {\n\t\tif (games[msg.sender].player == 0) {\n\t\t\tthrow; // game doesn't exist\n\t\t}\n\n\t\tGame game = games[msg.sender];\n\n\t\tif (game.state == GameState.Player) {\n\t\t\treturn 1;\n\t\t}\n\t\tif (game.state == GameState.House) {\n\t\t\treturn 2;\n\t\t}\n\t\tif (game.state == GameState.Tie) {\n\t\t\treturn 3;\n\t\t}\n\n\t\treturn 0; // the game is still going on\n\t}\n\n}\n",
  "sourcePath": "/home/test/ilf-workspace/proj/contracts/blackjack.sol",
  "compiler": {
    "name": "solc",
    "version": "0.4.25+commit.59dbf8f1.Linux.g++"
  },
  "schemaVersion": "3.0.15",
  "updatedAt": "2024-04-04T08:46:53.300Z",
  "devdoc": {
    "methods": {}
  },
  "userdoc": {
    "methods": {}
  }
}