{
  "contractName": "Ethraffle_v4b",
  "abi": [
    {
      "constant": true,
      "inputs": [],
      "name": "blockNumber",
      "outputs": [
        {
          "name": "",
          "type": "uint256"
        }
      ],
      "payable": false,
      "stateMutability": "view",
      "type": "function"
    },
    {
      "constant": true,
      "inputs": [],
      "name": "paused",
      "outputs": [
        {
          "name": "",
          "type": "bool"
        }
      ],
      "payable": false,
      "stateMutability": "view",
      "type": "function"
    },
    {
      "constant": true,
      "inputs": [],
      "name": "raffleId",
      "outputs": [
        {
          "name": "",
          "type": "uint256"
        }
      ],
      "payable": false,
      "stateMutability": "view",
      "type": "function"
    },
    {
      "constant": true,
      "inputs": [],
      "name": "totalTickets",
      "outputs": [
        {
          "name": "",
          "type": "uint256"
        }
      ],
      "payable": false,
      "stateMutability": "view",
      "type": "function"
    },
    {
      "constant": true,
      "inputs": [],
      "name": "fee",
      "outputs": [
        {
          "name": "",
          "type": "uint256"
        }
      ],
      "payable": false,
      "stateMutability": "view",
      "type": "function"
    },
    {
      "constant": true,
      "inputs": [],
      "name": "prize",
      "outputs": [
        {
          "name": "",
          "type": "uint256"
        }
      ],
      "payable": false,
      "stateMutability": "view",
      "type": "function"
    },
    {
      "constant": true,
      "inputs": [],
      "name": "pricePerTicket",
      "outputs": [
        {
          "name": "",
          "type": "uint256"
        }
      ],
      "payable": false,
      "stateMutability": "view",
      "type": "function"
    },
    {
      "inputs": [],
      "payable": false,
      "stateMutability": "nonpayable",
      "type": "constructor"
    },
    {
      "payable": true,
      "stateMutability": "payable",
      "type": "fallback"
    },
    {
      "anonymous": false,
      "inputs": [
        {
          "indexed": false,
          "name": "raffleId",
          "type": "uint256"
        },
        {
          "indexed": false,
          "name": "winningNumber",
          "type": "uint256"
        },
        {
          "indexed": false,
          "name": "winningAddress",
          "type": "address"
        },
        {
          "indexed": false,
          "name": "seed1",
          "type": "address"
        },
        {
          "indexed": false,
          "name": "seed2",
          "type": "address"
        },
        {
          "indexed": false,
          "name": "seed3",
          "type": "uint256"
        },
        {
          "indexed": false,
          "name": "randHash",
          "type": "bytes32"
        }
      ],
      "name": "RaffleResult",
      "type": "event"
    },
    {
      "anonymous": false,
      "inputs": [
        {
          "indexed": false,
          "name": "raffleId",
          "type": "uint256"
        },
        {
          "indexed": false,
          "name": "contestant",
          "type": "address"
        },
        {
          "indexed": false,
          "name": "number",
          "type": "uint256"
        }
      ],
      "name": "TicketPurchase",
      "type": "event"
    },
    {
      "anonymous": false,
      "inputs": [
        {
          "indexed": false,
          "name": "raffleId",
          "type": "uint256"
        },
        {
          "indexed": false,
          "name": "contestant",
          "type": "address"
        },
        {
          "indexed": false,
          "name": "number",
          "type": "uint256"
        }
      ],
      "name": "TicketRefund",
      "type": "event"
    },
    {
      "constant": false,
      "inputs": [],
      "name": "buyTickets",
      "outputs": [],
      "payable": true,
      "stateMutability": "payable",
      "type": "function"
    },
    {
      "constant": false,
      "inputs": [],
      "name": "getRefund",
      "outputs": [],
      "payable": false,
      "stateMutability": "nonpayable",
      "type": "function"
    },
    {
      "constant": false,
      "inputs": [],
      "name": "endRaffle",
      "outputs": [],
      "payable": false,
      "stateMutability": "nonpayable",
      "type": "function"
    },
    {
      "constant": false,
      "inputs": [],
      "name": "togglePause",
      "outputs": [],
      "payable": false,
      "stateMutability": "nonpayable",
      "type": "function"
    },
    {
      "constant": false,
      "inputs": [],
      "name": "kill",
      "outputs": [],
      "payable": false,
      "stateMutability": "nonpayable",
      "type": "function"
    }
  ],
  "bytecode": "0x608060405260008060146101000a81548160ff0219169083151502179055506001805543600255600060035534801561003757600080fd5b50336000806101000a81548173ffffffffffffffffffffffffffffffffffffffff021916908373ffffffffffffffffffffffffffffffffffffffff160217905550610fe6806100876000396000f3006080604052600436106100ba576000357c0100000000000000000000000000000000000000000000000000000000900463ffffffff16806341c0e1b5146100c457806357e871e7146100db5780635c975abb14610106578063b2d5ae4414610135578063b375603c1461014c578063c4ae316814610177578063c81998261461018e578063dd11247e14610198578063ddca3f43146101c3578063e3ac5d26146101ee578063e987410614610219578063ee095c0e14610244575b6100c261025b565b005b3480156100d057600080fd5b506100d96104f6565b005b3480156100e757600080fd5b506100f0610587565b6040518082815260200191505060405180910390f35b34801561011257600080fd5b5061011b61058d565b604051808215151515815260200191505060405180910390f35b34801561014157600080fd5b5061014a6105a0565b005b34801561015857600080fd5b506101616107fc565b6040518082815260200191505060405180910390f35b34801561018357600080fd5b5061018c610802565b005b61019661025b565b005b3480156101a457600080fd5b506101ad610884565b6040518082815260200191505060405180910390f35b3480156101cf57600080fd5b506101d8610889565b6040518082815260200191505060405180910390f35b3480156101fa57600080fd5b50610203610894565b6040518082815260200191505060405180910390f35b34801561022557600080fd5b5061022e6108a0565b6040518082815260200191505060405180910390f35b34801561025057600080fd5b506102596108c1565b005b600080600060149054906101000a900460ff16156102bf573373ffffffffffffffffffffffffffffffffffffffff166108fc349081150290604051600060405180830381858888f193505050501580156102b9573d6000803e3d6000fd5b506104f2565b3491505b6032666a94d74f4300006722b1c8c1227a0000018115156102e057fe5b0482101580156102f257506032600354105b1561048c57600090506000600580549050111561034857600560016005805490500381548110151561032057fe5b9060005260206000200154905060058054809190600190036103429190610f69565b5061035c565b600360008154809291906001019190505590505b60408051908101604052803373ffffffffffffffffffffffffffffffffffffffff1681526020016001548152506004600083815260200190815260200160002060008201518160000160006101000a81548173ffffffffffffffffffffffffffffffffffffffff021916908373ffffffffffffffffffffffffffffffffffffffff160217905550602082015181600101559050507f24c553806a0c0d72a519acfdd0ddf0a5f14a54389e411baf3055eded1126f1e66001543383604051808481526020018373ffffffffffffffffffffffffffffffffffffffff1673ffffffffffffffffffffffffffffffffffffffff168152602001828152602001935050505060405180910390a16032666a94d74f4300006722b1c8c1227a00000181151561048257fe5b04820391506102c3565b603260035414156104a05761049f610be1565b5b60008211156104f1573373ffffffffffffffffffffffffffffffffffffffff166108fc839081150290604051600060405180830381858888f193505050501580156104ef573d6000803e3d6000fd5b505b5b5050565b6000809054906101000a900473ffffffffffffffffffffffffffffffffffffffff1673ffffffffffffffffffffffffffffffffffffffff163373ffffffffffffffffffffffffffffffffffffffff161415610585576000809054906101000a900473ffffffffffffffffffffffffffffffffffffffff1673ffffffffffffffffffffffffffffffffffffffff16ff5b565b60025481565b600060149054906101000a900460ff1681565b60008060009150600090505b60328110156107a7576004600082815260200190815260200160002060000160009054906101000a900473ffffffffffffffffffffffffffffffffffffffff1673ffffffffffffffffffffffffffffffffffffffff163373ffffffffffffffffffffffffffffffffffffffff1614801561063d57506004600082815260200190815260200160002060010154600154145b1561079a576032666a94d74f4300006722b1c8c1227a00000181151561065f57fe5b04820191506040805190810160405280600073ffffffffffffffffffffffffffffffffffffffff16815260200160008152506004600083815260200190815260200160002060008201518160000160006101000a81548173ffffffffffffffffffffffffffffffffffffffff021916908373ffffffffffffffffffffffffffffffffffffffff1602179055506020820151816001015590505060058190806001815401808255809150509060018203906000526020600020016000909192909190915055507fb56b591803cc7bbb211b8af54a52c3a403e25fb272b9b853e59f42cef9e41d986001543383604051808481526020018373ffffffffffffffffffffffffffffffffffffffff1673ffffffffffffffffffffffffffffffffffffffff168152602001828152602001935050505060405180910390a15b80806001019150506105ac565b60008211156107f8573373ffffffffffffffffffffffffffffffffffffffff166108fc839081150290604051600060405180830381858888f193505050501580156107f6573d6000803e3d6000fd5b505b5050565b60015481565b6000809054906101000a900473ffffffffffffffffffffffffffffffffffffffff1673ffffffffffffffffffffffffffffffffffffffff163373ffffffffffffffffffffffffffffffffffffffff16141561088257600060149054906101000a900460ff1615600060146101000a81548160ff0219169083151502179055505b565b603281565b666a94d74f43000081565b6722b1c8c1227a000081565b6032666a94d74f4300006722b1c8c1227a0000018115156108bd57fe5b0481565b60008060009054906101000a900473ffffffffffffffffffffffffffffffffffffffff1673ffffffffffffffffffffffffffffffffffffffff163373ffffffffffffffffffffffffffffffffffffffff161415610bde576001600060146101000a81548160ff021916908315150217905550600090505b6032811015610ab45760046000828152602001908152602001600020600101546001541415610aa7577fb56b591803cc7bbb211b8af54a52c3a403e25fb272b9b853e59f42cef9e41d986001546004600084815260200190815260200160002060000160009054906101000a900473ffffffffffffffffffffffffffffffffffffffff1683604051808481526020018373ffffffffffffffffffffffffffffffffffffffff1673ffffffffffffffffffffffffffffffffffffffff168152602001828152602001935050505060405180910390a16004600082815260200190815260200160002060000160009054906101000a900473ffffffffffffffffffffffffffffffffffffffff1673ffffffffffffffffffffffffffffffffffffffff166108fc6032666a94d74f4300006722b1c8c1227a000001811515610a7957fe5b049081150290604051600060405180830381858888f19350505050158015610aa5573d6000803e3d6000fd5b505b8080600101915050610938565b7f91fed1c01d0e27fae621ae930b8bf1b8853907a9bc637f404f3292d8da8d627a60015460326000806000806000604051808881526020018781526020018673ffffffffffffffffffffffffffffffffffffffff1673ffffffffffffffffffffffffffffffffffffffff1681526020018573ffffffffffffffffffffffffffffffffffffffff1673ffffffffffffffffffffffffffffffffffffffff1681526020018473ffffffffffffffffffffffffffffffffffffffff1673ffffffffffffffffffffffffffffffffffffffff1681526020018381526020018260010260001916815260200197505050505050505060405180910390a16001600081548092919060010191905055506000600381905550436002819055506000600581610bdc9190610f69565b505b50565b6000806000806000806004600060324173ffffffffffffffffffffffffffffffffffffffff16811515610c1057fe5b06815260200190815260200160002060000160009054906101000a900473ffffffffffffffffffffffffffffffffffffffff1695506004600060323373ffffffffffffffffffffffffffffffffffffffff16811515610c6b57fe5b06815260200190815260200160002060000160009054906101000a900473ffffffffffffffffffffffffffffffffffffffff169450449350858585604051808473ffffffffffffffffffffffffffffffffffffffff1673ffffffffffffffffffffffffffffffffffffffff166c010000000000000000000000000281526014018373ffffffffffffffffffffffffffffffffffffffff1673ffffffffffffffffffffffffffffffffffffffff166c0100000000000000000000000002815260140182815260200193505050506040518091039020925060328360019004811515610d5157fe5b0691506004600083815260200190815260200160002060000160009054906101000a900473ffffffffffffffffffffffffffffffffffffffff1690507f91fed1c01d0e27fae621ae930b8bf1b8853907a9bc637f404f3292d8da8d627a600154838389898989604051808881526020018781526020018673ffffffffffffffffffffffffffffffffffffffff1673ffffffffffffffffffffffffffffffffffffffff1681526020018573ffffffffffffffffffffffffffffffffffffffff1673ffffffffffffffffffffffffffffffffffffffff1681526020018473ffffffffffffffffffffffffffffffffffffffff1673ffffffffffffffffffffffffffffffffffffffff168152602001838152602001826000191660001916815260200197505050505050505060405180910390a16001600081548092919060010191905055506000600381905550436002819055508073ffffffffffffffffffffffffffffffffffffffff166108fc6722b1c8c1227a00009081150290604051600060405180830381858888f19350505050158015610ef1573d6000803e3d6000fd5b506000809054906101000a900473ffffffffffffffffffffffffffffffffffffffff1673ffffffffffffffffffffffffffffffffffffffff166108fc666a94d74f4300009081150290604051600060405180830381858888f19350505050158015610f60573d6000803e3d6000fd5b50505050505050565b815481835581811115610f9057818360005260206000209182019101610f8f9190610f95565b5b505050565b610fb791905b80821115610fb3576000816000905550600101610f9b565b5090565b905600a165627a7a723058209ee6ca09479f3d58a1b9f18950fdafd63968ae9f930d9c6e9766311d20d2b24f0029",
  "source": "/*\n * @article: https://blog.positive.com/predicting-random-numbers-in-ethereum-smart-contracts-e5358c6b8620\n * @source: https://etherscan.io/address/0xcC88937F325d1C6B97da0AFDbb4cA542EFA70870#code\n * @vulnerable_at_lines: 49,99,101,103,114,158\n * @author: -\n */\n\n pragma solidity ^0.4.16;\n\ncontract Ethraffle_v4b {\n    struct Contestant {\n        address addr;\n        uint raffleId;\n    }\n\n    event RaffleResult(\n        uint raffleId,\n        uint winningNumber,\n        address winningAddress,\n        address seed1,\n        address seed2,\n        uint seed3,\n        bytes32 randHash\n    );\n\n    event TicketPurchase(\n        uint raffleId,\n        address contestant,\n        uint number\n    );\n\n    event TicketRefund(\n        uint raffleId,\n        address contestant,\n        uint number\n    );\n\n    // Constants\n    uint public constant prize = 2.5 ether;\n    uint public constant fee = 0.03 ether;\n    uint public constant totalTickets = 50;\n    uint public constant pricePerTicket = (prize + fee) / totalTickets; // Make sure this divides evenly\n    address feeAddress;\n\n    // Other internal variables\n    bool public paused = false;\n    uint public raffleId = 1;\n    // <yes> <report> BAD_RANDOMNESS\n    uint public blockNumber = block.number;\n    uint nextTicket = 0;\n    mapping (uint => Contestant) contestants;\n    uint[] gaps;\n\n    // Initialization\n    function Ethraffle_v4b() public {\n        feeAddress = msg.sender;\n    }\n\n    // Call buyTickets() when receiving Ether outside a function\n    function () payable public {\n        buyTickets();\n    }\n\n    function buyTickets() payable public {\n        if (paused) {\n            msg.sender.transfer(msg.value);\n            return;\n        }\n\n        uint moneySent = msg.value;\n\n        while (moneySent >= pricePerTicket && nextTicket < totalTickets) {\n            uint currTicket = 0;\n            if (gaps.length > 0) {\n                currTicket = gaps[gaps.length-1];\n                gaps.length--;\n            } else {\n                currTicket = nextTicket++;\n            }\n\n            contestants[currTicket] = Contestant(msg.sender, raffleId);\n            TicketPurchase(raffleId, msg.sender, currTicket);\n            moneySent -= pricePerTicket;\n        }\n\n        // Choose winner if we sold all the tickets\n        if (nextTicket == totalTickets) {\n            chooseWinner();\n        }\n\n        // Send back leftover money\n        if (moneySent > 0) {\n            msg.sender.transfer(moneySent);\n        }\n    }\n\n    function chooseWinner() private {\n        // <yes> <report> BAD_RANDOMNESS\n        address seed1 = contestants[uint(block.coinbase) % totalTickets].addr;\n        // <yes> <report> BAD_RANDOMNESS\n        address seed2 = contestants[uint(msg.sender) % totalTickets].addr;\n        // <yes> <report> BAD_RANDOMNESS\n        uint seed3 = block.difficulty;\n        bytes32 randHash = keccak256(seed1, seed2, seed3);\n\n        uint winningNumber = uint(randHash) % totalTickets;\n        address winningAddress = contestants[winningNumber].addr;\n        RaffleResult(raffleId, winningNumber, winningAddress, seed1, seed2, seed3, randHash);\n\n        // Start next raffle\n        raffleId++;\n        nextTicket = 0;\n        // <yes> <report> BAD_RANDOMNESS\n        blockNumber = block.number;\n\n        // gaps.length = 0 isn't necessary here,\n        // because buyTickets() eventually clears\n        // the gaps array in the loop itself.\n\n        // Distribute prize and fee\n        winningAddress.transfer(prize);\n        feeAddress.transfer(fee);\n    }\n\n    // Get your money back before the raffle occurs\n    function getRefund() public {\n        uint refund = 0;\n        for (uint i = 0; i < totalTickets; i++) {\n            if (msg.sender == contestants[i].addr && raffleId == contestants[i].raffleId) {\n                refund += pricePerTicket;\n                contestants[i] = Contestant(address(0), 0);\n                gaps.push(i);\n                TicketRefund(raffleId, msg.sender, i);\n            }\n        }\n\n        if (refund > 0) {\n            msg.sender.transfer(refund);\n        }\n    }\n\n    // Refund everyone's money, start a new raffle, then pause it\n    function endRaffle() public {\n        if (msg.sender == feeAddress) {\n            paused = true;\n\n            for (uint i = 0; i < totalTickets; i++) {\n                if (raffleId == contestants[i].raffleId) {\n                    TicketRefund(raffleId, contestants[i].addr, i);\n                    contestants[i].addr.transfer(pricePerTicket);\n                }\n            }\n\n            RaffleResult(raffleId, totalTickets, address(0), address(0), address(0), 0, 0);\n            raffleId++;\n            nextTicket = 0;\n            // <yes> <report> BAD_RANDOMNESS\n            blockNumber = block.number;\n            gaps.length = 0;\n        }\n    }\n\n    function togglePause() public {\n        if (msg.sender == feeAddress) {\n            paused = !paused;\n        }\n    }\n\n    function kill() public {\n        if (msg.sender == feeAddress) {\n            selfdestruct(feeAddress);\n        }\n    }\n}\n",
  "sourcePath": "/home/test/ilf-workspace/proj/contracts/etheraffle.sol",
  "compiler": {
    "name": "solc",
    "version": "0.4.25+commit.59dbf8f1.Linux.g++"
  },
  "schemaVersion": "3.0.15",
  "updatedAt": "2024-04-05T13:55:19.039Z",
  "devdoc": {
    "methods": {}
  },
  "userdoc": {
    "methods": {}
  }
}