{
  "contractName": "ReturnValue",
  "abi": [
    {
      "constant": false,
      "inputs": [
        {
          "name": "callee",
          "type": "address"
        }
      ],
      "name": "callchecked",
      "outputs": [],
      "payable": false,
      "stateMutability": "nonpayable",
      "type": "function"
    },
    {
      "constant": false,
      "inputs": [
        {
          "name": "callee",
          "type": "address"
        }
      ],
      "name": "callnotchecked",
      "outputs": [],
      "payable": false,
      "stateMutability": "nonpayable",
      "type": "function"
    }
  ],
  "bytecode": "0x608060405234801561001057600080fd5b5061016b806100206000396000f30060806040526004361061004c576000357c0100000000000000000000000000000000000000000000000000000000900463ffffffff1680637536185e14610051578063bf9bd6cb14610094575b600080fd5b34801561005d57600080fd5b50610092600480360381019080803573ffffffffffffffffffffffffffffffffffffffff1690602001909291905050506100d7565b005b3480156100a057600080fd5b506100d5600480360381019080803573ffffffffffffffffffffffffffffffffffffffff169060200190929190505050610110565b005b8073ffffffffffffffffffffffffffffffffffffffff166040516000604051808303816000865af1915050151561010d57600080fd5b50565b8073ffffffffffffffffffffffffffffffffffffffff166040516000604051808303816000865af191505050505600a165627a7a72305820eb692c44accfa958e64f027c1ee86a674e2c8573601384a3b74472f97eb779be0029",
  "source": "/*\n * @source: https://smartcontractsecurity.github.io/SWC-registry/docs/SWC-104#unchecked-return-valuesol\n * @author: -\n * @vulnerable_at_lines: 17\n */\n\npragma solidity 0.4.25;\n\ncontract ReturnValue {\n\n  function callchecked(address callee) public {\n    require(callee.call());\n  }\n\n  function callnotchecked(address callee) public {\n     // <yes> <report> UNCHECKED_LL_CALLS\n    callee.call();\n  }\n}\n",
  "sourcePath": "/home/test/ilf-workspace/proj/contracts/unchecked_return_value.sol",
  "compiler": {
    "name": "solc",
    "version": "0.4.25+commit.59dbf8f1.Linux.g++"
  },
  "schemaVersion": "3.0.15",
  "updatedAt": "2024-04-05T05:17:29.893Z",
  "devdoc": {
    "methods": {}
  },
  "userdoc": {
    "methods": {}
  }
}