{
  "contractName": "ReentrancyDAO",
  "abi": [
    {
      "constant": false,
      "inputs": [],
      "name": "withdrawAll",
      "outputs": [],
      "payable": false,
      "stateMutability": "nonpayable",
      "type": "function"
    },
    {
      "constant": false,
      "inputs": [],
      "name": "deposit",
      "outputs": [],
      "payable": true,
      "stateMutability": "payable",
      "type": "function"
    }
  ],
  "bytecode": "0x608060405234801561001057600080fd5b506101dc806100206000396000f30060806040526004361061004c576000357c0100000000000000000000000000000000000000000000000000000000900463ffffffff168063853828b614610051578063d0e30db014610068575b600080fd5b34801561005d57600080fd5b50610066610072565b005b610070610152565b005b6000806000803373ffffffffffffffffffffffffffffffffffffffff1673ffffffffffffffffffffffffffffffffffffffff168152602001908152602001600020549150600082111561014e57816001600082825403925050819055503373ffffffffffffffffffffffffffffffffffffffff168260405160006040518083038185875af192505050905080151561010957600080fd5b60008060003373ffffffffffffffffffffffffffffffffffffffff1673ffffffffffffffffffffffffffffffffffffffff168152602001908152602001600020819055505b5050565b346000803373ffffffffffffffffffffffffffffffffffffffff1673ffffffffffffffffffffffffffffffffffffffff16815260200190815260200160002060008282540192505081905550346001600082825401925050819055505600a165627a7a72305820de83710eb512ec4bf8c765d68b74e24aee00dc3de8e20f922b2cf207bce3435a0029",
  "source": "/*\n * @source: https://github.com/ConsenSys/evm-analyzer-benchmark-suite\n * @author: Suhabe Bugrara\n * @vulnerable_at_lines: 18\n */\n\npragma solidity ^0.4.19;\n\ncontract ReentrancyDAO {\n    mapping (address => uint) credit;\n    uint balance;\n\n    function withdrawAll() public {\n        uint oCredit = credit[msg.sender];\n        if (oCredit > 0) {\n            balance -= oCredit;\n            // <yes> <report> REENTRANCY\n            bool callResult = msg.sender.call.value(oCredit)();\n            require (callResult);\n            credit[msg.sender] = 0;\n        }\n    }\n\n    function deposit() public payable {\n        credit[msg.sender] += msg.value;\n        balance += msg.value;\n    }\n}\n",
  "sourcePath": "/home/test/ilf-workspace/proj/contracts/reentrancy_dao.sol",
  "compiler": {
    "name": "solc",
    "version": "0.4.25+commit.59dbf8f1.Linux.g++"
  },
  "schemaVersion": "3.0.15",
  "updatedAt": "2024-04-04T09:51:31.922Z",
  "devdoc": {
    "methods": {}
  },
  "userdoc": {
    "methods": {}
  }
}