{
  "contractName": "SimpleDAO",
  "abi": [
    {
      "constant": true,
      "inputs": [
        {
          "name": "",
          "type": "address"
        }
      ],
      "name": "credit",
      "outputs": [
        {
          "name": "",
          "type": "uint256"
        }
      ],
      "payable": false,
      "stateMutability": "view",
      "type": "function"
    },
    {
      "constant": false,
      "inputs": [
        {
          "name": "to",
          "type": "address"
        }
      ],
      "name": "donate",
      "outputs": [],
      "payable": true,
      "stateMutability": "payable",
      "type": "function"
    },
    {
      "constant": false,
      "inputs": [
        {
          "name": "amount",
          "type": "uint256"
        }
      ],
      "name": "withdraw",
      "outputs": [],
      "payable": false,
      "stateMutability": "nonpayable",
      "type": "function"
    },
    {
      "constant": false,
      "inputs": [
        {
          "name": "to",
          "type": "address"
        }
      ],
      "name": "queryCredit",
      "outputs": [
        {
          "name": "",
          "type": "uint256"
        }
      ],
      "payable": false,
      "stateMutability": "nonpayable",
      "type": "function"
    }
  ],
  "bytecode": "0x608060405234801561001057600080fd5b5061031a806100206000396000f300608060405260043610610061576000357c0100000000000000000000000000000000000000000000000000000000900463ffffffff168062362a95146100665780632e1a7d4d1461009c57806359f1286d146100c9578063d5d44d8014610120575b600080fd5b61009a600480360381019080803573ffffffffffffffffffffffffffffffffffffffff169060200190929190505050610177565b005b3480156100a857600080fd5b506100c7600480360381019080803590602001909291905050506101c6565b005b3480156100d557600080fd5b5061010a600480360381019080803573ffffffffffffffffffffffffffffffffffffffff16906020019092919050505061028e565b6040518082815260200191505060405180910390f35b34801561012c57600080fd5b50610161600480360381019080803573ffffffffffffffffffffffffffffffffffffffff1690602001909291905050506102d6565b6040518082815260200191505060405180910390f35b346000808373ffffffffffffffffffffffffffffffffffffffff1673ffffffffffffffffffffffffffffffffffffffff1681526020019081526020016000206000828254019250508190555050565b6000816000803373ffffffffffffffffffffffffffffffffffffffff1673ffffffffffffffffffffffffffffffffffffffff1681526020019081526020016000205410151561028a573373ffffffffffffffffffffffffffffffffffffffff168260405160006040518083038185875af1925050509050816000803373ffffffffffffffffffffffffffffffffffffffff1673ffffffffffffffffffffffffffffffffffffffff168152602001908152602001600020600082825403925050819055505b5050565b60008060008373ffffffffffffffffffffffffffffffffffffffff1673ffffffffffffffffffffffffffffffffffffffff168152602001908152602001600020549050919050565b600060205280600052604060002060009150905054815600a165627a7a72305820ffc3d675c5301583ea33e8f881d83cb81a90fd9a344aa49de2d6aef0a3b2e1910029",
  "source": "/*\n * @source: http://blockchain.unica.it/projects/ethereum-survey/attacks.html#simpledao\n * @author: -\n * @vulnerable_at_lines: 19\n */\n\npragma solidity ^0.4.2;\n\ncontract SimpleDAO {\n  mapping (address => uint) public credit;\n\n  function donate(address to) payable {\n    credit[to] += msg.value;\n  }\n\n  function withdraw(uint amount) {\n    if (credit[msg.sender]>= amount) {\n      // <yes> <report> REENTRANCY\n      bool res = msg.sender.call.value(amount)();\n      credit[msg.sender]-=amount;\n    }\n  }\n\n  function queryCredit(address to) returns (uint){\n    return credit[to];\n  }\n}\n",
  "sourcePath": "/home/test/ilf-workspace/proj/contracts/simple_dao.sol",
  "compiler": {
    "name": "solc",
    "version": "0.4.25+commit.59dbf8f1.Linux.g++"
  },
  "schemaVersion": "3.0.15",
  "updatedAt": "2024-04-04T00:09:10.406Z",
  "devdoc": {
    "methods": {}
  },
  "userdoc": {
    "methods": {}
  }
}