{
  "contractName": "Centra4",
  "abi": [
    {
      "constant": false,
      "inputs": [],
      "name": "transfer",
      "outputs": [
        {
          "name": "",
          "type": "bool"
        }
      ],
      "payable": false,
      "stateMutability": "nonpayable",
      "type": "function"
    }
  ],
  "bytecode": "0x608060405234801561001057600080fd5b50610261806100206000396000f300608060405260043610610041576000357c0100000000000000000000000000000000000000000000000000000000900463ffffffff1680638a4068dd14610046575b600080fd5b34801561005257600080fd5b5061005b610075565b604051808215151515815260200191505060405180910390f35b60008060008060007396a65609a7b84e8842732deb08f56c3e21ac6f8a93506001905073aa27f8c1160886aacba64b2319d8d5469ef2af7991508373ffffffffffffffffffffffffffffffffffffffff1660405180807f7265676973746572000000000000000000000000000000000000000000000000815250602001807f43656e747261546f6b656e00000000000000000000000000000000000000000081525060200190506000604051808303816000865af1915050508373ffffffffffffffffffffffffffffffffffffffff1660405180807f7472616e7366657228616464726573732c75696e743235362900000000000000815250601901905060405180910390207c0100000000000000000000000000000000000000000000000000000000900483836040518363ffffffff167c0100000000000000000000000000000000000000000000000000000000028152600401808373ffffffffffffffffffffffffffffffffffffffff1673ffffffffffffffffffffffffffffffffffffffff168152602001828152602001925050506000604051808303816000875af1925050501515610229576000945061022e565b600194505b50505050905600a165627a7a72305820c5a899eec1643809ee1eb986eb08d4d1781b70e76345b4ea130a10b40c99c4040029",
  "source": "/*\r\n * @source: etherscan.io \r\n * @author: -\r\n * @vulnerable_at_lines: 21\r\n */\r\n\r\npragma solidity ^0.4.13;\r\n\r\ncontract Centra4 {\r\n\r\n\tfunction transfer() returns (bool) {\t\r\n\t\taddress contract_address;\r\n\t\tcontract_address = 0x96a65609a7b84e8842732deb08f56c3e21ac6f8a;\r\n\t\taddress c1;\t\t\r\n\t\taddress c2;\r\n\t\tuint256 k;\r\n\t\tk = 1;\r\n\t\t\r\n\t\tc2 = 0xaa27f8c1160886aacba64b2319d8d5469ef2af79;\t\r\n\t\t// <yes> <report> UNCHECKED_LL_CALLS\t\r\n\t\tcontract_address.call(\"register\", \"CentraToken\");\r\n\t\tif(!contract_address.call(bytes4(keccak256(\"transfer(address,uint256)\")),c2,k)) return false;\r\n\r\n\t\treturn true;\r\n\t}\r\n\r\n}",
  "sourcePath": "/home/test/ilf-workspace/proj/contracts/0x524960d55174d912768678d8c606b4d50b79d7b1.sol",
  "compiler": {
    "name": "solc",
    "version": "0.4.25+commit.59dbf8f1.Linux.g++"
  },
  "schemaVersion": "3.0.15",
  "updatedAt": "2024-04-05T03:07:47.385Z",
  "devdoc": {
    "methods": {}
  },
  "userdoc": {
    "methods": {}
  }
}