{
  "contractName": "Reentrance",
  "abi": [
    {
      "constant": true,
      "inputs": [
        {
          "name": "u",
          "type": "address"
        }
      ],
      "name": "getBalance",
      "outputs": [
        {
          "name": "",
          "type": "uint256"
        }
      ],
      "payable": false,
      "stateMutability": "view",
      "type": "function"
    },
    {
      "constant": false,
      "inputs": [],
      "name": "addToBalance",
      "outputs": [],
      "payable": true,
      "stateMutability": "payable",
      "type": "function"
    },
    {
      "constant": false,
      "inputs": [],
      "name": "withdrawBalance",
      "outputs": [],
      "payable": false,
      "stateMutability": "nonpayable",
      "type": "function"
    }
  ],
  "bytecode": "0x608060405234801561001057600080fd5b50610251806100206000396000f300608060405260043610610057576000357c0100000000000000000000000000000000000000000000000000000000900463ffffffff1680635fd8c7101461005c578063c0e317fb14610073578063f8b2cb4f1461007d575b600080fd5b34801561006857600080fd5b506100716100d4565b005b61007b61018f565b005b34801561008957600080fd5b506100be600480360381019080803573ffffffffffffffffffffffffffffffffffffffff1690602001909291905050506101dd565b6040518082815260200191505060405180910390f35b3373ffffffffffffffffffffffffffffffffffffffff166000803373ffffffffffffffffffffffffffffffffffffffff1673ffffffffffffffffffffffffffffffffffffffff1681526020019081526020016000205460405160006040518083038185875af192505050151561014957600080fd5b60008060003373ffffffffffffffffffffffffffffffffffffffff1673ffffffffffffffffffffffffffffffffffffffff16815260200190815260200160002081905550565b346000803373ffffffffffffffffffffffffffffffffffffffff1673ffffffffffffffffffffffffffffffffffffffff16815260200190815260200160002060008282540192505081905550565b60008060008373ffffffffffffffffffffffffffffffffffffffff1673ffffffffffffffffffffffffffffffffffffffff1681526020019081526020016000205490509190505600a165627a7a72305820129d47778806c7dd95752c521b796388618ee3068b1eccf06be5e6e5008c467d0029",
  "source": "/*\n * @source: https://github.com/trailofbits/not-so-smart-contracts/blob/master/reentrancy/Reentrancy.sol\n * @author: -\n * @vulnerable_at_lines: 24\n */\n\n pragma solidity ^0.4.15;\n\n contract Reentrance {\n     mapping (address => uint) userBalance;\n\n     function getBalance(address u) constant returns(uint){\n         return userBalance[u];\n     }\n\n     function addToBalance() payable{\n         userBalance[msg.sender] += msg.value;\n     }\n\n     function withdrawBalance(){\n         // send userBalance[msg.sender] ethers to msg.sender\n         // if mgs.sender is a contract, it will call its fallback function\n         // <yes> <report> REENTRANCY\n         if( ! (msg.sender.call.value(userBalance[msg.sender])() ) ){\n             throw;\n         }\n         userBalance[msg.sender] = 0;\n     }\n }\n",
  "sourcePath": "/home/test/ilf-workspace/proj/contracts/reentrancy_simple.sol",
  "compiler": {
    "name": "solc",
    "version": "0.4.25+commit.59dbf8f1.Linux.g++"
  },
  "schemaVersion": "3.0.15",
  "updatedAt": "2024-04-04T00:09:10.611Z",
  "devdoc": {
    "methods": {}
  },
  "userdoc": {
    "methods": {}
  }
}