{
  "contractName": "Reentrancy_cross_function",
  "abi": [
    {
      "constant": false,
      "inputs": [],
      "name": "addToBalance",
      "outputs": [],
      "payable": true,
      "stateMutability": "payable",
      "type": "function"
    },
    {
      "constant": false,
      "inputs": [
        {
          "name": "to",
          "type": "address"
        },
        {
          "name": "amount",
          "type": "uint256"
        }
      ],
      "name": "transfer",
      "outputs": [],
      "payable": false,
      "stateMutability": "nonpayable",
      "type": "function"
    },
    {
      "constant": false,
      "inputs": [],
      "name": "withdrawBalance",
      "outputs": [],
      "payable": false,
      "stateMutability": "nonpayable",
      "type": "function"
    }
  ],
  "bytecode": "0x608060405234801561001057600080fd5b506102f4806100206000396000f300608060405260043610610057576000357c0100000000000000000000000000000000000000000000000000000000900463ffffffff1680635fd8c7101461005c578063a9059cbb14610073578063c0e317fb146100c0575b600080fd5b34801561006857600080fd5b506100716100ca565b005b34801561007f57600080fd5b506100be600480360381019080803573ffffffffffffffffffffffffffffffffffffffff16906020019092919080359060200190929190505050610196565b005b6100c861027a565b005b6000806000803373ffffffffffffffffffffffffffffffffffffffff1673ffffffffffffffffffffffffffffffffffffffff1681526020019081526020016000205491503373ffffffffffffffffffffffffffffffffffffffff168260405180602001905060006040518083038185875af192505050905080151561014e57600080fd5b60008060003373ffffffffffffffffffffffffffffffffffffffff1673ffffffffffffffffffffffffffffffffffffffff168152602001908152602001600020819055505050565b806000803373ffffffffffffffffffffffffffffffffffffffff1673ffffffffffffffffffffffffffffffffffffffff1681526020019081526020016000205410151561027657806000808473ffffffffffffffffffffffffffffffffffffffff1673ffffffffffffffffffffffffffffffffffffffff16815260200190815260200160002060008282540192505081905550806000803373ffffffffffffffffffffffffffffffffffffffff1673ffffffffffffffffffffffffffffffffffffffff168152602001908152602001600020600082825403925050819055505b5050565b346000803373ffffffffffffffffffffffffffffffffffffffff1673ffffffffffffffffffffffffffffffffffffffff168152602001908152602001600020600082825401925050819055505600a165627a7a72305820e927a85e13f60a414fcb4b994e402b5bb5a540c9d342652421d6460bd99225c30029",
  "source": "/*\n * @source: https://consensys.github.io/smart-contract-best-practices/known_attacks/\n * @author: consensys\n * @vulnerable_at_lines: 24\n */\n\npragma solidity ^0.4.0;\n\ncontract Reentrancy_cross_function {\n\n    // INSECURE\n    mapping (address => uint) private userBalances;\n\n    function addToBalance() payable {\n        userBalances[msg.sender] += msg.value;\n    }\n\n    function transfer(address to, uint amount) {\n        if (userBalances[msg.sender] >= amount) {\n            userBalances[to] += amount;\n            userBalances[msg.sender] -= amount;\n        }\n    }\n\n    function withdrawBalance() public {\n        uint amountToWithdraw = userBalances[msg.sender];\n        // <yes> <report> REENTRANCY\n        (bool success, ) = msg.sender.call.value(amountToWithdraw)(\"\"); // At this point, the caller's code is executed, and can call transfer()\n        require(success);\n        userBalances[msg.sender] = 0;\n    }\n}\n",
  "sourcePath": "/home/test/ilf-workspace/proj/contracts/reentrancy_cross_function.sol",
  "compiler": {
    "name": "solc",
    "version": "0.4.25+commit.59dbf8f1.Linux.g++"
  },
  "schemaVersion": "3.0.15",
  "updatedAt": "2024-04-05T05:17:29.718Z",
  "devdoc": {
    "methods": {}
  },
  "userdoc": {
    "methods": {}
  }
}