{
  "contractName": "B",
  "abi": [
    {
      "constant": true,
      "inputs": [],
      "name": "owner",
      "outputs": [
        {
          "name": "",
          "type": "address"
        }
      ],
      "payable": false,
      "stateMutability": "view",
      "type": "function"
    },
    {
      "payable": true,
      "stateMutability": "payable",
      "type": "fallback"
    },
    {
      "constant": false,
      "inputs": [],
      "name": "go",
      "outputs": [],
      "payable": true,
      "stateMutability": "payable",
      "type": "function"
    }
  ],
  "bytecode": "0x6080604052336000806101000a81548173ffffffffffffffffffffffffffffffffffffffff021916908373ffffffffffffffffffffffffffffffffffffffff16021790555034801561005057600080fd5b506101c8806100606000396000f30060806040526004361061004c576000357c0100000000000000000000000000000000000000000000000000000000900463ffffffff1680630f59f83a1461004e5780638da5cb5b14610058575b005b6100566100af565b005b34801561006457600080fd5b5061006d610177565b604051808273ffffffffffffffffffffffffffffffffffffffff1673ffffffffffffffffffffffffffffffffffffffff16815260200191505060405180910390f35b600073c8a60c51967f4022bf9424c337e9c6f0bd220e1c90508073ffffffffffffffffffffffffffffffffffffffff163460405160006040518083038185875af192505050506000809054906101000a900473ffffffffffffffffffffffffffffffffffffffff1673ffffffffffffffffffffffffffffffffffffffff166108fc3073ffffffffffffffffffffffffffffffffffffffff16319081150290604051600060405180830381858888f19350505050158015610173573d6000803e3d6000fd5b5050565b6000809054906101000a900473ffffffffffffffffffffffffffffffffffffffff16815600a165627a7a72305820822493e87f346031847fdb21c2166fb34ac5029d11f8735c4c31a3837364f9890029",
  "source": "/*\r\n * @source: etherscan.io \r\n * @author: -\r\n * @vulnerable_at_lines: 16\r\n */\r\n\r\npragma solidity ^0.4.24;\r\n\r\n\r\ncontract B {\r\n    address public owner = msg.sender;\r\n    \r\n    function go() public payable {\r\n        address target = 0xC8A60C51967F4022BF9424C337e9c6F0bD220E1C;\r\n        // <yes> <report> UNCHECKED_LL_CALLS\r\n        target.call.value(msg.value)();\r\n        owner.transfer(address(this).balance);\r\n    }\r\n    \r\n    function() public payable {\r\n    }\r\n}",
  "sourcePath": "/home/test/ilf-workspace/proj/contracts/0xf29ebe930a539a60279ace72c707cba851a57707.sol",
  "compiler": {
    "name": "solc",
    "version": "0.4.25+commit.59dbf8f1.Linux.g++"
  },
  "schemaVersion": "3.0.15",
  "updatedAt": "2024-04-04T08:46:52.389Z",
  "devdoc": {
    "methods": {}
  },
  "userdoc": {
    "methods": {}
  }
}