{
  "contractName": "Reentrancy_insecure",
  "abi": [
    {
      "constant": false,
      "inputs": [],
      "name": "addToBalance",
      "outputs": [],
      "payable": true,
      "stateMutability": "payable",
      "type": "function"
    },
    {
      "constant": false,
      "inputs": [],
      "name": "withdrawBalance",
      "outputs": [],
      "payable": false,
      "stateMutability": "nonpayable",
      "type": "function"
    }
  ],
  "bytecode": "0x608060405234801561001057600080fd5b506101b8806100206000396000f30060806040526004361061004c576000357c0100000000000000000000000000000000000000000000000000000000900463ffffffff1680635fd8c71014610051578063c0e317fb14610068575b600080fd5b34801561005d57600080fd5b50610066610072565b005b61007061013e565b005b6000806000803373ffffffffffffffffffffffffffffffffffffffff1673ffffffffffffffffffffffffffffffffffffffff1681526020019081526020016000205491503373ffffffffffffffffffffffffffffffffffffffff168260405180602001905060006040518083038185875af19250505090508015156100f657600080fd5b60008060003373ffffffffffffffffffffffffffffffffffffffff1673ffffffffffffffffffffffffffffffffffffffff168152602001908152602001600020819055505050565b346000803373ffffffffffffffffffffffffffffffffffffffff1673ffffffffffffffffffffffffffffffffffffffff168152602001908152602001600020600082825401925050819055505600a165627a7a7230582077550ee8f1c5b7d20f29dfd9c662d7c7e9b73da4fd237da08b4c3514ea699e1b0029",
  "source": "/*\n * @source: https://consensys.github.io/smart-contract-best-practices/known_attacks/\n * @author: consensys\n * @vulnerable_at_lines: 17\n */\n\npragma solidity ^0.4.0;\n\ncontract Reentrancy_insecure {\n\n    // INSECURE\n    mapping (address => uint) private userBalances;\n\n    function addToBalance() payable {\n        userBalances[msg.sender] += msg.value;\n    }\n\n    function withdrawBalance() public {\n        uint amountToWithdraw = userBalances[msg.sender];\n        // <yes> <report> REENTRANCY\n        (bool success, ) = msg.sender.call.value(amountToWithdraw)(\"\"); // At this point, the caller's code is executed, and can call withdrawBalance again\n        require(success);\n        userBalances[msg.sender] = 0;\n    }\n}\n",
  "sourcePath": "/home/test/ilf-workspace/proj/contracts/reentrancy_insecure.sol",
  "compiler": {
    "name": "solc",
    "version": "0.4.25+commit.59dbf8f1.Linux.g++"
  },
  "schemaVersion": "3.0.15",
  "updatedAt": "2024-04-04T19:34:08.656Z",
  "devdoc": {
    "methods": {}
  },
  "userdoc": {
    "methods": {}
  }
}