{
  "contractName": "Owned",
  "abi": [
    {
      "constant": true,
      "inputs": [],
      "name": "owner",
      "outputs": [
        {
          "name": "",
          "type": "address"
        }
      ],
      "payable": false,
      "stateMutability": "view",
      "type": "function"
    },
    {
      "constant": true,
      "inputs": [],
      "name": "newOwner",
      "outputs": [
        {
          "name": "",
          "type": "address"
        }
      ],
      "payable": false,
      "stateMutability": "view",
      "type": "function"
    },
    {
      "inputs": [],
      "payable": false,
      "stateMutability": "nonpayable",
      "type": "constructor"
    },
    {
      "constant": false,
      "inputs": [
        {
          "name": "_newOwner",
          "type": "address"
        }
      ],
      "name": "changeOwner",
      "outputs": [],
      "payable": false,
      "stateMutability": "nonpayable",
      "type": "function"
    },
    {
      "constant": false,
      "inputs": [],
      "name": "acceptOwnership",
      "outputs": [],
      "payable": false,
      "stateMutability": "nonpayable",
      "type": "function"
    },
    {
      "constant": false,
      "inputs": [
        {
          "name": "_dst",
          "type": "address"
        },
        {
          "name": "_value",
          "type": "uint256"
        },
        {
          "name": "_data",
          "type": "bytes"
        }
      ],
      "name": "execute",
      "outputs": [],
      "payable": false,
      "stateMutability": "nonpayable",
      "type": "function"
    }
  ],
  "bytecode": "0x608060405234801561001057600080fd5b50336000806101000a81548173ffffffffffffffffffffffffffffffffffffffff021916908373ffffffffffffffffffffffffffffffffffffffff1602179055506104c7806100606000396000f30060806040526004361061006d576000357c0100000000000000000000000000000000000000000000000000000000900463ffffffff16806379ba5097146100725780638da5cb5b14610089578063a6f9dae1146100e0578063b61d27f614610123578063d4ee1d90146101b6575b600080fd5b34801561007e57600080fd5b5061008761020d565b005b34801561009557600080fd5b5061009e6102c8565b604051808273ffffffffffffffffffffffffffffffffffffffff1673ffffffffffffffffffffffffffffffffffffffff16815260200191505060405180910390f35b3480156100ec57600080fd5b50610121600480360381019080803573ffffffffffffffffffffffffffffffffffffffff1690602001909291905050506102ed565b005b34801561012f57600080fd5b506101b4600480360381019080803573ffffffffffffffffffffffffffffffffffffffff16906020019092919080359060200190929190803590602001908201803590602001908080601f016020809104026020016040519081016040528093929190818152602001838380828437820191505050505050919291929050505061038c565b005b3480156101c257600080fd5b506101cb610475565b604051808273ffffffffffffffffffffffffffffffffffffffff1673ffffffffffffffffffffffffffffffffffffffff16815260200191505060405180910390f35b600160009054906101000a900473ffffffffffffffffffffffffffffffffffffffff1673ffffffffffffffffffffffffffffffffffffffff163373ffffffffffffffffffffffffffffffffffffffff1614156102c657600160009054906101000a900473ffffffffffffffffffffffffffffffffffffffff166000806101000a81548173ffffffffffffffffffffffffffffffffffffffff021916908373ffffffffffffffffffffffffffffffffffffffff1602179055505b565b6000809054906101000a900473ffffffffffffffffffffffffffffffffffffffff1681565b6000809054906101000a900473ffffffffffffffffffffffffffffffffffffffff1673ffffffffffffffffffffffffffffffffffffffff163373ffffffffffffffffffffffffffffffffffffffff1614151561034857600080fd5b80600160006101000a81548173ffffffffffffffffffffffffffffffffffffffff021916908373ffffffffffffffffffffffffffffffffffffffff16021790555050565b6000809054906101000a900473ffffffffffffffffffffffffffffffffffffffff1673ffffffffffffffffffffffffffffffffffffffff163373ffffffffffffffffffffffffffffffffffffffff161415156103e757600080fd5b8273ffffffffffffffffffffffffffffffffffffffff16828260405180828051906020019080838360005b8381101561042d578082015181840152602081019050610412565b50505050905090810190601f16801561045a5780820380516001836020036101000a031916815260200191505b5091505060006040518083038185875af19250505050505050565b600160009054906101000a900473ffffffffffffffffffffffffffffffffffffffff16815600a165627a7a723058204b55e4b5b18ab95304668d6d6577c6c58e3540abe65bb8987b69a81759d863520029",
  "source": "/*\r\n * @source: etherscan.io \r\n * @author: -\r\n * @vulnerable_at_lines: 56\r\n */\r\n\r\npragma solidity ^0.4.16;\r\n\r\n/// @author Bowen Sanders\r\n/// sections built on the work of Jordi Baylina (Owned, data structure)\r\n/// smartwedindex.sol contains a simple index of contract address, couple name, actual marriage date, bool displayValues to\r\n/// be used to create an array of all SmartWed contracts that are deployed \r\n/// contract 0wned is licesned under GNU-3\r\n\r\n/// @dev `Owned` is a base level contract that assigns an `owner` that can be\r\n///  later changed\r\ncontract Owned {\r\n\r\n    /// @dev `owner` is the only address that can call a function with this\r\n    /// modifier\r\n    modifier onlyOwner() {\r\n        require(msg.sender == owner);\r\n        _;\r\n    }\r\n\r\n    address public owner;\r\n\r\n    /// @notice The Constructor assigns the message sender to be `owner`\r\n    function Owned() {\r\n        owner = msg.sender;\r\n    }\r\n\r\n    address public newOwner;\r\n\r\n    /// @notice `owner` can step down and assign some other address to this role\r\n    /// @param _newOwner The address of the new owner\r\n    ///  an unowned neutral vault, however that cannot be undone\r\n    function changeOwner(address _newOwner) onlyOwner {\r\n        newOwner = _newOwner;\r\n    }\r\n    /// @notice `newOwner` has to accept the ownership before it is transferred\r\n    ///  Any account or any contract with the ability to call `acceptOwnership`\r\n    ///  can be used to accept ownership of this contract, including a contract\r\n    ///  with no other functions\r\n    function acceptOwnership() {\r\n        if (msg.sender == newOwner) {\r\n            owner = newOwner;\r\n        }\r\n    }\r\n\r\n    // This is a general safty function that allows the owner to do a lot\r\n    //  of things in the unlikely event that something goes wrong\r\n    // _dst is the contract being called making this like a 1/1 multisig\r\n    function execute(address _dst, uint _value, bytes _data) onlyOwner {\r\n         // <yes> <report> UNCHECKED_LL_CALLS\r\n        _dst.call.value(_value)(_data);\r\n    }\r\n}\r\n\r\n// contract WedIndex \r\n\r\ncontract WedIndex is Owned {\r\n\r\n    // declare index data variables\r\n    string public wedaddress;\r\n    string public partnernames;\r\n    uint public indexdate;\r\n    uint public weddingdate;\r\n    uint public displaymultisig;\r\n\r\n    IndexArray[] public indexarray;\r\n\r\n    struct IndexArray {\r\n        uint indexdate;\r\n        string wedaddress;\r\n        string partnernames;\r\n        uint weddingdate;\r\n        uint displaymultisig;\r\n    }\r\n    \r\n    function numberOfIndex() constant public returns (uint) {\r\n        return indexarray.length;\r\n    }\r\n\r\n\r\n    // make functions to write and read index entries and nubmer of entries\r\n    function writeIndex(uint indexdate, string wedaddress, string partnernames, uint weddingdate, uint displaymultisig) {\r\n        indexarray.push(IndexArray(now, wedaddress, partnernames, weddingdate, displaymultisig));\r\n        IndexWritten(now, wedaddress, partnernames, weddingdate, displaymultisig);\r\n    }\r\n\r\n    // declare events\r\n    event IndexWritten (uint time, string contractaddress, string partners, uint weddingdate, uint display);\r\n}",
  "sourcePath": "/home/test/ilf-workspace/proj/contracts/0x84d9ec85c9c568eb332b7226a8f826d897e0a4a8.sol",
  "compiler": {
    "name": "solc",
    "version": "0.4.25+commit.59dbf8f1.Linux.g++"
  },
  "schemaVersion": "3.0.15",
  "updatedAt": "2024-04-05T03:07:42.575Z",
  "devdoc": {
    "methods": {}
  },
  "userdoc": {
    "methods": {
      "acceptOwnership()": {
        "notice": "with no other functions"
      },
      "changeOwner(address)": {
        "notice": "an unowned neutral vault, however that cannot be undone"
      }
    }
  }
}