{
  "contractName": "PredictTheBlockHashChallenge",
  "abi": [
    {
      "inputs": [],
      "payable": true,
      "stateMutability": "payable",
      "type": "constructor"
    },
    {
      "constant": false,
      "inputs": [
        {
          "name": "hash",
          "type": "bytes32"
        }
      ],
      "name": "lockInGuess",
      "outputs": [],
      "payable": true,
      "stateMutability": "payable",
      "type": "function"
    },
    {
      "constant": false,
      "inputs": [],
      "name": "settle",
      "outputs": [],
      "payable": false,
      "stateMutability": "nonpayable",
      "type": "function"
    }
  ],
  "bytecode": "0x6080604052670de0b6b3a76400003414151561001a57600080fd5b610335806100296000396000f30060806040526004361061004c576000357c0100000000000000000000000000000000000000000000000000000000900463ffffffff16806311da60b414610051578063ed7f559c14610068575b600080fd5b34801561005d57600080fd5b5061006661008c565b005b61008a600480360381019080803560001916906020019092919050505061020d565b005b60008060003373ffffffffffffffffffffffffffffffffffffffff1673ffffffffffffffffffffffffffffffffffffffff16815260200190815260200160002060000154431115156100dd57600080fd5b6000803373ffffffffffffffffffffffffffffffffffffffff1673ffffffffffffffffffffffffffffffffffffffff1681526020019081526020016000206000015440905060008060003373ffffffffffffffffffffffffffffffffffffffff1673ffffffffffffffffffffffffffffffffffffffff1681526020019081526020016000206000018190555080600019166000803373ffffffffffffffffffffffffffffffffffffffff1673ffffffffffffffffffffffffffffffffffffffff1681526020019081526020016000206001015460001916141561020a573373ffffffffffffffffffffffffffffffffffffffff166108fc671bc16d674ec800009081150290604051600060405180830381858888f19350505050158015610208573d6000803e3d6000fd5b505b50565b60008060003373ffffffffffffffffffffffffffffffffffffffff1673ffffffffffffffffffffffffffffffffffffffff1681526020019081526020016000206000015414151561025d57600080fd5b670de0b6b3a76400003414151561027357600080fd5b806000803373ffffffffffffffffffffffffffffffffffffffff1673ffffffffffffffffffffffffffffffffffffffff1681526020019081526020016000206001018160001916905550600143016000803373ffffffffffffffffffffffffffffffffffffffff1673ffffffffffffffffffffffffffffffffffffffff16815260200190815260200160002060000181905550505600a165627a7a72305820b711b79ff39794c58742ca66d0aed3d575d4772d6ae1ba2390539ac8f874959b0029",
  "source": "/*\n * @source: https://github.com/SmartContractSecurity/SWC-registry/blob/master/test_cases/weak_randomness/old_blockhash.sol\n * @author: -\n * @vulnerable_at_lines: 35\n */\n\npragma solidity ^0.4.24;\n\n//Based on the the Capture the Ether challange at https://capturetheether.com/challenges/lotteries/predict-the-block-hash/\n//Note that while it seems to have a 1/2^256 chance you guess the right hash, actually blockhash returns zero for blocks numbers that are more than 256 blocks ago so you can guess zero and wait.\ncontract PredictTheBlockHashChallenge {\n\n    struct guess{\n      uint block;\n      bytes32 guess;\n    }\n\n    mapping(address => guess) guesses;\n\n    constructor() public payable {\n        require(msg.value == 1 ether);\n    }\n\n    function lockInGuess(bytes32 hash) public payable {\n        require(guesses[msg.sender].block == 0);\n        require(msg.value == 1 ether);\n\n        guesses[msg.sender].guess = hash;\n        guesses[msg.sender].block  = block.number + 1;\n    }\n\n    function settle() public {\n        require(block.number > guesses[msg.sender].block);\n        // <yes> <report> BAD_RANDOMNESS\n        bytes32 answer = blockhash(guesses[msg.sender].block);\n\n        guesses[msg.sender].block = 0;\n        if (guesses[msg.sender].guess == answer) {\n            msg.sender.transfer(2 ether);\n        }\n    }\n}\n",
  "sourcePath": "/home/test/ilf-workspace/proj/contracts/old_blockhash.sol",
  "compiler": {
    "name": "solc",
    "version": "0.4.25+commit.59dbf8f1.Linux.g++"
  },
  "schemaVersion": "3.0.15",
  "updatedAt": "2024-04-05T14:59:45.201Z",
  "devdoc": {
    "methods": {}
  },
  "userdoc": {
    "methods": {}
  }
}