{
  "contractName": "AirDropContract",
  "abi": [
    {
      "inputs": [],
      "payable": false,
      "stateMutability": "nonpayable",
      "type": "constructor"
    },
    {
      "constant": false,
      "inputs": [
        {
          "name": "contract_address",
          "type": "address"
        },
        {
          "name": "tos",
          "type": "address[]"
        },
        {
          "name": "vs",
          "type": "uint256[]"
        }
      ],
      "name": "transfer",
      "outputs": [
        {
          "name": "",
          "type": "bool"
        }
      ],
      "payable": false,
      "stateMutability": "nonpayable",
      "type": "function"
    }
  ],
  "bytecode": "0x608060405234801561001057600080fd5b506103a1806100206000396000f300608060405260043610610041576000357c0100000000000000000000000000000000000000000000000000000000900463ffffffff16806372a503be14610046575b600080fd5b34801561005257600080fd5b5061010d600480360381019080803573ffffffffffffffffffffffffffffffffffffffff1690602001909291908035906020019082018035906020019080806020026020016040519081016040528093929190818152602001838360200280828437820191505050505050919291929080359060200190820180359060200190808060200260200160405190810160405280939291908181526020018383602002808284378201915050505050509192919290505050610127565b604051808215151515815260200191505060405180910390f35b600080600085600073ffffffffffffffffffffffffffffffffffffffff168173ffffffffffffffffffffffffffffffffffffffff161415151561016957600080fd5b3073ffffffffffffffffffffffffffffffffffffffff168173ffffffffffffffffffffffffffffffffffffffff16141515156101a457600080fd5b600086511115156101b457600080fd5b600085511115156101c457600080fd5b845186511415156101d457600080fd5b60405180807f7472616e7366657246726f6d28616464726573732c616464726573732c75696e81526020017f7432353629000000000000000000000000000000000000000000000000000000815250602501905060405180910390209250600091505b8551821015610367578673ffffffffffffffffffffffffffffffffffffffff16837c0100000000000000000000000000000000000000000000000000000000900433888581518110151561028757fe5b90602001906020020151888681518110151561029f57fe5b906020019060200201516040518463ffffffff167c0100000000000000000000000000000000000000000000000000000000028152600401808473ffffffffffffffffffffffffffffffffffffffff1673ffffffffffffffffffffffffffffffffffffffff1681526020018373ffffffffffffffffffffffffffffffffffffffff1673ffffffffffffffffffffffffffffffffffffffff16815260200182815260200193505050506000604051808303816000875af192505050508180600101925050610237565b6001935050505093925050505600a165627a7a72305820e082e4a51891b8d0ba77557c94ef124fdbd7a5dc6f8280218c45b6b4e5f899e80029",
  "source": "/*\r\n * @source: etherscan.io \r\n * @author: -\r\n * @vulnerable_at_lines: 31\r\n */\r\n\r\npragma solidity ^0.4.18;\r\n\r\ncontract AirDropContract{\r\n\r\n    function AirDropContract() public {\r\n    }\r\n\r\n    modifier validAddress( address addr ) {\r\n        require(addr != address(0x0));\r\n        require(addr != address(this));\r\n        _;\r\n    }\r\n    \r\n    function transfer(address contract_address,address[] tos,uint[] vs)\r\n        public \r\n        validAddress(contract_address)\r\n        returns (bool){\r\n\r\n        require(tos.length > 0);\r\n        require(vs.length > 0);\r\n        require(tos.length == vs.length);\r\n        bytes4 id = bytes4(keccak256(\"transferFrom(address,address,uint256)\"));\r\n        for(uint i = 0 ; i < tos.length; i++){\r\n            // <yes> <report> UNCHECKED_LL_CALLS\r\n            contract_address.call(id, msg.sender, tos[i], vs[i]);\r\n        }\r\n        return true;\r\n    }\r\n}",
  "sourcePath": "/home/test/ilf-workspace/proj/contracts/0xa1fceeff3acc57d257b917e30c4df661401d6431.sol",
  "compiler": {
    "name": "solc",
    "version": "0.4.25+commit.59dbf8f1.Linux.g++"
  },
  "schemaVersion": "3.0.15",
  "updatedAt": "2024-04-04T07:42:04.007Z",
  "devdoc": {
    "methods": {}
  },
  "userdoc": {
    "methods": {}
  }
}