{
  "contractName": "Lotto",
  "abi": [
    {
      "constant": true,
      "inputs": [],
      "name": "winAmount",
      "outputs": [
        {
          "name": "",
          "type": "uint256"
        }
      ],
      "payable": false,
      "stateMutability": "view",
      "type": "function"
    },
    {
      "constant": true,
      "inputs": [],
      "name": "winner",
      "outputs": [
        {
          "name": "",
          "type": "address"
        }
      ],
      "payable": false,
      "stateMutability": "view",
      "type": "function"
    },
    {
      "constant": true,
      "inputs": [],
      "name": "payedOut",
      "outputs": [
        {
          "name": "",
          "type": "bool"
        }
      ],
      "payable": false,
      "stateMutability": "view",
      "type": "function"
    },
    {
      "constant": false,
      "inputs": [],
      "name": "sendToWinner",
      "outputs": [],
      "payable": false,
      "stateMutability": "nonpayable",
      "type": "function"
    },
    {
      "constant": false,
      "inputs": [],
      "name": "withdrawLeftOver",
      "outputs": [],
      "payable": false,
      "stateMutability": "nonpayable",
      "type": "function"
    }
  ],
  "bytecode": "0x608060405260008060006101000a81548160ff02191690831515021790555034801561002a57600080fd5b506102b58061003a6000396000f30060806040526004361061006d576000357c0100000000000000000000000000000000000000000000000000000000900463ffffffff1680631846f51a146100725780638f1c058514610089578063decb3a90146100a0578063dfbf53ae146100cb578063ff15a45214610122575b600080fd5b34801561007e57600080fd5b50610087610151565b005b34801561009557600080fd5b5061009e6101ba565b005b3480156100ac57600080fd5b506100b561024b565b6040518082815260200191505060405180910390f35b3480156100d757600080fd5b506100e0610251565b604051808273ffffffffffffffffffffffffffffffffffffffff1673ffffffffffffffffffffffffffffffffffffffff16815260200191505060405180910390f35b34801561012e57600080fd5b50610137610277565b604051808215151515815260200191505060405180910390f35b6000809054906101000a900460ff16151561016b57600080fd5b3373ffffffffffffffffffffffffffffffffffffffff166108fc3073ffffffffffffffffffffffffffffffffffffffff16319081150290604051600060405180830381858888f1935050505050565b6000809054906101000a900460ff161515156101d557600080fd5b600060019054906101000a900473ffffffffffffffffffffffffffffffffffffffff1673ffffffffffffffffffffffffffffffffffffffff166108fc6001549081150290604051600060405180830381858888f193505050505060016000806101000a81548160ff021916908315150217905550565b60015481565b600060019054906101000a900473ffffffffffffffffffffffffffffffffffffffff1681565b6000809054906101000a900460ff16815600a165627a7a72305820e3b11bc6e8f8cf23dd5efba0b55aaf5513d7335acd0f4b3da1f85e0e794fb6b20029",
  "source": "/*\n * @source: https://github.com/sigp/solidity-security-blog\n * @author: Suhabe Bugrara\n * @vulnerable_at_lines: 20,27\n */\n\n pragma solidity ^0.4.18;\n \n contract Lotto {\n\n     bool public payedOut = false;\n     address public winner;\n     uint public winAmount;\n\n     // ... extra functionality here\n\n     function sendToWinner() public {\n         require(!payedOut);\n         // <yes> <report> UNCHECKED_LL_CALLS\n         winner.send(winAmount);\n         payedOut = true;\n     }\n\n     function withdrawLeftOver() public {\n         require(payedOut);\n         // <yes> <report> UNCHECKED_LL_CALLS\n         msg.sender.send(this.balance);\n     }\n }\n",
  "sourcePath": "/home/test/ilf-workspace/proj/contracts/lotto.sol",
  "compiler": {
    "name": "solc",
    "version": "0.4.25+commit.59dbf8f1.Linux.g++"
  },
  "schemaVersion": "3.0.15",
  "updatedAt": "2024-04-04T08:46:54.982Z",
  "devdoc": {
    "methods": {}
  },
  "userdoc": {
    "methods": {}
  }
}