{
  "contractName": "Lotto",
  "abi": [
    {
      "constant": true,
      "inputs": [],
      "name": "blockReward",
      "outputs": [
        {
          "name": "",
          "type": "uint256"
        }
      ],
      "payable": false,
      "stateMutability": "view",
      "type": "function"
    },
    {
      "constant": true,
      "inputs": [],
      "name": "ticketPrice",
      "outputs": [
        {
          "name": "",
          "type": "uint256"
        }
      ],
      "payable": false,
      "stateMutability": "view",
      "type": "function"
    },
    {
      "constant": true,
      "inputs": [],
      "name": "blocksPerRound",
      "outputs": [
        {
          "name": "",
          "type": "uint256"
        }
      ],
      "payable": false,
      "stateMutability": "view",
      "type": "function"
    },
    {
      "payable": true,
      "stateMutability": "payable",
      "type": "fallback"
    },
    {
      "constant": true,
      "inputs": [],
      "name": "getBlocksPerRound",
      "outputs": [
        {
          "name": "",
          "type": "uint256"
        }
      ],
      "payable": false,
      "stateMutability": "view",
      "type": "function"
    },
    {
      "constant": true,
      "inputs": [],
      "name": "getTicketPrice",
      "outputs": [
        {
          "name": "",
          "type": "uint256"
        }
      ],
      "payable": false,
      "stateMutability": "view",
      "type": "function"
    },
    {
      "constant": true,
      "inputs": [],
      "name": "getRoundIndex",
      "outputs": [
        {
          "name": "",
          "type": "uint256"
        }
      ],
      "payable": false,
      "stateMutability": "view",
      "type": "function"
    },
    {
      "constant": true,
      "inputs": [
        {
          "name": "roundIndex",
          "type": "uint256"
        },
        {
          "name": "subpotIndex",
          "type": "uint256"
        }
      ],
      "name": "getIsCashed",
      "outputs": [
        {
          "name": "",
          "type": "bool"
        }
      ],
      "payable": false,
      "stateMutability": "view",
      "type": "function"
    },
    {
      "constant": true,
      "inputs": [
        {
          "name": "roundIndex",
          "type": "uint256"
        },
        {
          "name": "subpotIndex",
          "type": "uint256"
        }
      ],
      "name": "calculateWinner",
      "outputs": [
        {
          "name": "",
          "type": "address"
        }
      ],
      "payable": false,
      "stateMutability": "view",
      "type": "function"
    },
    {
      "constant": true,
      "inputs": [
        {
          "name": "roundIndex",
          "type": "uint256"
        },
        {
          "name": "subpotIndex",
          "type": "uint256"
        }
      ],
      "name": "getDecisionBlockNumber",
      "outputs": [
        {
          "name": "",
          "type": "uint256"
        }
      ],
      "payable": false,
      "stateMutability": "view",
      "type": "function"
    },
    {
      "constant": true,
      "inputs": [
        {
          "name": "roundIndex",
          "type": "uint256"
        }
      ],
      "name": "getSubpotsCount",
      "outputs": [
        {
          "name": "",
          "type": "uint256"
        }
      ],
      "payable": false,
      "stateMutability": "view",
      "type": "function"
    },
    {
      "constant": true,
      "inputs": [
        {
          "name": "roundIndex",
          "type": "uint256"
        }
      ],
      "name": "getSubpot",
      "outputs": [
        {
          "name": "",
          "type": "uint256"
        }
      ],
      "payable": false,
      "stateMutability": "view",
      "type": "function"
    },
    {
      "constant": false,
      "inputs": [
        {
          "name": "roundIndex",
          "type": "uint256"
        },
        {
          "name": "subpotIndex",
          "type": "uint256"
        }
      ],
      "name": "cash",
      "outputs": [],
      "payable": false,
      "stateMutability": "nonpayable",
      "type": "function"
    },
    {
      "constant": true,
      "inputs": [
        {
          "name": "blockIndex",
          "type": "uint256"
        }
      ],
      "name": "getHashOfBlock",
      "outputs": [
        {
          "name": "",
          "type": "uint256"
        }
      ],
      "payable": false,
      "stateMutability": "view",
      "type": "function"
    },
    {
      "constant": true,
      "inputs": [
        {
          "name": "roundIndex",
          "type": "uint256"
        },
        {
          "name": "buyer",
          "type": "address"
        }
      ],
      "name": "getBuyers",
      "outputs": [
        {
          "name": "",
          "type": "address[]"
        }
      ],
      "payable": false,
      "stateMutability": "view",
      "type": "function"
    },
    {
      "constant": true,
      "inputs": [
        {
          "name": "roundIndex",
          "type": "uint256"
        },
        {
          "name": "buyer",
          "type": "address"
        }
      ],
      "name": "getTicketsCountByBuyer",
      "outputs": [
        {
          "name": "",
          "type": "uint256"
        }
      ],
      "payable": false,
      "stateMutability": "view",
      "type": "function"
    },
    {
      "constant": true,
      "inputs": [
        {
          "name": "roundIndex",
          "type": "uint256"
        }
      ],
      "name": "getPot",
      "outputs": [
        {
          "name": "",
          "type": "uint256"
        }
      ],
      "payable": false,
      "stateMutability": "view",
      "type": "function"
    }
  ],
  "bytecode": "0x608060405234801561001057600080fd5b50610cce806100206000396000f3006080604052600436106100e6576000357c0100000000000000000000000000000000000000000000000000000000900463ffffffff1680630ac168a1146103335780631209b1f61461035e57806328d3ad3f14610389578063305a762a146103ca578063358d5dc21461042b578063459f93f71461047a57806346a2679a1461051c5780636572ae131461055d57806367af1c81146105d45780636e4ed796146105ff5780638089d0011461062a57806386bb71211461066b57806387bb7ae01461069657806393dafba2146106c1578063ce5566c514610702578063df2f0a4a14610739575b6000806000806100f4610784565b935067016345785d8a00003481151561010957fe5b0634039250600083141561011c5761032d565b3483101561015d573373ffffffffffffffffffffffffffffffffffffffff166108fc8434039081150290604051600060405180830381858888f19350505050505b67016345785d8a00008381151561017057fe5b0491508160008086815260200190815260200160002060020160008282540192505081905550600080600086815260200190815260200160002060040160003373ffffffffffffffffffffffffffffffffffffffff1673ffffffffffffffffffffffffffffffffffffffff1681526020019081526020016000205414156102865760008085815260200190815260200160002060000180548091906001016102189190610c51565b9050336000808681526020019081526020016000206000018281548110151561023d57fe5b9060005260206000200160006101000a81548173ffffffffffffffffffffffffffffffffffffffff021916908373ffffffffffffffffffffffffffffffffffffffff1602179055505b8160008086815260200190815260200160002060040160003373ffffffffffffffffffffffffffffffffffffffff1673ffffffffffffffffffffffffffffffffffffffff16815260200190815260200160002060008282540192505081905550816000808681526020019081526020016000206002016000828254019250508190555082600080868152602001908152602001600020600101600082825401925050819055505b50505050005b34801561033f57600080fd5b50610348610799565b6040518082815260200191505060405180910390f35b34801561036a57600080fd5b506103736107a5565b6040518082815260200191505060405180910390f35b34801561039557600080fd5b506103b4600480360381019080803590602001909291905050506107b1565b6040518082815260200191505060405180910390f35b3480156103d657600080fd5b5061041560048036038101908080359060200190929190803573ffffffffffffffffffffffffffffffffffffffff1690602001909291905050506107d0565b6040518082815260200191505060405180910390f35b34801561043757600080fd5b50610460600480360381019080803590602001909291908035906020019092919050505061082d565b604051808215151515815260200191505060405180910390f35b34801561048657600080fd5b506104c560048036038101908080359060200190929190803573ffffffffffffffffffffffffffffffffffffffff16906020019092919050505061086b565b6040518080602001828103825283818151815260200191508051906020019060200280838360005b838110156105085780820151818401526020810190506104ed565b505050509050019250505060405180910390f35b34801561052857600080fd5b506105476004803603810190808035906020019092919050505061090f565b6040518082815260200191505060405180910390f35b34801561056957600080fd5b506105926004803603810190808035906020019092919080359060200190929190505050610980565b604051808273ffffffffffffffffffffffffffffffffffffffff1673ffffffffffffffffffffffffffffffffffffffff16815260200191505060405180910390f35b3480156105e057600080fd5b506105e9610784565b6040518082815260200191505060405180910390f35b34801561060b57600080fd5b50610614610ad1565b6040518082815260200191505060405180910390f35b34801561063657600080fd5b5061065560048036038101908080359060200190929190505050610ad7565b6040518082815260200191505060405180910390f35b34801561067757600080fd5b50610680610ae6565b6040518082815260200191505060405180910390f35b3480156106a257600080fd5b506106ab610af0565b6040518082815260200191505060405180910390f35b3480156106cd57600080fd5b506106ec60048036038101908080359060200190929190505050610b00565b6040518082815260200191505060405180910390f35b34801561070e57600080fd5b506107376004803603810190808035906020019092919080359060200190929190505050610b32565b005b34801561074557600080fd5b5061076e6004803603810190808035906020019092919080359060200190929190505050610c3d565b6040518082815260200191505060405180910390f35b6000611a904381151561079357fe5b04905090565b674563918244f4000081565b67016345785d8a000081565b6000806000838152602001908152602001600020600101549050919050565b600080600084815260200190815260200160002060040160008373ffffffffffffffffffffffffffffffffffffffff1673ffffffffffffffffffffffffffffffffffffffff16815260200190815260200160002054905092915050565b6000806000848152602001908152602001600020600301600083815260200190815260200160002060009054906101000a900460ff16905092915050565b606060008084815260200190815260200160002060000180548060200260200160405190810160405280929190818152602001828054801561090257602002820191906000526020600020905b8160009054906101000a900473ffffffffffffffffffffffffffffffffffffffff1673ffffffffffffffffffffffffffffffffffffffff16815260200190600101908083116108b8575b5050505050905092915050565b600080674563918244f400006000808581526020019081526020016000206001015481151561093a57fe5b0490506000674563918244f400006000808681526020019081526020016000206001015481151561096757fe5b0611156109775780806001019150505b80915050919050565b60008060008060008060006109958989610c3d565b9550438611156109a457610ac5565b6109ad86610ad7565b94506000808a815260200190815260200160002060020154858115156109cf57fe5b06935060009250600091505b6000808a8152602001908152602001600020600001805490508260ff161015610ac4576000808a81526020019081526020016000206000018260ff16815481101515610a2357fe5b9060005260206000200160009054906101000a900473ffffffffffffffffffffffffffffffffffffffff1690506000808a815260200190815260200160002060040160008273ffffffffffffffffffffffffffffffffffffffff1673ffffffffffffffffffffffffffffffffffffffff168152602001908152602001600020548301925083831115610ab757809650610ac5565b81806001019250506109db565b5b50505050505092915050565b611a9081565b60008140600190049050919050565b6000611a90905090565b600067016345785d8a0000905090565b6000610b0b8261090f565b60008084815260200190815260200160002060010154811515610b2a57fe5b049050919050565b600080600080610b418661090f565b93508385101515610b5157610c35565b610b5b8686610c3d565b925043831115610b6a57610c35565b600080878152602001908152602001600020600301600086815260200190815260200160002060009054906101000a900460ff1615610ba857610c35565b610bb28686610980565b9150610bbd86610b00565b90508173ffffffffffffffffffffffffffffffffffffffff166108fc829081150290604051600060405180830381858888f19350505050506001600080888152602001908152602001600020600301600087815260200190815260200160002060006101000a81548160ff0219169083151502179055505b505050505050565b600081611a90600185010201905092915050565b815481835581811115610c7857818360005260206000209182019101610c779190610c7d565b5b505050565b610c9f91905b80821115610c9b576000816000905550600101610c83565b5090565b905600a165627a7a72305820e182aa530ee6c3362ea4164a2b11030f1f46af37ee70780f9dba21e744888d270029",
  "source": "/*\n * @source: https://github.com/etherpot/contract/blob/master/app/contracts/lotto.sol\n * @author: -\n * @vulnerable_at_lines: 109,141\n */\n\n//added pragma version\npragma solidity ^0.4.0;\n\n contract Lotto {\n\n     uint constant public blocksPerRound = 6800;\n     // there are an infinite number of rounds (just like a real lottery that takes place every week). `blocksPerRound` decides how many blocks each round will last. 6800 is around a day.\n\n     uint constant public ticketPrice = 100000000000000000;\n     // the cost of each ticket is .1 ether.\n\n     uint constant public blockReward = 5000000000000000000;\n\n     function getBlocksPerRound() constant returns(uint){ return blocksPerRound; }\n     function getTicketPrice() constant returns(uint){ return ticketPrice; }\n     //accessors for constants\n\n     struct Round {\n         address[] buyers;\n         uint pot;\n         uint ticketsCount;\n         mapping(uint=>bool) isCashed;\n         mapping(address=>uint) ticketsCountByBuyer;\n     }\n     mapping(uint => Round) rounds;\n     //the contract maintains a mapping of rounds. Each round maintains a list of tickets, the total amount of the pot, and whether or not the round was \"cashed\". \"Cashing\" is the act of paying out the pot to the winner.\n\n     function getRoundIndex() constant returns (uint){\n         //The round index tells us which round we're on. For example if we're on block 24, we're on round 2. Division in Solidity automatically rounds down, so we don't need to worry about decimals.\n\n         return block.number/blocksPerRound;\n     }\n\n     function getIsCashed(uint roundIndex,uint subpotIndex) constant returns (bool){\n         //Determine if a given.\n\n         return rounds[roundIndex].isCashed[subpotIndex];\n     }\n\n\n     function calculateWinner(uint roundIndex, uint subpotIndex) constant returns(address){\n         //note this function only calculates the winners. It does not do any state changes and therefore does not include various validitiy checks\n\n         var decisionBlockNumber = getDecisionBlockNumber(roundIndex,subpotIndex);\n\n         if(decisionBlockNumber>block.number)\n             return;\n         //We can't decided the winner if the round isn't over yet\n\n         var decisionBlockHash = getHashOfBlock(decisionBlockNumber);\n         var winningTicketIndex = decisionBlockHash%rounds[roundIndex].ticketsCount;\n         //We perform a modulus of the blockhash to determine the winner\n\n         var ticketIndex = uint256(0);\n\n         for(var buyerIndex = 0; buyerIndex<rounds[roundIndex].buyers.length; buyerIndex++){\n             var buyer = rounds[roundIndex].buyers[buyerIndex];\n             ticketIndex+=rounds[roundIndex].ticketsCountByBuyer[buyer];\n\n             if(ticketIndex>winningTicketIndex){\n                 return buyer;\n             }\n         }\n     }\n\n     function getDecisionBlockNumber(uint roundIndex,uint subpotIndex) constant returns (uint){\n         return ((roundIndex+1)*blocksPerRound)+subpotIndex;\n     }\n\n     function getSubpotsCount(uint roundIndex) constant returns(uint){\n         var subpotsCount = rounds[roundIndex].pot/blockReward;\n\n         if(rounds[roundIndex].pot%blockReward>0)\n             subpotsCount++;\n\n         return subpotsCount;\n     }\n\n     function getSubpot(uint roundIndex) constant returns(uint){\n         return rounds[roundIndex].pot/getSubpotsCount(roundIndex);\n     }\n\n     function cash(uint roundIndex, uint subpotIndex){\n\n         var subpotsCount = getSubpotsCount(roundIndex);\n\n         if(subpotIndex>=subpotsCount)\n             return;\n\n         var decisionBlockNumber = getDecisionBlockNumber(roundIndex,subpotIndex);\n\n         if(decisionBlockNumber>block.number)\n             return;\n\n         if(rounds[roundIndex].isCashed[subpotIndex])\n             return;\n         //Subpots can only be cashed once. This is to prevent double payouts\n\n         var winner = calculateWinner(roundIndex,subpotIndex);\n         var subpot = getSubpot(roundIndex);\n\n         // <yes> <report> UNCHECKED_LL_CALLS\n         winner.send(subpot);\n\n         rounds[roundIndex].isCashed[subpotIndex] = true;\n         //Mark the round as cashed\n     }\n\n     function getHashOfBlock(uint blockIndex) constant returns(uint){\n         return uint(block.blockhash(blockIndex));\n     }\n\n     function getBuyers(uint roundIndex,address buyer) constant returns (address[]){\n         return rounds[roundIndex].buyers;\n     }\n\n     function getTicketsCountByBuyer(uint roundIndex,address buyer) constant returns (uint){\n         return rounds[roundIndex].ticketsCountByBuyer[buyer];\n     }\n\n     function getPot(uint roundIndex) constant returns(uint){\n         return rounds[roundIndex].pot;\n     }\n\n     function() payable {\n         //this is the function that gets called when people send money to the contract.\n\n         var roundIndex = getRoundIndex();\n         var value = msg.value-(msg.value%ticketPrice);\n\n         if(value==0) return;\n\n         if(value<msg.value){\n             // <yes> <report> UNCHECKED_LL_CALLS\n             msg.sender.send(msg.value-value);\n         }\n         //no partial tickets, send a partial refund\n\n         var ticketsCount = value/ticketPrice;\n         rounds[roundIndex].ticketsCount+=ticketsCount;\n\n         if(rounds[roundIndex].ticketsCountByBuyer[msg.sender]==0){\n             var buyersLength = rounds[roundIndex].buyers.length++;\n             rounds[roundIndex].buyers[buyersLength] = msg.sender;\n         }\n\n         rounds[roundIndex].ticketsCountByBuyer[msg.sender]+=ticketsCount;\n         rounds[roundIndex].ticketsCount+=ticketsCount;\n         //keep track of the total tickets\n\n         rounds[roundIndex].pot+=value;\n         //keep track of the total pot\n\n     }\n\n }\n",
  "sourcePath": "/home/test/ilf-workspace/proj/contracts/etherpot_lotto.sol",
  "compiler": {
    "name": "solc",
    "version": "0.4.25+commit.59dbf8f1.Linux.g++"
  },
  "schemaVersion": "3.0.15",
  "updatedAt": "2024-04-03T23:04:35.841Z",
  "devdoc": {
    "methods": {}
  },
  "userdoc": {
    "methods": {}
  }
}