{
  "contractName": "ACCURAL_DEPOSIT",
  "abi": [
    {
      "constant": true,
      "inputs": [
        {
          "name": "",
          "type": "address"
        }
      ],
      "name": "balances",
      "outputs": [
        {
          "name": "",
          "type": "uint256"
        }
      ],
      "payable": false,
      "stateMutability": "view",
      "type": "function"
    },
    {
      "constant": true,
      "inputs": [],
      "name": "MinSum",
      "outputs": [
        {
          "name": "",
          "type": "uint256"
        }
      ],
      "payable": false,
      "stateMutability": "view",
      "type": "function"
    },
    {
      "payable": true,
      "stateMutability": "payable",
      "type": "fallback"
    },
    {
      "constant": false,
      "inputs": [
        {
          "name": "_val",
          "type": "uint256"
        }
      ],
      "name": "SetMinSum",
      "outputs": [],
      "payable": false,
      "stateMutability": "nonpayable",
      "type": "function"
    },
    {
      "constant": false,
      "inputs": [
        {
          "name": "_log",
          "type": "address"
        }
      ],
      "name": "SetLogFile",
      "outputs": [],
      "payable": false,
      "stateMutability": "nonpayable",
      "type": "function"
    },
    {
      "constant": false,
      "inputs": [],
      "name": "Initialized",
      "outputs": [],
      "payable": false,
      "stateMutability": "nonpayable",
      "type": "function"
    },
    {
      "constant": false,
      "inputs": [],
      "name": "Deposit",
      "outputs": [],
      "payable": true,
      "stateMutability": "payable",
      "type": "function"
    },
    {
      "constant": false,
      "inputs": [
        {
          "name": "_am",
          "type": "uint256"
        }
      ],
      "name": "Collect",
      "outputs": [],
      "payable": true,
      "stateMutability": "payable",
      "type": "function"
    }
  ],
  "bytecode": "0x6080604052670de0b6b3a764000060015534801561001c57600080fd5b506103cb8061002c6000396000f300608060405260043610610083576000357c0100000000000000000000000000000000000000000000000000000000900463ffffffff16806327e235e31461008d578063303b9379146100e45780633fe43822146101275780635daa87a014610147578063640d30171461015e578063c2808d1a1461018b578063ed21248c146101b6575b61008b6101c0565b005b34801561009957600080fd5b506100ce600480360381019080803573ffffffffffffffffffffffffffffffffffffffff16906020019092919050505061020e565b6040518082815260200191505060405180910390f35b3480156100f057600080fd5b50610125600480360381019080803573ffffffffffffffffffffffffffffffffffffffff169060200190929190505050610226565b005b61014560048036038101908080359060200190929190505050610243565b005b34801561015357600080fd5b5061015c610358565b005b34801561016a57600080fd5b5061018960048036038101908080359060200190929190505050610375565b005b34801561019757600080fd5b506101a0610399565b6040518082815260200191505060405180910390f35b6101be6101c0565b005b346000803373ffffffffffffffffffffffffffffffffffffffff1673ffffffffffffffffffffffffffffffffffffffff16815260200190815260200160002060008282540192505081905550565b60006020528060005260406000206000915090505481565b600260009054906101000a900460ff161561024057600080fd5b50565b6001546000803373ffffffffffffffffffffffffffffffffffffffff1673ffffffffffffffffffffffffffffffffffffffff16815260200190815260200160002054101580156102d15750806000803373ffffffffffffffffffffffffffffffffffffffff1673ffffffffffffffffffffffffffffffffffffffff1681526020019081526020016000205410155b15610355573373ffffffffffffffffffffffffffffffffffffffff168160405160006040518083038185875af1925050501561035457806000803373ffffffffffffffffffffffffffffffffffffffff1673ffffffffffffffffffffffffffffffffffffffff168152602001908152602001600020600082825403925050819055505b5b50565b6001600260006101000a81548160ff021916908315150217905550565b600260009054906101000a900460ff161561038f57600080fd5b8060018190555050565b600154815600a165627a7a72305820bf6b0fb230b40615553434f4244419eaa5a345e9a2229648e7dd66f01e9aa25a0029",
  "source": "\r\n/*\r\n * @source: etherscan.io \r\n * @author: -\r\n * @vulnerable_at_lines: 55\r\n */\r\n\r\npragma solidity ^0.4.19;\r\n\r\ncontract ACCURAL_DEPOSIT\r\n{\r\n    mapping (address=>uint256) public balances;   \r\n   \r\n    uint public MinSum = 1 ether;\r\n    \r\n    bool intitalized;\r\n    \r\n    function SetMinSum(uint _val)\r\n    public\r\n    {\r\n        if(intitalized)revert();\r\n        MinSum = _val;\r\n    }\r\n    \r\n    function SetLogFile(address _log)\r\n    public\r\n    {\r\n        if(intitalized)revert();\r\n    }\r\n    \r\n    function Initialized()\r\n    public\r\n    {\r\n        intitalized = true;\r\n    }\r\n    \r\n    function Deposit()\r\n    public\r\n    payable\r\n    {\r\n        balances[msg.sender]+= msg.value;\r\n    }\r\n    \r\n    function Collect(uint _am)\r\n    public\r\n    payable\r\n    {\r\n        if(balances[msg.sender]>=MinSum && balances[msg.sender]>=_am)\r\n        {\r\n            // <yes> <report> REENTRANCY\r\n            if(msg.sender.call.value(_am)())\r\n            {\r\n                balances[msg.sender]-=_am;\r\n            }\r\n        }\r\n    }\r\n    \r\n    function() \r\n    public \r\n    payable\r\n    {\r\n        Deposit();\r\n    }\r\n    \r\n}\r\n",
  "sourcePath": "/home/test/ilf-workspace/proj/contracts/0x4320e6f8c05b27ab4707cd1f6d5ce6f3e4b3a5a1.sol",
  "compiler": {
    "name": "solc",
    "version": "0.4.25+commit.59dbf8f1.Linux.g++"
  },
  "schemaVersion": "3.0.15",
  "updatedAt": "2024-04-04T07:41:58.151Z",
  "devdoc": {
    "methods": {}
  },
  "userdoc": {
    "methods": {}
  }
}