{
  "contractName": "EtherStore",
  "abi": [
    {
      "constant": true,
      "inputs": [
        {
          "name": "",
          "type": "address"
        }
      ],
      "name": "lastWithdrawTime",
      "outputs": [
        {
          "name": "",
          "type": "uint256"
        }
      ],
      "payable": false,
      "stateMutability": "view",
      "type": "function"
    },
    {
      "constant": true,
      "inputs": [
        {
          "name": "",
          "type": "address"
        }
      ],
      "name": "balances",
      "outputs": [
        {
          "name": "",
          "type": "uint256"
        }
      ],
      "payable": false,
      "stateMutability": "view",
      "type": "function"
    },
    {
      "constant": true,
      "inputs": [],
      "name": "withdrawalLimit",
      "outputs": [
        {
          "name": "",
          "type": "uint256"
        }
      ],
      "payable": false,
      "stateMutability": "view",
      "type": "function"
    },
    {
      "constant": false,
      "inputs": [],
      "name": "depositFunds",
      "outputs": [],
      "payable": true,
      "stateMutability": "payable",
      "type": "function"
    },
    {
      "constant": false,
      "inputs": [
        {
          "name": "_weiToWithdraw",
          "type": "uint256"
        }
      ],
      "name": "withdrawFunds",
      "outputs": [],
      "payable": false,
      "stateMutability": "nonpayable",
      "type": "function"
    }
  ],
  "bytecode": "0x6080604052670de0b6b3a764000060005534801561001c57600080fd5b506103b08061002c6000396000f30060806040526004361061006d576000357c0100000000000000000000000000000000000000000000000000000000900463ffffffff1680631031ec3114610072578063155dd5ee146100c957806327e235e3146100f65780637ddfe78d1461014d578063e2c41dbc14610178575b600080fd5b34801561007e57600080fd5b506100b3600480360381019080803573ffffffffffffffffffffffffffffffffffffffff169060200190929190505050610182565b6040518082815260200191505060405180910390f35b3480156100d557600080fd5b506100f46004803603810190808035906020019092919050505061019a565b005b34801561010257600080fd5b50610137600480360381019080803573ffffffffffffffffffffffffffffffffffffffff169060200190929190505050610317565b6040518082815260200191505060405180910390f35b34801561015957600080fd5b5061016261032f565b6040518082815260200191505060405180910390f35b610180610335565b005b60016020528060005260406000206000915090505481565b80600260003373ffffffffffffffffffffffffffffffffffffffff1673ffffffffffffffffffffffffffffffffffffffff16815260200190815260200160002054101515156101e857600080fd5b60005481111515156101f957600080fd5b62093a80600160003373ffffffffffffffffffffffffffffffffffffffff1673ffffffffffffffffffffffffffffffffffffffff1681526020019081526020016000205401421015151561024c57600080fd5b3373ffffffffffffffffffffffffffffffffffffffff168160405160006040518083038185875af192505050151561028357600080fd5b80600260003373ffffffffffffffffffffffffffffffffffffffff1673ffffffffffffffffffffffffffffffffffffffff1681526020019081526020016000206000828254039250508190555042600160003373ffffffffffffffffffffffffffffffffffffffff1673ffffffffffffffffffffffffffffffffffffffff1681526020019081526020016000208190555050565b60026020528060005260406000206000915090505481565b60005481565b34600260003373ffffffffffffffffffffffffffffffffffffffff1673ffffffffffffffffffffffffffffffffffffffff168152602001908152602001600020600082825401925050819055505600a165627a7a723058203931094f334474552dd72d396f3c430ed946889de73acbe2dc4e2daaaf08f6180029",
  "source": "/*\n * @source: https://github.com/sigp/solidity-security-blog\n * @author: Suhabe Bugrara\n * @vulnerable_at_lines: 27\n */\n\n//added pragma version\npragma solidity ^0.4.0;\n\ncontract EtherStore {\n\n    uint256 public withdrawalLimit = 1 ether;\n    mapping(address => uint256) public lastWithdrawTime;\n    mapping(address => uint256) public balances;\n\n    function depositFunds() public payable {\n        balances[msg.sender] += msg.value;\n    }\n\n    function withdrawFunds (uint256 _weiToWithdraw) public {\n        require(balances[msg.sender] >= _weiToWithdraw);\n        // limit the withdrawal\n        require(_weiToWithdraw <= withdrawalLimit);\n        // limit the time allowed to withdraw\n        require(now >= lastWithdrawTime[msg.sender] + 1 weeks);\n        // <yes> <report> REENTRANCY\n        require(msg.sender.call.value(_weiToWithdraw)());\n        balances[msg.sender] -= _weiToWithdraw;\n        lastWithdrawTime[msg.sender] = now;\n    }\n }\n",
  "sourcePath": "/home/test/ilf-workspace/proj/contracts/etherstore.sol",
  "compiler": {
    "name": "solc",
    "version": "0.4.25+commit.59dbf8f1.Linux.g++"
  },
  "schemaVersion": "3.0.15",
  "updatedAt": "2024-04-04T08:46:53.751Z",
  "devdoc": {
    "methods": {}
  },
  "userdoc": {
    "methods": {}
  }
}