{
  "contractName": "Reentrancy_bonus",
  "abi": [
    {
      "payable": true,
      "stateMutability": "payable",
      "type": "fallback"
    },
    {
      "constant": false,
      "inputs": [
        {
          "name": "recipient",
          "type": "address"
        }
      ],
      "name": "withdrawReward",
      "outputs": [],
      "payable": false,
      "stateMutability": "nonpayable",
      "type": "function"
    },
    {
      "constant": false,
      "inputs": [
        {
          "name": "recipient",
          "type": "address"
        }
      ],
      "name": "getFirstWithdrawalBonus",
      "outputs": [],
      "payable": false,
      "stateMutability": "nonpayable",
      "type": "function"
    }
  ],
  "bytecode": "0x608060405234801561001057600080fd5b506102d9806100206000396000f30060806040526004361061004c576000357c0100000000000000000000000000000000000000000000000000000000900463ffffffff1680637d1c54f81461004e578063b86e321c14610091575b005b34801561005a57600080fd5b5061008f600480360381019080803573ffffffffffffffffffffffffffffffffffffffff1690602001909291905050506100d4565b005b34801561009d57600080fd5b506100d2600480360381019080803573ffffffffffffffffffffffffffffffffffffffff1690602001909291905050506101de565b005b600160008273ffffffffffffffffffffffffffffffffffffffff1673ffffffffffffffffffffffffffffffffffffffff16815260200190815260200160002060009054906101000a900460ff1615151561012d57600080fd5b6064600260008373ffffffffffffffffffffffffffffffffffffffff1673ffffffffffffffffffffffffffffffffffffffff16815260200190815260200160002060008282540192505081905550610184816101de565b60018060008373ffffffffffffffffffffffffffffffffffffffff1673ffffffffffffffffffffffffffffffffffffffff16815260200190815260200160002060006101000a81548160ff02191690831515021790555050565b600080600260008473ffffffffffffffffffffffffffffffffffffffff1673ffffffffffffffffffffffffffffffffffffffff1681526020019081526020016000205491506000600260008573ffffffffffffffffffffffffffffffffffffffff1673ffffffffffffffffffffffffffffffffffffffff168152602001908152602001600020819055508273ffffffffffffffffffffffffffffffffffffffff168260405180602001905060006040518083038185875af19250505090508015156102a857600080fd5b5050505600a165627a7a72305820ac5542ab9deb3fb567edb7a2191bba144204af6b398f1e7a1f8770125ae03ad30029",
  "source": "/*\n * @source: https://consensys.github.io/smart-contract-best-practices/known_attacks/\n * @author: consensys\n * @vulnerable_at_lines: 28\n */\n\npragma solidity ^0.4.0;\n\ncontract Reentrancy_bonus{\n\n    // INSECURE\n    mapping (address => uint) private userBalances;\n    mapping (address => bool) private claimedBonus;\n    mapping (address => uint) private rewardsForA;\n\n    function withdrawReward(address recipient) public {\n        uint amountToWithdraw = rewardsForA[recipient];\n        rewardsForA[recipient] = 0;\n        (bool success, ) = recipient.call.value(amountToWithdraw)(\"\");\n        require(success);\n    }\n\n    function getFirstWithdrawalBonus(address recipient) public {\n        require(!claimedBonus[recipient]); // Each recipient should only be able to claim the bonus once\n\n        rewardsForA[recipient] += 100;\n        // <yes> <report> REENTRANCY\n        withdrawReward(recipient); // At this point, the caller will be able to execute getFirstWithdrawalBonus again.\n        claimedBonus[recipient] = true;\n    }\n\n    function () payable { }\n}\n",
  "sourcePath": "/home/test/ilf-workspace/proj/contracts/reentrancy_bonus.sol",
  "compiler": {
    "name": "solc",
    "version": "0.4.25+commit.59dbf8f1.Linux.g++"
  },
  "schemaVersion": "3.0.15",
  "updatedAt": "2024-04-05T14:59:50.042Z",
  "devdoc": {
    "methods": {}
  },
  "userdoc": {
    "methods": {}
  }
}