{
  "contractName": "KingOfTheEtherThrone",
  "abi": [
    {
      "constant": true,
      "inputs": [],
      "name": "currentClaimPrice",
      "outputs": [
        {
          "name": "",
          "type": "uint256"
        }
      ],
      "payable": false,
      "stateMutability": "view",
      "type": "function"
    },
    {
      "constant": true,
      "inputs": [
        {
          "name": "",
          "type": "uint256"
        }
      ],
      "name": "pastMonarchs",
      "outputs": [
        {
          "name": "etherAddress",
          "type": "address"
        },
        {
          "name": "name",
          "type": "string"
        },
        {
          "name": "claimPrice",
          "type": "uint256"
        },
        {
          "name": "coronationTimestamp",
          "type": "uint256"
        }
      ],
      "payable": false,
      "stateMutability": "view",
      "type": "function"
    },
    {
      "constant": true,
      "inputs": [],
      "name": "currentMonarch",
      "outputs": [
        {
          "name": "etherAddress",
          "type": "address"
        },
        {
          "name": "name",
          "type": "string"
        },
        {
          "name": "claimPrice",
          "type": "uint256"
        },
        {
          "name": "coronationTimestamp",
          "type": "uint256"
        }
      ],
      "payable": false,
      "stateMutability": "view",
      "type": "function"
    },
    {
      "inputs": [],
      "payable": false,
      "stateMutability": "nonpayable",
      "type": "constructor"
    },
    {
      "payable": false,
      "stateMutability": "nonpayable",
      "type": "fallback"
    },
    {
      "anonymous": false,
      "inputs": [
        {
          "indexed": false,
          "name": "usurperEtherAddress",
          "type": "address"
        },
        {
          "indexed": false,
          "name": "usurperName",
          "type": "string"
        },
        {
          "indexed": false,
          "name": "newClaimPrice",
          "type": "uint256"
        }
      ],
      "name": "ThroneClaimed",
      "type": "event"
    },
    {
      "constant": true,
      "inputs": [],
      "name": "numberOfMonarchs",
      "outputs": [
        {
          "name": "n",
          "type": "uint256"
        }
      ],
      "payable": false,
      "stateMutability": "view",
      "type": "function"
    },
    {
      "constant": false,
      "inputs": [
        {
          "name": "name",
          "type": "string"
        }
      ],
      "name": "claimThrone",
      "outputs": [],
      "payable": false,
      "stateMutability": "nonpayable",
      "type": "function"
    },
    {
      "constant": false,
      "inputs": [
        {
          "name": "amount",
          "type": "uint256"
        }
      ],
      "name": "sweepCommission",
      "outputs": [],
      "payable": false,
      "stateMutability": "nonpayable",
      "type": "function"
    },
    {
      "constant": false,
      "inputs": [
        {
          "name": "newOwner",
          "type": "address"
        }
      ],
      "name": "transferOwnership",
      "outputs": [],
      "payable": false,
      "stateMutability": "nonpayable",
      "type": "function"
    }
  ],
  "bytecode": "0x608060405234801561001057600080fd5b50336000806101000a81548173ffffffffffffffffffffffffffffffffffffffff021916908373ffffffffffffffffffffffffffffffffffffffff16021790555067016345785d8a00006001819055506080604051908101604052806000809054906101000a900473ffffffffffffffffffffffffffffffffffffffff1673ffffffffffffffffffffffffffffffffffffffff1681526020016040805190810160405280600881526020017f5b566163616e745d00000000000000000000000000000000000000000000000081525081526020016000815260200142815250600260008201518160000160006101000a81548173ffffffffffffffffffffffffffffffffffffffff021916908373ffffffffffffffffffffffffffffffffffffffff1602179055506020820151816001019080519060200190610154929190610171565b506040820151816002015560608201518160030155905050610216565b828054600181600116156101000203166002900490600052602060002090601f016020900481019282601f106101b257805160ff19168380011785556101e0565b828001600101855582156101e0579182015b828111156101df5782518255916020019190600101906101c4565b5b5090506101ed91906101f1565b5090565b61021391905b8082111561020f5760008160009055506001016101f7565b5090565b90565b610e08806102256000396000f300608060405260043610610083576000357c0100000000000000000000000000000000000000000000000000000000900463ffffffff1680630eb3f5a0146100ce57806364325ddb146100fb5780637842c52d14610126578063b66a323c1461020d578063c8fdc89114610276578063e40d0ac3146102a1578063f2fde38b14610372575b34801561008f57600080fd5b506100cc6000368080601f0160208091040260200160405190810160405280939291908181526020018383808284378201915050505050506103b5565b005b3480156100da57600080fd5b506100f960048036038101908080359060200190929190505050610987565b005b34801561010757600080fd5b50610110610a37565b6040518082815260200191505060405180910390f35b34801561013257600080fd5b5061015160048036038101908080359060200190929190505050610a3d565b604051808573ffffffffffffffffffffffffffffffffffffffff1673ffffffffffffffffffffffffffffffffffffffff16815260200180602001848152602001838152602001828103825285818151815260200191508051906020019080838360005b838110156101cf5780820151818401526020810190506101b4565b50505050905090810190601f1680156101fc5780820380516001836020036101000a031916815260200191505b509550505050505060405180910390f35b34801561021957600080fd5b50610274600480360381019080803590602001908201803590602001908080601f01602080910402602001604051908101604052809392919081815260200183838082843782019150505050505091929192905050506103b5565b005b34801561028257600080fd5b5061028b610b34565b6040518082815260200191505060405180910390f35b3480156102ad57600080fd5b506102b6610b41565b604051808573ffffffffffffffffffffffffffffffffffffffff1673ffffffffffffffffffffffffffffffffffffffff16815260200180602001848152602001838152602001828103825285818151815260200191508051906020019080838360005b83811015610334578082015181840152602081019050610319565b50505050905090810190601f1680156103615780820380516001836020036101000a031916815260200191505b509550505050505060405180910390f35b34801561037e57600080fd5b506103b3600480360381019080803573ffffffffffffffffffffffffffffffffffffffff169060200190929190505050610c17565b005b6000806000806000349450600154851015610405573373ffffffffffffffffffffffffffffffffffffffff166108fc869081150290604051600060405180830381858888f193505050505061097f565b60015485111561045257600154850393503373ffffffffffffffffffffffffffffffffffffffff166108fc859081150290604051600060405180830381858888f193505050505083850394505b60646001860281151561046157fe5b04925082850391506000809054906101000a900473ffffffffffffffffffffffffffffffffffffffff1673ffffffffffffffffffffffffffffffffffffffff16600260000160009054906101000a900473ffffffffffffffffffffffffffffffffffffffff1673ffffffffffffffffffffffffffffffffffffffff1614151561054457600260000160009054906101000a900473ffffffffffffffffffffffffffffffffffffffff1673ffffffffffffffffffffffffffffffffffffffff166108fc839081150290604051600060405180830381858888f1935050505050610545565b5b60066002908060018154018082558091505090600182039060005260206000209060040201600090919290919091506000820160009054906101000a900473ffffffffffffffffffffffffffffffffffffffff168160000160006101000a81548173ffffffffffffffffffffffffffffffffffffffff021916908373ffffffffffffffffffffffffffffffffffffffff16021790555060018201816001019080546001816001161561010002031660029004610602929190610cb0565b5060028201548160020155600382015481600301555050506080604051908101604052803373ffffffffffffffffffffffffffffffffffffffff16815260200187815260200186815260200142815250600260008201518160000160006101000a81548173ffffffffffffffffffffffffffffffffffffffff021916908373ffffffffffffffffffffffffffffffffffffffff16021790555060208201518160010190805190602001906106b7929190610d37565b50604082015181600201556060820151816003015590505060026003600154028115156106e057fe5b049050662386f26fc100008110156106fe578060018190555061085e565b67016345785d8a000081101561073357655af3107a40008181151561071f57fe5b04655af3107a40000260018190555061085d565b670de0b6b3a764000081101561076a5766038d7ea4c680008181151561075557fe5b0466038d7ea4c680000260018190555061085c565b678ac7230489e800008110156107a157662386f26fc100008181151561078c57fe5b04662386f26fc100000260018190555061085b565b68056bc75e2d631000008110156107db5767016345785d8a0000818115156107c557fe5b0467016345785d8a00000260018190555061085a565b683635c9adc5dea0000081101561081557670de0b6b3a7640000818115156107ff57fe5b04670de0b6b3a764000002600181905550610859565b69021e19e0c9bab240000081101561085057678ac7230489e800008181151561083a57fe5b04678ac7230489e8000002600181905550610858565b806001819055505b5b5b5b5b5b5b7f66dd2fa17295ffce5da0fb78b9a7146bc2c19cfbab9752e98fd016cfde14e0de600260000160009054906101000a900473ffffffffffffffffffffffffffffffffffffffff166002600101600154604051808473ffffffffffffffffffffffffffffffffffffffff1673ffffffffffffffffffffffffffffffffffffffff1681526020018060200183815260200182810382528481815460018160011615610100020316600290048152602001915080546001816001161561010002031660029004801561096e5780601f106109435761010080835404028352916020019161096e565b820191906000526020600020905b81548152906001019060200180831161095157829003601f168201915b505094505050505060405180910390a15b505050505050565b6000809054906101000a900473ffffffffffffffffffffffffffffffffffffffff1673ffffffffffffffffffffffffffffffffffffffff163373ffffffffffffffffffffffffffffffffffffffff161415610a34576000809054906101000a900473ffffffffffffffffffffffffffffffffffffffff1673ffffffffffffffffffffffffffffffffffffffff166108fc829081150290604051600060405180830381858888f19350505050505b50565b60015481565b600681815481101515610a4c57fe5b90600052602060002090600402016000915090508060000160009054906101000a900473ffffffffffffffffffffffffffffffffffffffff1690806001018054600181600116156101000203166002900480601f016020809104026020016040519081016040528092919081815260200182805460018160011615610100020316600290048015610b1e5780601f10610af357610100808354040283529160200191610b1e565b820191906000526020600020905b815481529060010190602001808311610b0157829003601f168201915b5050505050908060020154908060030154905084565b6000600680549050905090565b60028060000160009054906101000a900473ffffffffffffffffffffffffffffffffffffffff1690806001018054600181600116156101000203166002900480601f016020809104026020016040519081016040528092919081815260200182805460018160011615610100020316600290048015610c015780601f10610bd657610100808354040283529160200191610c01565b820191906000526020600020905b815481529060010190602001808311610be457829003601f168201915b5050505050908060020154908060030154905084565b6000809054906101000a900473ffffffffffffffffffffffffffffffffffffffff1673ffffffffffffffffffffffffffffffffffffffff163373ffffffffffffffffffffffffffffffffffffffff161415610cad57806000806101000a81548173ffffffffffffffffffffffffffffffffffffffff021916908373ffffffffffffffffffffffffffffffffffffffff1602179055505b50565b828054600181600116156101000203166002900490600052602060002090601f016020900481019282601f10610ce95780548555610d26565b82800160010185558215610d2657600052602060002091601f016020900482015b82811115610d25578254825591600101919060010190610d0a565b5b509050610d339190610db7565b5090565b828054600181600116156101000203166002900490600052602060002090601f016020900481019282601f10610d7857805160ff1916838001178555610da6565b82800160010185558215610da6579182015b82811115610da5578251825591602001919060010190610d8a565b5b509050610db39190610db7565b5090565b610dd991905b80821115610dd5576000816000905550600101610dbd565b5090565b905600a165627a7a723058202bd12ead49e0e03841faea86bd4c03e69af1d8ad21043025a3851331c51791320029",
  "source": "/*\n * @source: https://github.com/kieranelby/KingOfTheEtherThrone/blob/v0.4.0/contracts/KingOfTheEtherThrone.sol\n * @author: -\n * @vulnerable_at_lines: 110,118,132,174\n */\n\n// A chain-game contract that maintains a 'throne' which agents may pay to rule.\n// See www.kingoftheether.com & https://github.com/kieranelby/KingOfTheEtherThrone .\n// (c) Kieran Elby 2016. All rights reserved.\n// v0.4.0.\n// Inspired by ethereumpyramid.com and the (now-gone?) \"magnificent bitcoin gem\".\n\n// This contract lives on the blockchain at 0xb336a86e2feb1e87a328fcb7dd4d04de3df254d0\n// and was compiled (using optimization) with:\n// Solidity version: 0.2.1-fad2d4df/.-Emscripten/clang/int linked to libethereum\n\n// For future versions it would be nice to ...\n// TODO - enforce time-limit on reign (can contracts do that without external action)?\n// TODO - add a random reset?\n// TODO - add bitcoin bridge so agents can pay in bitcoin?\n// TODO - maybe allow different return payment address?\n\n//added pragma version\npragma solidity ^0.4.0;\n\ncontract KingOfTheEtherThrone {\n\n    struct Monarch {\n        // Address to which their compensation will be sent.\n        address etherAddress;\n        // A name by which they wish to be known.\n        // NB: Unfortunately \"string\" seems to expose some bugs in web3.\n        string name;\n        // How much did they pay to become monarch?\n        uint claimPrice;\n        // When did their rule start (based on block.timestamp)?\n        uint coronationTimestamp;\n    }\n\n    // The wizard is the hidden power behind the throne; they\n    // occupy the throne during gaps in succession and collect fees.\n    address wizardAddress;\n\n    // Used to ensure only the wizard can do some things.\n    modifier onlywizard { if (msg.sender == wizardAddress) _; }\n\n    // How much must the first monarch pay?\n    uint constant startingClaimPrice = 100 finney;\n\n    // The next claimPrice is calculated from the previous claimFee\n    // by multiplying by claimFeeAdjustNum and dividing by claimFeeAdjustDen -\n    // for example, num=3 and den=2 would cause a 50% increase.\n    uint constant claimPriceAdjustNum = 3;\n    uint constant claimPriceAdjustDen = 2;\n\n    // How much of each claimFee goes to the wizard (expressed as a fraction)?\n    // e.g. num=1 and den=100 would deduct 1% for the wizard, leaving 99% as\n    // the compensation fee for the usurped monarch.\n    uint constant wizardCommissionFractionNum = 1;\n    uint constant wizardCommissionFractionDen = 100;\n\n    // How much must an agent pay now to become the monarch?\n    uint public currentClaimPrice;\n\n    // The King (or Queen) of the Ether.\n    Monarch public currentMonarch;\n\n    // Earliest-first list of previous throne holders.\n    Monarch[] public pastMonarchs;\n\n    // Create a new throne, with the creator as wizard and first ruler.\n    // Sets up some hopefully sensible defaults.\n    function KingOfTheEtherThrone() {\n        wizardAddress = msg.sender;\n        currentClaimPrice = startingClaimPrice;\n        currentMonarch = Monarch(\n            wizardAddress,\n            \"[Vacant]\",\n            0,\n            block.timestamp\n        );\n    }\n\n    function numberOfMonarchs() constant returns (uint n) {\n        return pastMonarchs.length;\n    }\n\n    // Fired when the throne is claimed.\n    // In theory can be used to help build a front-end.\n    event ThroneClaimed(\n        address usurperEtherAddress,\n        string usurperName,\n        uint newClaimPrice\n    );\n\n    // Fallback function - simple transactions trigger this.\n    // Assume the message data is their desired name.\n    function() {\n        claimThrone(string(msg.data));\n    }\n\n    // Claim the throne for the given name by paying the currentClaimFee.\n    function claimThrone(string name) {\n\n        uint valuePaid = msg.value;\n\n        // If they paid too little, reject claim and refund their money.\n        if (valuePaid < currentClaimPrice) {\n            // <yes> <report> UNCHECKED_LL_CALLS\n            msg.sender.send(valuePaid);\n            return;\n        }\n\n        // If they paid too much, continue with claim but refund the excess.\n        if (valuePaid > currentClaimPrice) {\n            uint excessPaid = valuePaid - currentClaimPrice;\n            // <yes> <report> UNCHECKED_LL_CALLS\n            msg.sender.send(excessPaid);\n            valuePaid = valuePaid - excessPaid;\n        }\n\n        // The claim price payment goes to the current monarch as compensation\n        // (with a commission held back for the wizard). We let the wizard's\n        // payments accumulate to avoid wasting gas sending small fees.\n\n        uint wizardCommission = (valuePaid * wizardCommissionFractionNum) / wizardCommissionFractionDen;\n\n        uint compensation = valuePaid - wizardCommission;\n\n        if (currentMonarch.etherAddress != wizardAddress) {\n            // <yes> <report> UNCHECKED_LL_CALLS\n            currentMonarch.etherAddress.send(compensation);\n        } else {\n            // When the throne is vacant, the fee accumulates for the wizard.\n        }\n\n        // Usurp the current monarch, replacing them with the new one.\n        pastMonarchs.push(currentMonarch);\n        currentMonarch = Monarch(\n            msg.sender,\n            name,\n            valuePaid,\n            block.timestamp\n        );\n\n        // Increase the claim fee for next time.\n        // Stop number of trailing decimals getting silly - we round it a bit.\n        uint rawNewClaimPrice = currentClaimPrice * claimPriceAdjustNum / claimPriceAdjustDen;\n        if (rawNewClaimPrice < 10 finney) {\n            currentClaimPrice = rawNewClaimPrice;\n        } else if (rawNewClaimPrice < 100 finney) {\n            currentClaimPrice = 100 szabo * (rawNewClaimPrice / 100 szabo);\n        } else if (rawNewClaimPrice < 1 ether) {\n            currentClaimPrice = 1 finney * (rawNewClaimPrice / 1 finney);\n        } else if (rawNewClaimPrice < 10 ether) {\n            currentClaimPrice = 10 finney * (rawNewClaimPrice / 10 finney);\n        } else if (rawNewClaimPrice < 100 ether) {\n            currentClaimPrice = 100 finney * (rawNewClaimPrice / 100 finney);\n        } else if (rawNewClaimPrice < 1000 ether) {\n            currentClaimPrice = 1 ether * (rawNewClaimPrice / 1 ether);\n        } else if (rawNewClaimPrice < 10000 ether) {\n            currentClaimPrice = 10 ether * (rawNewClaimPrice / 10 ether);\n        } else {\n            currentClaimPrice = rawNewClaimPrice;\n        }\n\n        // Hail the new monarch!\n        ThroneClaimed(currentMonarch.etherAddress, currentMonarch.name, currentClaimPrice);\n    }\n\n    // Used only by the wizard to collect his commission.\n    function sweepCommission(uint amount) onlywizard {\n        // <yes> <report> UNCHECKED_LL_CALLS\n        wizardAddress.send(amount);\n    }\n\n    // Used only by the wizard to collect his commission.\n    function transferOwnership(address newOwner) onlywizard {\n        wizardAddress = newOwner;\n    }\n\n}\n",
  "sourcePath": "/home/test/ilf-workspace/proj/contracts/king_of_the_ether_throne.sol",
  "compiler": {
    "name": "solc",
    "version": "0.4.25+commit.59dbf8f1.Linux.g++"
  },
  "schemaVersion": "3.0.15",
  "updatedAt": "2024-04-05T13:55:19.181Z",
  "devdoc": {
    "methods": {}
  },
  "userdoc": {
    "methods": {}
  }
}