{
  "contractName": "Reentrance",
  "abi": [
    {
      "constant": true,
      "inputs": [
        {
          "name": "",
          "type": "address"
        }
      ],
      "name": "balances",
      "outputs": [
        {
          "name": "",
          "type": "uint256"
        }
      ],
      "payable": false,
      "stateMutability": "view",
      "type": "function"
    },
    {
      "payable": true,
      "stateMutability": "payable",
      "type": "fallback"
    },
    {
      "constant": false,
      "inputs": [
        {
          "name": "_to",
          "type": "address"
        }
      ],
      "name": "donate",
      "outputs": [],
      "payable": true,
      "stateMutability": "payable",
      "type": "function"
    },
    {
      "constant": true,
      "inputs": [
        {
          "name": "_who",
          "type": "address"
        }
      ],
      "name": "balanceOf",
      "outputs": [
        {
          "name": "balance",
          "type": "uint256"
        }
      ],
      "payable": false,
      "stateMutability": "view",
      "type": "function"
    },
    {
      "constant": false,
      "inputs": [
        {
          "name": "_amount",
          "type": "uint256"
        }
      ],
      "name": "withdraw",
      "outputs": [],
      "payable": false,
      "stateMutability": "nonpayable",
      "type": "function"
    }
  ],
  "bytecode": "0x608060405234801561001057600080fd5b50610313806100206000396000f300608060405260043610610061576000357c0100000000000000000000000000000000000000000000000000000000900463ffffffff168062362a951461006357806327e235e3146100995780632e1a7d4d146100f057806370a082311461011d575b005b610097600480360381019080803573ffffffffffffffffffffffffffffffffffffffff169060200190929190505050610174565b005b3480156100a557600080fd5b506100da600480360381019080803573ffffffffffffffffffffffffffffffffffffffff1690602001909291905050506101c3565b6040518082815260200191505060405180910390f35b3480156100fc57600080fd5b5061011b600480360381019080803590602001909291905050506101db565b005b34801561012957600080fd5b5061015e600480360381019080803573ffffffffffffffffffffffffffffffffffffffff16906020019092919050505061029f565b6040518082815260200191505060405180910390f35b346000808373ffffffffffffffffffffffffffffffffffffffff1673ffffffffffffffffffffffffffffffffffffffff1681526020019081526020016000206000828254019250508190555050565b60006020528060005260406000206000915090505481565b806000803373ffffffffffffffffffffffffffffffffffffffff1673ffffffffffffffffffffffffffffffffffffffff1681526020019081526020016000205410151561029c573373ffffffffffffffffffffffffffffffffffffffff168160405160006040518083038185875af19250505050806000803373ffffffffffffffffffffffffffffffffffffffff1673ffffffffffffffffffffffffffffffffffffffff168152602001908152602001600020600082825403925050819055505b50565b60008060008373ffffffffffffffffffffffffffffffffffffffff1673ffffffffffffffffffffffffffffffffffffffff1681526020019081526020016000205490509190505600a165627a7a72305820f4719ddc066aca65b16d093caaa33d72e66457e72abcaf258b6504136f5464980029",
  "source": "/*\n * @source: https://ethernaut.zeppelin.solutions/level/0xf70706db003e94cfe4b5e27ffd891d5c81b39488\n * @author: Alejandro Santander\n * @vulnerable_at_lines: 24\n */\n\npragma solidity ^0.4.18;\n\ncontract Reentrance {\n\n  mapping(address => uint) public balances;\n\n  function donate(address _to) public payable {\n    balances[_to] += msg.value;\n  }\n\n  function balanceOf(address _who) public view returns (uint balance) {\n    return balances[_who];\n  }\n\n  function withdraw(uint _amount) public {\n    if(balances[msg.sender] >= _amount) {\n      // <yes> <report> REENTRANCY\n      if(msg.sender.call.value(_amount)()) {\n        _amount;\n      }\n      balances[msg.sender] -= _amount;\n    }\n  }\n\n  function() public payable {}\n}\n",
  "sourcePath": "/home/test/ilf-workspace/proj/contracts/reentrance.sol",
  "compiler": {
    "name": "solc",
    "version": "0.4.25+commit.59dbf8f1.Linux.g++"
  },
  "schemaVersion": "3.0.15",
  "updatedAt": "2024-04-04T00:09:09.875Z",
  "devdoc": {
    "methods": {}
  },
  "userdoc": {
    "methods": {}
  }
}